{"abi":[{"type":"function","name":"amountOuts","inputs":[{"name":"","type":"bytes32","internalType":"bytes32"}],"outputs":[{"name":"","type":"uint256","internalType":"uint256"}],"stateMutability":"view"},{"type":"function","name":"exactInputSingle","inputs":[{"name":"params","type":"tuple","internalType":"struct IUniswapV3Router.ExactInputSingleParams","components":[{"name":"tokenIn","type":"address","internalType":"address"},{"name":"tokenOut","type":"address","internalType":"address"},{"name":"fee","type":"uint24","internalType":"uint24"},{"name":"recipient","type":"address","internalType":"address"},{"name":"deadline","type":"uint256","internalType":"uint256"},{"name":"amountIn","type":"uint256","internalType":"uint256"},{"name":"amountOutMinimum","type":"uint256","internalType":"uint256"},{"name":"sqrtPriceLimitX96","type":"uint160","internalType":"uint160"}]}],"outputs":[{"name":"amountOut","type":"uint256","internalType":"uint256"}],"stateMutability":"payable"},{"type":"function","name":"setAmountOut","inputs":[{"name":"tokenIn","type":"address","internalType":"address"},{"name":"tokenOut","type":"address","internalType":"address"},{"name":"fee","type":"uint24","internalType":"uint24"},{"name":"amountIn","type":"uint256","internalType":"uint256"},{"name":"amountOut","type":"uint256","internalType":"uint256"}],"outputs":[],"stateMutability":"nonpayable"}],"bytecode":{"object":"0x6080806040523461001657610595908161001b8239f35b5f80fdfe60806040818152600480361015610014575f80fd5b5f92833560e01c908163323a10401461044d57508063414bf3891461016f57635781ab0b14610041575f80fd5b3461016b5760a07ffffffffffffffffffffffffffffffffffffffffffffffffffffffffffffffffc36011261016b573573ffffffffffffffffffffffffffffffffffffffff9081811681036101675760243591821682036101675760443562ffffff81168103610163578351606092831b7fffffffffffffffffffffffffffffffffffffffff000000000000000000000000908116602083019081529490931b909216603483015260e81b7fffffff0000000000000000000000000000000000000000000000000000000000166048820152606435604b82015261015081606b81015b037fffffffffffffffffffffffffffffffffffffffffffffffffffffffffffffffe0810183528261048f565b5190208252816020526084359082205580f35b8480fd5b8380fd5b8280fd5b5091906101007ffffffffffffffffffffffffffffffffffffffffffffffffffffffffffffffffc360112610449576101a56104fd565b926101ae610524565b926044359462ffffff86168603610449578351606091821b7fffffffffffffffffffffffffffffffffffffffff00000000000000000000000090811660208084019182529790931b16603482015260e89690961b7fffffff000000000000000000000000000000000000000000000000000000000016604887015260a435604b8701819052949561024281606b8101610124565b5190208152808552828120549384156103ed5760c435851061039157818673ffffffffffffffffffffffffffffffffffffffff926064846102816104fd565b1691885194859384927f23b872dd000000000000000000000000000000000000000000000000000000008452338b85015230602485015260448401525af180156103875761036a575b50806102d4610524565b169260643591821680920361016b57906044879284875196879485937fa9059cbb0000000000000000000000000000000000000000000000000000000085528401528960248401525af190811561035f5750610332575b5051908152f35b61035190843d8611610358575b610349818361048f565b810190610547565b505f61032b565b503d61033f565b8351903d90823e3d90fd5b61038090873d891161035857610349818361048f565b505f6102ca565b85513d85823e3d90fd5b606483878651917f08c379a0000000000000000000000000000000000000000000000000000000008352820152600860248201527f536c6970706167650000000000000000000000000000000000000000000000006044820152fd5b606483878651917f08c379a0000000000000000000000000000000000000000000000000000000008352820152601160248201527f4e6f20616d6f756e74206f7574207365740000000000000000000000000000006044820152fd5b5080fd5b92919050346101675760207ffffffffffffffffffffffffffffffffffffffffffffffffffffffffffffffffc3601126101675735835260208381529220548152f35b90601f7fffffffffffffffffffffffffffffffffffffffffffffffffffffffffffffffe0910116810190811067ffffffffffffffff8211176104d057604052565b7f4e487b71000000000000000000000000000000000000000000000000000000005f52604160045260245ffd5b60043573ffffffffffffffffffffffffffffffffffffffff811681036105205790565b5f80fd5b60243573ffffffffffffffffffffffffffffffffffffffff811681036105205790565b9081602091031261052057518015158103610520579056fea2646970667358221220c1450b17c50af6f027d4bf25ecdf55e0184773905f99f9bd0b41f7b7304a105564736f6c63430008140033","linkReferences":{}},"methodIdentifiers":{"amountOuts(bytes32)":"323a1040","exactInputSingle((address,address,uint24,address,uint256,uint256,uint256,uint160))":"414bf389","setAmountOut(address,address,uint24,uint256,uint256)":"5781ab0b"},"id":4}