{"abi":[{"type":"constructor","inputs":[{"name":"initialOwner","type":"address","internalType":"address"}],"stateMutability":"nonpayable"},{"type":"receive","stateMutability":"payable"},{"type":"function","name":"POOL","inputs":[],"outputs":[{"name":"","type":"address","internalType":"contract IPool"}],"stateMutability":"view"},{"type":"function","name":"executeArbitrage","inputs":[{"name":"_flashLoanToken","type":"address","internalType":"address"},{"name":"_flashLoanAmount","type":"uint256","internalType":"uint256"},{"name":"_swaps","type":"tuple[]","internalType":"struct Swap[]","components":[{"name":"router","type":"address","internalType":"address"},{"name":"from","type":"address","internalType":"address"},{"name":"to","type":"address","internalType":"address"},{"name":"dex","type":"uint8","internalType":"enum DexType"},{"name":"dexParams","type":"bytes","internalType":"bytes"}]}],"outputs":[],"stateMutability":"nonpayable"},{"type":"function","name":"executeOperation","inputs":[{"name":"assets","type":"address[]","internalType":"address[]"},{"name":"amounts","type":"uint256[]","internalType":"uint256[]"},{"name":"premiums","type":"uint256[]","internalType":"uint256[]"},{"name":"","type":"address","internalType":"address"},{"name":"params","type":"bytes","internalType":"bytes"}],"outputs":[{"name":"","type":"bool","internalType":"bool"}],"stateMutability":"nonpayable"},{"type":"function","name":"keeperFee","inputs":[],"outputs":[{"name":"","type":"uint256","internalType":"uint256"}],"stateMutability":"view"},{"type":"function","name":"owner","inputs":[],"outputs":[{"name":"","type":"address","internalType":"address"}],"stateMutability":"view"},{"type":"function","name":"pause","inputs":[],"outputs":[],"stateMutability":"nonpayable"},{"type":"function","name":"paused","inputs":[],"outputs":[{"name":"","type":"bool","internalType":"bool"}],"stateMutability":"view"},{"type":"function","name":"renounceOwnership","inputs":[],"outputs":[],"stateMutability":"nonpayable"},{"type":"function","name":"setKeeperFee","inputs":[{"name":"_newFee","type":"uint256","internalType":"uint256"}],"outputs":[],"stateMutability":"nonpayable"},{"type":"function","name":"setRouter","inputs":[{"name":"_router","type":"address","internalType":"address"},{"name":"_isWhitelisted","type":"bool","internalType":"bool"}],"outputs":[],"stateMutability":"nonpayable"},{"type":"function","name":"transferOwnership","inputs":[{"name":"newOwner","type":"address","internalType":"address"}],"outputs":[],"stateMutability":"nonpayable"},{"type":"function","name":"unpause","inputs":[],"outputs":[],"stateMutability":"nonpayable"},{"type":"function","name":"whitelistedRouters","inputs":[{"name":"","type":"address","internalType":"address"}],"outputs":[{"name":"","type":"bool","internalType":"bool"}],"stateMutability":"view"},{"type":"function","name":"withdraw","inputs":[{"name":"_tokenAddress","type":"address","internalType":"address"}],"outputs":[],"stateMutability":"nonpayable"},{"type":"event","name":"KeeperFeePaid","inputs":[{"name":"keeper","type":"address","indexed":false,"internalType":"address"},{"name":"token","type":"address","indexed":false,"internalType":"address"},{"name":"amount","type":"uint256","indexed":false,"internalType":"uint256"}],"anonymous":false},{"type":"event","name":"LoanRepaid","inputs":[{"name":"token","type":"address","indexed":false,"internalType":"address"},{"name":"amount","type":"uint256","indexed":false,"internalType":"uint256"}],"anonymous":false},{"type":"event","name":"OwnershipTransferred","inputs":[{"name":"previousOwner","type":"address","indexed":true,"internalType":"address"},{"name":"newOwner","type":"address","indexed":true,"internalType":"address"}],"anonymous":false},{"type":"event","name":"ProfitTransfer","inputs":[{"name":"token","type":"address","indexed":false,"internalType":"address"},{"name":"amount","type":"uint256","indexed":false,"internalType":"uint256"}],"anonymous":false},{"type":"event","name":"SwapFailed","inputs":[{"name":"router","type":"address","indexed":false,"internalType":"address"},{"name":"dex","type":"uint8","indexed":false,"internalType":"enum DexType"},{"name":"tokenIn","type":"address","indexed":false,"internalType":"address"},{"name":"tokenOut","type":"address","indexed":false,"internalType":"address"},{"name":"reason","type":"string","indexed":false,"internalType":"string"}],"anonymous":false},{"type":"error","name":"OwnableInvalidOwner","inputs":[{"name":"owner","type":"address","internalType":"address"}]},{"type":"error","name":"OwnableUnauthorizedAccount","inputs":[{"name":"account","type":"address","internalType":"address"}]},{"type":"error","name":"SafeERC20FailedOperation","inputs":[{"name":"token","type":"address","internalType":"address"}]}],"bytecode":{"object":"0x60a06040523461004d57610019610014610112565b61025e565b610021610052565b61385661046482396080518181816104dc015281816110ce01528181611d6601526120ce015261385690f35b610058565b60405190565b5f80fd5b601f801991011690565b634e487b7160e01b5f52604160045260245ffd5b906100849061005c565b810190811060018060401b0382111761009c57604052565b610066565b906100b46100ad610052565b928361007a565b565b5f80fd5b60018060a01b031690565b6100ce906100ba565b90565b6100da816100c5565b036100e157565b5f80fd5b905051906100f2826100d1565b565b9060208282031261010d5761010a915f016100e5565b90565b6100b6565b610130613cba80380380610125816100a1565b9283398101906100f4565b90565b90565b61014a61014561014f926100ba565b610133565b6100ba565b90565b61015b90610136565b90565b61016790610152565b90565b90565b90565b61018461017f6101899261016a565b610133565b61016d565b90565b5f1b90565b9061019d5f199161018c565b9181191691161790565b6101bb6101b66101c09261016d565b610133565b61016d565b90565b90565b906101db6101d66101e2926101a7565b6101c3565b8254610191565b9055565b6101ef90610136565b90565b6101fb906101e6565b90565b90610208906101f2565b5f5260205260405f2090565b9061022060ff9161018c565b9181191691161790565b151590565b6102389061022a565b90565b90565b9061025361024e61025a9261022f565b61023b565b8254610214565b9055565b6102679061033e565b61028473a238dd80c259a72e81d7e4664a9801593f98d1c561015e565b60805261029b6102946032610170565b60026101c6565b6102c560016102c0600173cf77a3ba9a5ca399b7c97c74d54e5b1beb874e43906101fe565b61023e565b6102ef60016102ea600173678aa4bf4e210cf2166753e054d5b7c31cc7fa86906101fe565b61023e565b565b90565b61030861030361030d926102f1565b610133565b6100ba565b90565b610319906102f4565b90565b610325906100c5565b9052565b919061033c905f6020850194019061031c565b565b8061035961035361034e5f610310565b6100c5565b916100c5565b146103695761036790610404565b565b61038c6103755f610310565b5f918291631e4fbdf760e01b835260048301610329565b0390fd5b5f1c90565b60018060a01b031690565b6103ac6103b191610390565b610395565b90565b6103be90546103a0565b90565b906103d260018060a01b039161018c565b9181191691161790565b90565b906103f46103ef6103fb926101f2565b6103dc565b82546103c1565b9055565b5f0190565b61040d5f6103b4565b610417825f6103df565b9061044b6104457f8be0079c531659141344cd1fd0a4f28419497f9722a3daafe3b4186f6b6457e0936101f2565b916101f2565b91610454610052565b8061045e816103ff565b0390a356fe60806040526004361015610015575b366108ac57005b61001f5f356100fe565b8063059f3a2d146100f95780630f874a13146100f45780633f4ba83a146100ef578063422ede42146100ea57806351cff8d9146100e55780635c975abb146100e0578063715018a6146100db5780637535d246146100d65780638456cb59146100d15780638da5cb5b146100cc578063920f5c84146100c757806398dfca7f146100c2578063c3c64674146100bd5763f2fde38b0361000e57610879565b610845565b6107c2565b610765565b6105b6565b610561565b61052c565b6104a7565b610472565b610430565b6103fb565b61036e565b61032a565b610218565b60e01c90565b60405190565b5f80fd5b5f80fd5b5f80fd5b60018060a01b031690565b61012a90610116565b90565b61013681610121565b0361013d57565b5f80fd5b9050359061014e8261012d565b565b90565b61015c81610150565b0361016357565b5f80fd5b9050359061017482610153565b565b5f80fd5b5f80fd5b5f80fd5b909182601f830112156101bc5781359167ffffffffffffffff83116101b75760200192602083028401116101b257565b61017e565b61017a565b610176565b9160608383031261020e576101d8825f8501610141565b926101e68360208301610167565b92604082013567ffffffffffffffff8111610209576102059201610182565b9091565b610112565b61010e565b5f0190565b3461024a5761023461022b3660046101c1565b92919091611180565b61023c610104565b8061024681610213565b0390f35b61010a565b9060208282031261026857610265915f01610141565b90565b61010e565b90565b61028461027f61028992610116565b61026d565b610116565b90565b61029590610270565b90565b6102a19061028c565b90565b906102ae90610298565b5f5260205260405f2090565b1c90565b60ff1690565b6102d49060086102d993026102ba565b6102be565b90565b906102e791546102c4565b90565b610300906102fb6001915f926102a4565b6102dc565b90565b151590565b61031190610303565b9052565b9190610328905f60208501940190610308565b565b3461035a5761035661034561034036600461024f565b6102ea565b61034d610104565b91829182610315565b0390f35b61010a565b5f91031261036957565b61010e565b3461039c5761037e36600461035f565b6103866111fa565b61038e610104565b8061039881610213565b0390f35b61010a565b90565b6103b49060086103b993026102ba565b6103a1565b90565b906103c791546103a4565b90565b6103d660025f906103bc565b90565b6103e290610150565b9052565b91906103f9905f602085019401906103d9565b565b3461042b5761040b36600461035f565b6104276104166103ca565b61041e610104565b918291826103e6565b0390f35b61010a565b3461045e5761044861044336600461024f565b611316565b610450610104565b8061045a81610213565b0390f35b61010a565b61046f5f6014906102dc565b90565b346104a25761048236600461035f565b61049e61048d610463565b610495610104565b91829182610315565b0390f35b61010a565b346104d5576104b736600461035f565b6104bf61136e565b6104c7610104565b806104d181610213565b0390f35b61010a565b7f000000000000000000000000000000000000000000000000000000000000000090565b6105079061028c565b90565b610513906104fe565b9052565b919061052a905f6020850194019061050a565b565b3461055c5761053c36600461035f565b6105586105476104da565b61054f610104565b91829182610517565b0390f35b61010a565b3461058f5761057136600461035f565b610579611397565b610581610104565b8061058b81610213565b0390f35b61010a565b61059d90610121565b9052565b91906105b4905f60208501940190610594565b565b346105e6576105c636600461035f565b6105e26105d16113d6565b6105d9610104565b918291826105a1565b0390f35b61010a565b909182601f830112156106255781359167ffffffffffffffff831161062057602001926020830284011161061b57565b61017e565b61017a565b610176565b909182601f830112156106645781359167ffffffffffffffff831161065f57602001926020830284011161065a57565b61017e565b61017a565b610176565b909182601f830112156106a35781359167ffffffffffffffff831161069e57602001926001830284011161069957565b61017e565b61017a565b610176565b919060a083820312610760575f83013567ffffffffffffffff811161075b57816106d39185016105eb565b929093602081013567ffffffffffffffff811161075657836106f691830161062a565b929093604083013567ffffffffffffffff8111610751578161071991850161062a565b9290936107298360608301610141565b92608082013567ffffffffffffffff811161074c576107489201610669565b9091565b610112565b610112565b610112565b610112565b61010e565b3461079f5761079b61078a61077b3660046106a8565b97969096959195949294611d2e565b610792610104565b91829182610315565b0390f35b61010a565b906020828203126107bd576107ba915f01610167565b90565b61010e565b346107f0576107da6107d53660046107a4565b6124c9565b6107e2610104565b806107ec81610213565b0390f35b61010a565b6107fe81610303565b0361080557565b5f80fd5b90503590610816826107f5565b565b9190604083820312610840578061083461083d925f8601610141565b93602001610809565b90565b61010e565b346108745761085e610858366004610818565b90612534565b610866610104565b8061087081610213565b0390f35b61010a565b346108a75761089161088c36600461024f565b6125a5565b610899610104565b806108a381610213565b0390f35b61010a565b5f80fd5b60a01c90565b6108c26108c7916108b0565b6102be565b90565b6108d490546108b6565b90565b60209181520190565b5f7f436f6e7472616374206973207061757365640000000000000000000000000000910152565b61091460126020926108d7565b61091d816108e0565b0190565b6109369060208101905f818303910152610907565b90565b1561094057565b610948610104565b62461bcd60e51b81528061095e60048201610921565b0390fd5b9061098893929161098361097e6109785f6108ca565b15610303565b610939565b610ff6565b565b6109939061028c565b90565b90565b6109ad6109a86109b292610996565b61026d565b610150565b90565b601f801991011690565b634e487b7160e01b5f52604160045260245ffd5b906109dd906109b5565b810190811067ffffffffffffffff8211176109f757604052565b6109bf565b90610a0f610a08610104565b92836109d3565b565b67ffffffffffffffff8111610a295760208091020190565b6109bf565b90610a40610a3b83610a11565b6109fc565b918252565b369037565b90610a6f610a5783610a2e565b92602080610a658693610a11565b9201910390610a45565b565b634e487b7160e01b5f52603260045260245ffd5b5190565b90610a9382610a85565b811015610aa4576020809102010190565b610a71565b90565b610ac0610abb610ac592610aa9565b61026d565b610150565b90565b90610ad290610121565b9052565b67ffffffffffffffff8111610aee5760208091020190565b6109bf565b90610b05610b0083610ad6565b6109fc565b918252565b369037565b90610b34610b1c83610af3565b92602080610b2a8693610ad6565b9201910390610b0a565b565b5190565b90610b4482610b36565b811015610b55576020809102010190565b610a71565b90610b6490610150565b9052565b60209181520190565b90565b50610b83906020810190610141565b90565b610b8f90610121565b9052565b60031115610b9d57565b5f80fd5b90503590610bae82610b93565b565b50610bbf906020810190610ba1565b90565b634e487b7160e01b5f52602160045260245ffd5b60031115610be057565b610bc2565b90610bef82610bd6565b565b610bfa90610be5565b90565b610c0690610bf1565b9052565b5f80fd5b5f80fd5b5f80fd5b9035600160200382360303811215610c5757016020813591019167ffffffffffffffff8211610c52576001820236038313610c4d57565b610c0e565b610c0a565b610c12565b60209181520190565b90825f939282370152565b9190610c8a81610c8381610c8f95610c5c565b8095610c65565b6109b5565b0190565b610d1d91610d0f60a0820192610cb7610cae5f830183610b74565b5f850190610b86565b610cd1610cc76020830183610b74565b6020850190610b86565b610ceb610ce16040830183610b74565b6040850190610b86565b610d05610cfb6060830183610bb0565b6060850190610bfd565b6080810190610c16565b916080818503910152610c70565b90565b90610d2a91610c93565b90565b9035600160a00382360303811215610d43570190565b610c12565b60200190565b9181610d5991610b68565b9081610d6a60208302840194610b71565b92835f925b848410610d7f5750505050505090565b9091929394956020610daa610da48385600195038852610d9f8b88610d2d565b610d20565b98610d48565b940194019294939190610d6f565b939290610dd6602091610dde9460408801918883035f8a0152610d4e565b940190610594565b565b61ffff1690565b610dfb610df6610e0092610aa9565b61026d565b610de0565b90565b5f80fd5b60e01b90565b5f910312610e1757565b61010e565b60209181520190565b60200190565b90610e3881602093610b86565b0190565b60200190565b90610e5f610e59610e5284610a85565b8093610e1c565b92610e25565b905f5b818110610e6f5750505090565b909192610e88610e826001928651610e2b565b94610e3c565b9101919091610e62565b60209181520190565b60200190565b610eaa90610150565b9052565b90610ebb81602093610ea1565b0190565b60200190565b90610ee2610edc610ed584610b36565b8093610e92565b92610e9b565b905f5b818110610ef25750505090565b909192610f0b610f056001928651610eae565b94610ebf565b9101919091610ee5565b5190565b60209181520190565b90825f9392825e0152565b610f4c610f55602093610f5a93610f4381610f15565b93848093610f19565b95869101610f22565b6109b5565b0190565b610f6790610de0565b9052565b97969491610fc460c095610fb6610fdc96610fa7610fe49b96610fcf968f610f9a60e08201935f830190610594565b6020818403910152610e42565b908d6040818403910152610ec5565b908b820360608d0152610ec5565b9260808a0190610594565b87820360a0890152610f2d565b940190610f5e565b565b610fee610104565b3d5f823e3d90fd5b90926110013061098a565b906110306110176110126001610999565b610a4a565b9361102b856110255f610aac565b90610a89565b610ac8565b61105e6110456110406001610999565b610b0f565b95611059876110535f610aac565b90610b3a565b610b5a565b6110bf61107361106e6001610999565b610b0f565b946110986110805f610aac565b6110938861108d5f610aac565b90610b3a565b610b5a565b6110b0336110a4610104565b94859360208501610db8565b602082018103825203826109d3565b6110c85f610de7565b936110f27f00000000000000000000000000000000000000000000000000000000000000006104fe565b9263ab9c4b5d9094966111043061098a565b9396853b1561117b575f9761112d95899561113894611121610104565b9c8d9b8c9a8b99610e07565b895260048901610f6b565b03925af180156111765761114a575b50565b611169905f3d811161116f575b61116181836109d3565b810190610e0d565b5f611147565b503d611157565b610fe6565b610e03565b9061118c939291610962565b565b6111966125b0565b61119e6111ee565b565b60a01b90565b906111b560ff60a01b916111a0565b9181191691161790565b6111c890610303565b90565b90565b906111e36111de6111ea926111bf565b6111cb565b82546111a6565b9055565b6111f85f5f6111ce565b565b61120261118e565b565b611215906112106125b0565b611268565b565b61122090610270565b90565b61122c90611217565b90565b6112389061028c565b90565b9050519061124882610153565b565b9060208282031261126357611260915f0161123b565b90565b61010e565b6112c39061127581611223565b90602061129161128c6112866113d6565b93611223565b61122f565b6370a08231906112b86112a33061098a565b926112ac610104565b97889485938493610e07565b8352600483016105a1565b03915afa918215611311576112df935f936112e1575b506125fe565b565b61130391935060203d811161130a575b6112fb81836109d3565b81019061124a565b915f6112d9565b503d6112f1565b610fe6565b61131f90611204565b565b6113296125b0565b61133161135b565b565b61134761134261134c92610aa9565b61026d565b610116565b90565b61135890611333565b90565b61136c6113675f61134f565b612683565b565b611376611321565b565b6113806125b0565b61138861138a565b565b61139560015f6111ce565b565b61139f611378565b565b5f90565b5f1c90565b60018060a01b031690565b6113c16113c6916113a5565b6113aa565b90565b6113d390546113b5565b90565b6113de6113a1565b506113e85f6113c9565b90565b5f90565b67ffffffffffffffff811161140d576114096020916109b5565b0190565b6109bf565b9061142461141f836113ef565b6109fc565b918252565b60207f2e00000000000000000000000000000000000000000000000000000000000000917f457865637574696e6720666c617368206c6f616e206f7065726174696f6e2e2e5f8201520152565b6114806021611412565b9061148d60208301611429565b565b611497611476565b90565b5f7f4f6e6c79204161766520563320506f6f6c2063616e2063616c6c207468697300910152565b6114ce601f6020926108d7565b6114d78161149a565b0190565b6114f09060208101905f8183039101526114c1565b90565b156114fa57565b611502610104565b62461bcd60e51b815280611518600482016114db565b0390fd5b67ffffffffffffffff81116115345760208091020190565b6109bf565b5f80fd5b5f80fd5b5f80fd5b67ffffffffffffffff81116115635761155f6020916109b5565b0190565b6109bf565b9092919261157d61157882611545565b6109fc565b938185526020850190828401116115995761159792610c65565b565b611541565b9080601f830112156115bc578160206115b993359101611568565b90565b610176565b91909160a081840312611649576115d860a06109fc565b926115e5815f8401610141565b5f8501526115f68160208401610141565b60208501526116088160408401610141565b604085015261161a8160608401610ba1565b6060850152608082013567ffffffffffffffff81116116445761163d920161159e565b6080830152565b61153d565b611539565b92919061166261165d8261151c565b6109fc565b93818552602080860192028101918383116116b95781905b838210611688575050505050565b813567ffffffffffffffff81116116b4576020916116a987849387016115c1565b81520191019061167a565b610176565b61017e565b9080601f830112156116dc578160206116d99335910161164e565b90565b610176565b6116ea90610116565b90565b6116f6816116e1565b036116fd57565b5f80fd5b9050359061170e826116ed565b565b9190604083820312611750575f8301359067ffffffffffffffff821161174b5761173f816117489386016116be565b93602001611701565b90565b610112565b61010e565b61175e9061028c565b90565b9190811015611771576020020190565b610a71565b356117808161012d565b90565b9190811015611793576020020190565b610a71565b356117a281610153565b90565b5f7f496e697469616c2062616c616e63653a20256420257300000000000000000000910152565b6117d66016611412565b906117e3602083016117a5565b565b6117ed6117cc565b90565b60016117fc9101610150565b90565b5190565b9061180d826117ff565b81101561181e576020809102010190565b610a71565b61182d9051610121565b90565b5f7f457865637574696e6720737761702025642066726f6d20257320746f20257300910152565b611861601f611412565b9061186e60208301611830565b565b611878611857565b90565b61188761188c916113a5565b6102be565b90565b611899905461187b565b90565b5f7f526f75746572206e6f742077686974656c697374656400000000000000000000910152565b6118d060166020926108d7565b6118d98161189c565b0190565b6118f29060208101905f8183039101526118c3565b90565b156118fc57565b611904610104565b62461bcd60e51b81528061191a600482016118dd565b0390fd5b6119289051610be5565b90565b5f7f556e69737761705633206e6f7420696d706c656d656e74656400000000000000910152565b61195f60196020926108d7565b6119688161192b565b0190565b6119819060208101905f818303910152611952565b90565b5f7f42616c616e636520616674657220737761702025643a20256420257300000000910152565b6119b5601c611412565b906119c260208301611984565b565b6119cc6119ab565b90565b634e487b7160e01b5f52601160045260245ffd5b6119f26119f891939293610150565b92610150565b8201809211611a0357565b6119cf565b5f7f546f74616c20646562743a202564000000000000000000000000000000000000910152565b611a39600e611412565b90611a4660208301611a08565b565b611a50611a2f565b90565b5f7f46696e616c2062616c616e63653a202564000000000000000000000000000000910152565b611a846011611412565b90611a9160208301611a53565b565b611a9b611a7a565b90565b60207f647320746f207265706179206c6f616e00000000000000000000000000000000917f417262697472616765206661696c65643a204e6f7420656e6f7567682066756e5f8201520152565b611af860306040926108d7565b611b0181611a9e565b0190565b611b1a9060208101905f818303910152611aeb565b90565b15611b2457565b611b2c610104565b62461bcd60e51b815280611b4260048201611b05565b0390fd5b5f7f5265706179696e67206c6f616e2e2e2e00000000000000000000000000000000910152565b611b776010611412565b90611b8460208301611b46565b565b611b8e611b6d565b90565b90505190611b9e826107f5565b565b90602082820312611bb957611bb6915f01611b91565b90565b61010e565b916020611bdf929493611bd860408201965f830190610594565b01906103d9565b565b611bf0611bf691939293610150565b92610150565b8203918211611c0157565b6119cf565b5f7f50726f66697420666f756e643a20256400000000000000000000000000000000910152565b611c376010611412565b90611c4460208301611c06565b565b611c4e611c2d565b90565b611c5d611c62916113a5565b6103a1565b90565b611c6f9054611c51565b90565b611c81611c8791939293610150565b92610150565b91611c93838202610150565b928184041490151715611ca257565b6119cf565b90565b611cbe611cb9611cc392611ca7565b61026d565b610150565b90565b634e487b7160e01b5f52601260045260245ffd5b611ce6611cec91610150565b91610150565b908115611cf7570490565b611cc6565b604090611d25611d2c9496959396611d1b60608401985f850190610594565b6020830190610594565b01906103d9565b565b9492989550929096611da490611dac97611d466113eb565b50611d57611d5261148f565b61272f565b611d9b33611d95611d8f611d8a7f00000000000000000000000000000000000000000000000000000000000000006104fe565b610121565b91610121565b146114f3565b90810190611710565b969096611755565b91611dc9611dc48686611dbe5f610aac565b91611761565b611776565b98611df8611de9611de48b84611dde5f610aac565b91611783565b611798565b9a8b611df36117e5565b6127a5565b611e015f610aac565b995b8a611e1e611e18611e138c6117ff565b610150565b91610150565b1015611f8257611e2f898c90611803565b5190611e5b8c611e4160208501611823565b611e4d60408601611823565b91611e56611870565b61282d565b611e81611e7c611e776001611e715f8701611823565b906102a4565b61188f565b6118f5565b611e8d6060830161191e565b611e9f611e995f610be5565b91610be5565b145f14611ee3579a611ed882611ec7611ebd60409f611edd966131dd565b9e8f925b01611823565b83919091611ed36119c4565b613538565b6117f0565b99611e03565b611eef6060830161191e565b611f02611efc6001610be5565b91610be5565b145f14611f29579a611ed882611ec7611f2060409f611edd96612b61565b9e8f925b611ec1565b9a611f366060830161191e565b611f49611f436002610be5565b91610be5565b14611f6057611ed88c611ec76040611edd95611f24565b611f68610104565b62461bcd60e51b815280611f7e6004820161196c565b0390fd5b50611fc893969950611fc392949750611fad611fb291611fce979a90611fa75f610aac565b91611783565b611798565b9390611fbd5f610aac565b91611783565b611798565b906119e3565b6120316020611fff611ffa611ff5611ff08989611fea5f610aac565b91611761565b611776565b611223565b61122f565b6370a08231906120266120113061098a565b9261201a610104565b95869485938493610e07565b8352600483016105a1565b03915afa90811561238b575f9161235d575b509061205681612051611a48565b6135a3565b61206782612062611a93565b6135a3565b6120848261207d61207784610150565b91610150565b1015611b1d565b61209461208f611b86565b61272f565b6120c06120bb6120b66120b188886120ab5f610aac565b91611761565b611776565b611223565b61122f565b91602063095ea7b3936120f27f00000000000000000000000000000000000000000000000000000000000000006104fe565b906121105f869761211b612104610104565b998a9687958694610e07565b845260048401611bbe565b03925af19283156123585761218b9361232c575b5061214c61214787876121415f610aac565b91611761565b611776565b827fc200a1f31dd659e356e0f112c82558e25f49f7b0f84438691cd96f5cb35588239161218361217a610104565b92839283611bbe565b0390a1611be1565b918261219f6121995f610aac565b91610150565b116121ae575b50505050600190565b61221161225892846121ca61225d966121c5611c46565b6135a3565b6121f16121e1826121db6002611c65565b90611c72565b6121eb6064611caa565b90611cda565b91826122056121ff5f610aac565b91610150565b116122a0575b50611be1565b9361224861223961223461222f84866122295f610aac565b91611761565b611776565b611223565b6122416113d6565b87916125fe565b906122525f610aac565b91611761565b611776565b907f6167204362df4160d09e3e3fc7c082d6b8d5bd753284d710e10287c504c329e59161229461228b610104565b92839283611bbe565b0390a15f8080806121a5565b6122cf6122c76122c26122bd8b896122b75f610aac565b91611761565b611776565b611223565b8285916125fe565b6122eb6122e689876122e05f610aac565b91611761565b611776565b83916123237f39fd0be2e9d44cdcc815f232fd89ddbe954d5a33bef25fbf8e1d6988036e42019361231a610104565b93849384611cfc565b0390a15f61220b565b61234c9060203d8111612351575b61234481836109d3565b810190611ba0565b61212f565b503d61233a565b610fe6565b61237e915060203d8111612384575b61237681836109d3565b81019061124a565b5f612043565b503d61236c565b610fe6565b6123a19061239c6125b0565b61249e565b565b90565b6123ba6123b56123bf926123a3565b61026d565b610150565b90565b5f7f4665652063616e6e6f7420657863656564203530250000000000000000000000910152565b6123f660156020926108d7565b6123ff816123c2565b0190565b6124189060208101905f8183039101526123e9565b90565b1561242257565b61242a610104565b62461bcd60e51b81528061244060048201612403565b0390fd5b5f1b90565b906124555f1991612444565b9181191691161790565b61247361246e61247892610150565b61026d565b610150565b90565b90565b9061249361248e61249a9261245f565b61247b565b8254612449565b9055565b6124c7906124c0816124b96124b360326123a6565b91610150565b111561241b565b600261247e565b565b6124d290612390565b565b906124e6916124e16125b0565b61251e565b565b906124f460ff91612444565b9181191691161790565b9061251361250e61251a926111bf565b6111cb565b82546124e8565b9055565b61252d612532929160016102a4565b6124fe565b565b9061253e916124d4565b565b6125519061254c6125b0565b612553565b565b8061256e6125686125635f61134f565b610121565b91610121565b1461257e5761257c90612683565b565b6125a161258a5f61134f565b5f918291631e4fbdf760e01b8352600483016105a1565b0390fd5b6125ae90612540565b565b6125b86113d6565b6125d16125cb6125c66135e5565b610121565b91610121565b036125d857565b6125fa6125e36135e5565b5f91829163118cdaa760e01b8352600483016105a1565b0390fd5b91612617916126119184916001926135f2565b15610303565b61261e5750565b61262a6126419161122f565b5f918291635274afe760e01b8352600483016105a1565b0390fd5b9061265660018060a01b0391612444565b9181191691161790565b90565b9061267861267361267f92610298565b612660565b8254612645565b9055565b61268c5f6113c9565b612696825f612663565b906126ca6126c47f8be0079c531659141344cd1fd0a4f28419497f9722a3daafe3b4186f6b6457e093610298565b91610298565b916126d3610104565b806126dd81610213565b0390a3565b5190565b61270561270e602093612713936126fc816126e2565b938480936108d7565b95869101610f22565b6109b5565b0190565b61272c9160208201915f8184039101526126e6565b90565b61275a61276961276e92612741610104565b92839160046020840163104c13eb60e21b815201612717565b602082018103825203826109d3565b61365c565b565b60409061279c6127916127a39597969460608401908482035f8601526126e6565b9660208301906103d9565b0190610594565b565b6127e892916127d46127e39291936127bb610104565b94859360046020860163038fd88960e31b815201612770565b602082018103825203826109d3565b61365c565b565b61282461282b9461281a61280f6060959998969960808601908682035f8801526126e6565b9860208501906103d9565b6040830190610594565b0190610594565b565b9061285c6128709461286b939294612843610104565b958694600460208701632f515bd760e11b8152016127ea565b602082018103825203826109d3565b61365c565b565b5f90565b9092919261288b61288682611545565b6109fc565b938185526020850190828401116128a7576128a592610f22565b565b611541565b9080601f830112156128ca578160206128c793519101612876565b90565b610176565b919091604081840312612922576128e660406109fc565b925f8201519167ffffffffffffffff831161291d5761290a826129169483016128ac565b5f86015260200161123b565b6020830152565b61153d565b611539565b90602082820312612957575f82015167ffffffffffffffff81116129525761294f92016128cf565b90565b610112565b61010e565b6129669051610150565b90565b61297360806109fc565b90565b52565b61298290610270565b90565b61298e90612979565b90565b61299a9061028c565b90565b6129bc6129c56020936129ca936129b381610f15565b93848093610c5c565b95869101610f22565b6109b5565b0190565b90612a1c906060806129ed608084015f8701518582035f87015261299d565b94612a0060208201516020860190610b86565b612a1260408201516040860190610ea1565b0151910190610ea1565b90565b612a349160208201915f8184039101526129ce565b90565b90612a49612a4483611545565b6109fc565b918252565b606090565b3d5f14612a6e57612a633d612a37565b903d5f602084013e5b565b612a76612a4e565b90612a6c565b612a8590610bf1565b9052565b9193612ac0612ad79694612ab6612aca9497612aac60a08801995f890190610594565b6020870190612a7c565b6040850190610594565b6060830190610594565b60808184039101526126e6565b90565b905090565b5f7f50616e63616b6556332043616c6c204661696c65643a20000000000000000000910152565b612b1260178092612ada565b612b1b81612adf565b0190565b612b44612b3b92602092612b32816126e2565b94858093612ada565b93849101610f22565b0190565b90612b55612b5b92612b06565b90612b1f565b90565b90565b90612b6a612872565b50612b8960808301516020612b7e82610f15565b818301019101612927565b90612ba6612ba1612b9c60208601611823565b611223565b61122f565b90602063095ea7b392612bba5f8701611823565b90612bd85f8596612be3612bcc610104565b98899687958694610e07565b845260048401611bbe565b03925af1918215612de857612c4992612dbc575b50612c405f84015193612c37612c196020612c113061098a565b95930161295c565b93612c2e612c25612969565b975f8901612976565b60208701610ac8565b60408501610b5a565b60608301610b5a565b90612c9b6020612c57612872565b93612c73612c6e612c695f8701611823565b612985565b612991565b612c905f63b858183f612c84610104565b96879586948593610e07565b835260048301612a1f565b03925af180915f92612d8c575b50155f14612d8457506001612cbc57505b90565b612d63612d4f612d5e612d8093612cd9612cd4612a53565b61376e565b90612ce55f8201611823565b600190612d38612d036040612cfc60208701611823565b9501611823565b85907f277844e3a654ec2e30084b12226f58e0931f046ea9d6f4a377db59ce14f2339b95612d2f610104565b95869586612a89565b0390a1612d43610104565b92839160208301612b48565b602082018103825203826109d3565b612b5e565b612d6b610104565b91829162461bcd60e51b835260048301612717565b0390fd5b915050612cb9565b612dae91925060203d8111612db5575b612da681836109d3565b81019061124a565b905f612ca8565b503d612d9c565b612ddc9060203d8111612de1575b612dd481836109d3565b810190611ba0565b612bf7565b503d612dca565b610fe6565b90505190612dfa8261012d565b565b9190606083820312612e4857612e4190612e1660606109fc565b93612e23825f8301611b91565b5f860152612e348260208301612ded565b602086015260400161123b565b6040830152565b611539565b90606082820312612e6657612e63915f01612dfc565b90565b61010e565b67ffffffffffffffff8111612e835760208091020190565b6109bf565b90612e9a612e9583612e6b565b6109fc565b918252565b612ea960806109fc565b90565b5f90565b5f90565b612ebc612e9f565b90602080808085612ecb612eac565b815201612ed6612eac565b815201612ee1612eb0565b815201612eec612eac565b81525050565b612efa612eb4565b90565b5f5b828110612f0b57505050565b602090612f16612ef2565b8184015201612eff565b90612f45612f2d83612e88565b92602080612f3b8693612e6b565b9201910390612efd565b565b612f519051610303565b90565b612f5e60806109fc565b90565b90612f6b90610303565b9052565b5190565b90612f7d82612f6f565b811015612f8e576020809102010190565b610a71565b606090565b612fa190610270565b90565b612fad90612f98565b90565b612fb99061028c565b90565b90929192612fd1612fcc82610ad6565b6109fc565b938185526020808601920283019281841161300e57915b838310612ff55750505050565b60208091613003848661123b565b815201920191612fe8565b61017e565b9080601f830112156130315781602061302e93519101612fbc565b90565b610176565b90602082820312613066575f82015167ffffffffffffffff81116130615761305e9201613013565b90565b610112565b61010e565b60209181520190565b60200190565b61308390610303565b9052565b906060806130cd9361309f5f8201515f860190610b86565b6130b160208201516020860190610b86565b6130c36040820151604086019061307a565b0151910190610b86565b565b906130dc81608093613087565b0190565b60200190565b906131036130fd6130f684612f6f565b809361306b565b92613074565b905f5b8181106131135750505090565b90919261312c61312660019286516130cf565b946130e0565b9101919091613106565b9061317361317e916131859698979561316660809661315c60a08801945f8901906103d9565b60208701906103d9565b84820360408601526130e6565b966060830190610594565b01906103d9565b565b5f7f4165726f64726f6d652043616c6c204661696c65643a20000000000000000000910152565b6131ba60178092612ada565b6131c381613187565b0190565b906131d46131da926131ae565b90612b1f565b90565b6131e5612872565b50613204608082015160206131f982610f15565b818301019101612e4d565b61322061321b61321660208501611823565b611223565b61122f565b602063095ea7b3916132335f8601611823565b906132515f889561325c613245610104565b97889687958694610e07565b845260048401611bbe565b03925af180156134f0576134c4575b505f61327f61327a6001610999565b612f20565b9161331061328f60208601611823565b6132eb61329e60408801611823565b6132e26132ac878701612f47565b6132d96132bb60208901611823565b936132d06132c7612f54565b978b8901610ac8565b60208701610ac8565b60408501612f61565b60608301610ac8565b61330a859185906133046132fe83610aac565b85612f73565b52610aac565b90612f73565b515061331a612f93565b946133708361333a613335613330838a01611823565b612fa4565b612fb0565b9261337b613350604063cac88ea993970161295c565b9761335a3061098a565b4291613364610104565b9a8b998a988997610e07565b875260048701613136565b03925af180915f926134a0575b50155f14613491575060016133ca57506133c26133c7915b6133bc6133ac82610b36565b6133b66001610999565b90611be1565b90610b3a565b61295c565b90565b61347061345c61346b61348d936133e76133e2612a53565b61376e565b906133f35f8201611823565b5f90613445613410604061340960208701611823565b9501611823565b85907f277844e3a654ec2e30084b12226f58e0931f046ea9d6f4a377db59ce14f2339b9561343c610104565b95869586612a89565b0390a1613450610104565b928391602083016131c7565b602082018103825203826109d3565b612b5e565b613478610104565b91829162461bcd60e51b835260048301612717565b0390fd5b6133c792506133c291506133a0565b6134bd9192503d805f833e6134b581836109d3565b810190613036565b905f613388565b6134e49060203d81116134e9575b6134dc81836109d3565b810190611ba0565b61326b565b503d6134d2565b610fe6565b61352f6135369461352561351a6060959998969960808601908682035f8801526126e6565b9860208501906103d9565b60408301906103d9565b0190610594565b565b9061356761357b9461357693929461354e610104565b958694600460208701631c43bc4f60e31b8152016134f5565b602082018103825203826109d3565b61365c565b565b929160206135996135a19360408701908782035f8901526126e6565b9401906103d9565b565b906135de6135e3926135cf6135b6610104565b938492600460208501632d839cb360e21b81520161357d565b602082018103825203826109d3565b61365c565b565b6135ed6113a1565b503390565b90919392936135ff6113eb565b5063a9059cbb60e01b92604051935f525f1960601c1660045260245260205f60448180855af19360015f511485161561363a575b5050604052565b8492941516613653575f903b113d151616915f80613633565b833d5f823e3d90fd5b61366f9061366a60016137ee565b61380e565b565b606090565b90565b61368d61368861369292613676565b61026d565b610150565b90565b5f7f4e6f2072657665727420726561736f6e00000000000000000000000000000000910152565b6136c66010611412565b906136d360208301613695565b565b6136dd6136bc565b90565b909291926136f56136f0826113ef565b6109fc565b938185526020850190828401116137115761370f92610f22565b565b611541565b9080601f8301121561373457816020613731935191016136e0565b90565b610176565b90602082820312613769575f82015167ffffffffffffffff8111613764576137619201613716565b90565b610112565b61010e565b613776613671565b5061378081610f15565b61379361378d6044613679565b91610150565b106137b85760046137b5910160206137aa82610f15565b818301019101613739565b90565b506137c16136d5565b90565b6a636f6e736f6c652e6c6f6790565b5f80916137de6137c4565b602082519201905afa50565b5f90565b6137f66137ea565b5090565b634e487b7160e01b5f52605160045260245ffd5b6001036137fa5761381e906137d3565b56fea2646970667358221220b7b2ef1a8bb2ce4c31118867d3410ed22da78103e69aa7a5fbeffc431f9fc46264736f6c634300081e0033","linkReferences":{}},"methodIdentifiers":{"POOL()":"7535d246","executeArbitrage(address,uint256,(address,address,address,uint8,bytes)[])":"059f3a2d","executeOperation(address[],uint256[],uint256[],address,bytes)":"920f5c84","keeperFee()":"422ede42","owner()":"8da5cb5b","pause()":"8456cb59","paused()":"5c975abb","renounceOwnership()":"715018a6","setKeeperFee(uint256)":"98dfca7f","setRouter(address,bool)":"c3c64674","transferOwnership(address)":"f2fde38b","unpause()":"3f4ba83a","whitelistedRouters(address)":"0f874a13","withdraw(address)":"51cff8d9"},"id":0}