{"abi":[{"type":"constructor","inputs":[{"name":"_multiSig","type":"address","internalType":"address"}],"stateMutability":"nonpayable"},{"type":"receive","stateMutability":"payable"},{"type":"function","name":"POOL","inputs":[],"outputs":[{"name":"","type":"address","internalType":"contract IPool"}],"stateMutability":"view"},{"type":"function","name":"changeMultiSig","inputs":[{"name":"_newMultiSig","type":"address","internalType":"address"}],"outputs":[],"stateMutability":"nonpayable"},{"type":"function","name":"executeArbitrage","inputs":[{"name":"_flashLoanToken","type":"address","internalType":"address"},{"name":"_flashLoanAmount","type":"uint256","internalType":"uint256"},{"name":"_swaps","type":"tuple[]","internalType":"struct AaveArbitrageV3.Swap[]","components":[{"name":"router","type":"address","internalType":"address"},{"name":"from","type":"address","internalType":"address"},{"name":"to","type":"address","internalType":"address"},{"name":"dex","type":"uint8","internalType":"enum AaveArbitrageV3.DexType"},{"name":"dexParams","type":"bytes","internalType":"bytes"}]}],"outputs":[],"stateMutability":"nonpayable"},{"type":"function","name":"executeOperation","inputs":[{"name":"assets","type":"address[]","internalType":"address[]"},{"name":"amounts","type":"uint256[]","internalType":"uint256[]"},{"name":"premiums","type":"uint256[]","internalType":"uint256[]"},{"name":"","type":"address","internalType":"address"},{"name":"params","type":"bytes","internalType":"bytes"}],"outputs":[{"name":"","type":"bool","internalType":"bool"}],"stateMutability":"nonpayable"},{"type":"function","name":"multiSig","inputs":[],"outputs":[{"name":"","type":"address","internalType":"address"}],"stateMutability":"view"},{"type":"function","name":"pause","inputs":[],"outputs":[],"stateMutability":"nonpayable"},{"type":"function","name":"paused","inputs":[],"outputs":[{"name":"","type":"bool","internalType":"bool"}],"stateMutability":"view"},{"type":"function","name":"setRouter","inputs":[{"name":"_router","type":"address","internalType":"address"},{"name":"_isWhitelisted","type":"bool","internalType":"bool"}],"outputs":[],"stateMutability":"nonpayable"},{"type":"function","name":"unpause","inputs":[],"outputs":[],"stateMutability":"nonpayable"},{"type":"function","name":"whitelistedRouters","inputs":[{"name":"","type":"address","internalType":"address"}],"outputs":[{"name":"","type":"bool","internalType":"bool"}],"stateMutability":"view"},{"type":"function","name":"withdraw","inputs":[{"name":"_tokenAddress","type":"address","internalType":"address"}],"outputs":[],"stateMutability":"nonpayable"},{"type":"function","name":"withdrawEth","inputs":[],"outputs":[],"stateMutability":"nonpayable"},{"type":"event","name":"SwapFailed","inputs":[{"name":"router","type":"address","indexed":false,"internalType":"address"},{"name":"dex","type":"uint8","indexed":false,"internalType":"enum AaveArbitrageV3.DexType"},{"name":"tokenIn","type":"address","indexed":false,"internalType":"address"},{"name":"tokenOut","type":"address","indexed":false,"internalType":"address"},{"name":"reason","type":"string","indexed":false,"internalType":"string"}],"anonymous":false},{"type":"error","name":"SafeERC20FailedOperation","inputs":[{"name":"token","type":"address","internalType":"address"}]}],"bytecode":{"object":"0x60a06040523461004d57610019610014610112565b610225565b610021610052565b6135f66102a682396080518181816104c301528181610f45015281816123a20152612e0201526135f690f35b610058565b60405190565b5f80fd5b601f801991011690565b634e487b7160e01b5f52604160045260245ffd5b906100849061005c565b810190811060018060401b0382111761009c57604052565b610066565b906100b46100ad610052565b928361007a565b565b5f80fd5b60018060a01b031690565b6100ce906100ba565b90565b6100da816100c5565b036100e157565b5f80fd5b905051906100f2826100d1565b565b9060208282031261010d5761010a915f016100e5565b90565b6100b6565b61013061389c80380380610125816100a1565b9283398101906100f4565b90565b90565b61014a61014561014f926100ba565b610133565b6100ba565b90565b61015b90610136565b90565b61016790610152565b90565b5f1b90565b9061018060018060a01b039161016a565b9181191691161790565b61019390610136565b90565b61019f9061018a565b90565b90565b906101ba6101b56101c192610196565b6101a2565b825461016f565b9055565b906101cf90610196565b5f5260205260405f2090565b906101e760ff9161016a565b9181191691161790565b151590565b6101ff906101f1565b90565b90565b9061021a610215610221926101f6565b610202565b82546101db565b9055565b61024f9061024673a238dd80c259a72e81d7e4664a9801593f98d1c561015e565b6080525f6101a5565b6102796001610274600173cf77a3ba9a5ca399b7c97c74d54e5b1beb874e43906101c5565b610205565b6102a3600161029e600173678aa4bf4e210cf2166753e054d5b7c31cc7fa86906101c5565b610205565b56fe60806040526004361015610015575b366107eb57005b61001f5f356100de565b8063059f3a2d146100d95780630f874a13146100d45780632902a0ca146100cf57806336e0004a146100ca5780633f4ba83a146100c557806351cff8d9146100c05780635c975abb146100bb5780637535d246146100b65780638456cb59146100b1578063920f5c84146100ac578063a0ef91df146100a75763c3c646740361000e576107b7565b610734565b6106f5565b610548565b610513565b61048c565b61044a565b610417565b6103e2565b61033f565b61030a565b6101f8565b60e01c90565b60405190565b5f80fd5b5f80fd5b5f80fd5b60018060a01b031690565b61010a906100f6565b90565b61011681610101565b0361011d57565b5f80fd5b9050359061012e8261010d565b565b90565b61013c81610130565b0361014357565b5f80fd5b9050359061015482610133565b565b5f80fd5b5f80fd5b5f80fd5b909182601f8301121561019c5781359167ffffffffffffffff831161019757602001926020830284011161019257565b61015e565b61015a565b610156565b916060838303126101ee576101b8825f8501610121565b926101c68360208301610147565b92604082013567ffffffffffffffff81116101e9576101e59201610162565b9091565b6100f2565b6100ee565b5f0190565b3461022a5761021461020b3660046101a1565b92919091610ff0565b61021c6100e4565b80610226816101f3565b0390f35b6100ea565b9060208282031261024857610245915f01610121565b90565b6100ee565b90565b61026461025f610269926100f6565b61024d565b6100f6565b90565b61027590610250565b90565b6102819061026c565b90565b9061028e90610278565b5f5260205260405f2090565b1c90565b60ff1690565b6102b49060086102b9930261029a565b61029e565b90565b906102c791546102a4565b90565b6102e0906102db6001915f92610284565b6102bc565b90565b151590565b6102f1906102e3565b9052565b9190610308905f602085019401906102e8565b565b3461033a5761033661032561032036600461022f565b6102ca565b61032d6100e4565b918291826102f5565b0390f35b6100ea565b3461036d5761035761035236600461022f565b611060565b61035f6100e4565b80610369816101f3565b0390f35b6100ea565b5f91031261037c57565b6100ee565b60018060a01b031690565b61039c9060086103a1930261029a565b610381565b90565b906103af915461038c565b90565b6103bd5f5f906103a4565b90565b6103c990610101565b9052565b91906103e0905f602085019401906103c0565b565b34610412576103f2366004610372565b61040e6103fd6103b2565b6104056100e4565b918291826103cd565b0390f35b6100ea565b3461044557610427366004610372565b61042f6110d7565b6104376100e4565b80610441816101f3565b0390f35b6100ea565b346104785761046261045d36600461022f565b611211565b61046a6100e4565b80610474816101f3565b0390f35b6100ea565b6104895f6014906102bc565b90565b346104bc5761049c366004610372565b6104b86104a761047d565b6104af6100e4565b918291826102f5565b0390f35b6100ea565b7f000000000000000000000000000000000000000000000000000000000000000090565b6104ee9061026c565b90565b6104fa906104e5565b9052565b9190610511905f602085019401906104f1565b565b3461054357610523366004610372565b61053f61052e6104c1565b6105366100e4565b918291826104fe565b0390f35b6100ea565b3461057657610558366004610372565b61056061123b565b6105686100e4565b80610572816101f3565b0390f35b6100ea565b909182601f830112156105b55781359167ffffffffffffffff83116105b05760200192602083028401116105ab57565b61015e565b61015a565b610156565b909182601f830112156105f45781359167ffffffffffffffff83116105ef5760200192602083028401116105ea57565b61015e565b61015a565b610156565b909182601f830112156106335781359167ffffffffffffffff831161062e57602001926001830284011161062957565b61015e565b61015a565b610156565b919060a0838203126106f0575f83013567ffffffffffffffff81116106eb578161066391850161057b565b929093602081013567ffffffffffffffff81116106e657836106869183016105ba565b929093604083013567ffffffffffffffff81116106e157816106a99185016105ba565b9290936106b98360608301610121565b92608082013567ffffffffffffffff81116106dc576106d892016105f9565b9091565b6100f2565b6100f2565b6100f2565b6100f2565b6100ee565b3461072f5761072b61071a61070b366004610638565b9796909695919594929461236d565b6107226100e4565b918291826102f5565b0390f35b6100ea565b3461076257610744366004610372565b61074c612ff9565b6107546100e4565b8061075e816101f3565b0390f35b6100ea565b610770816102e3565b0361077757565b5f80fd5b9050359061078882610767565b565b91906040838203126107b257806107a66107af925f8601610121565b9360200161077b565b90565b6100ee565b346107e6576107d06107ca36600461078a565b90613063565b6107d86100e4565b806107e2816101f3565b0390f35b6100ea565b5f80fd5b906108039392916107fe61306f565b610e63565b565b61080e9061026c565b90565b90565b61082861082361082d92610811565b61024d565b610130565b90565b601f801991011690565b634e487b7160e01b5f52604160045260245ffd5b9061085890610830565b810190811067ffffffffffffffff82111761087257604052565b61083a565b9061088a6108836100e4565b928361084e565b565b67ffffffffffffffff81116108a45760208091020190565b61083a565b906108bb6108b68361088c565b610877565b918252565b369037565b906108ea6108d2836108a9565b926020806108e0869361088c565b92019103906108c0565b565b634e487b7160e01b5f52603260045260245ffd5b5190565b9061090e82610900565b81101561091f576020809102010190565b6108ec565b90565b61093b61093661094092610924565b61024d565b610130565b90565b9061094d90610101565b9052565b67ffffffffffffffff81116109695760208091020190565b61083a565b9061098061097b83610951565b610877565b918252565b369037565b906109af6109978361096e565b926020806109a58693610951565b9201910390610985565b565b5190565b906109bf826109b1565b8110156109d0576020809102010190565b6108ec565b906109df90610130565b9052565b60209181520190565b90565b506109fe906020810190610121565b90565b610a0a90610101565b9052565b60021115610a1857565b5f80fd5b90503590610a2982610a0e565b565b50610a3a906020810190610a1c565b90565b634e487b7160e01b5f52602160045260245ffd5b60021115610a5b57565b610a3d565b90610a6a82610a51565b565b610a7590610a60565b90565b610a8190610a6c565b9052565b5f80fd5b5f80fd5b5f80fd5b9035600160200382360303811215610ad257016020813591019167ffffffffffffffff8211610acd576001820236038313610ac857565b610a89565b610a85565b610a8d565b60209181520190565b90825f939282370152565b9190610b0581610afe81610b0a95610ad7565b8095610ae0565b610830565b0190565b610b9891610b8a60a0820192610b32610b295f8301836109ef565b5f850190610a01565b610b4c610b4260208301836109ef565b6020850190610a01565b610b66610b5c60408301836109ef565b6040850190610a01565b610b80610b766060830183610a2b565b6060850190610a78565b6080810190610a91565b916080818503910152610aeb565b90565b90610ba591610b0e565b90565b9035600160a00382360303811215610bbe570190565b610a8d565b60200190565b9181610bd4916109e3565b9081610be5602083028401946109ec565b92835f925b848410610bfa5750505050505090565b9091929394956020610c25610c1f8385600195038852610c1a8b88610ba8565b610b9b565b98610bc3565b940194019294939190610bea565b9091610c4a9260208301925f818503910152610bc9565b90565b61ffff1690565b610c68610c63610c6d92610924565b61024d565b610c4d565b90565b5f80fd5b60e01b90565b5f910312610c8457565b6100ee565b60209181520190565b60200190565b90610ca581602093610a01565b0190565b60200190565b90610ccc610cc6610cbf84610900565b8093610c89565b92610c92565b905f5b818110610cdc5750505090565b909192610cf5610cef6001928651610c98565b94610ca9565b9101919091610ccf565b60209181520190565b60200190565b610d1790610130565b9052565b90610d2881602093610d0e565b0190565b60200190565b90610d4f610d49610d42846109b1565b8093610cff565b92610d08565b905f5b818110610d5f5750505090565b909192610d78610d726001928651610d1b565b94610d2c565b9101919091610d52565b5190565b60209181520190565b90825f9392825e0152565b610db9610dc2602093610dc793610db081610d82565b93848093610d86565b95869101610d8f565b610830565b0190565b610dd490610c4d565b9052565b97969491610e3160c095610e23610e4996610e14610e519b96610e3c968f610e0760e08201935f8301906103c0565b6020818403910152610caf565b908d6040818403910152610d32565b908b820360608d0152610d32565b9260808a01906103c0565b87820360a0890152610d9a565b940190610dcb565b565b610e5b6100e4565b3d5f823e3d90fd5b9092610e6e30610805565b92610e9d610e84610e7f6001610814565b6108c5565b93610e9885610e925f610927565b90610904565b610943565b610ecb610eb2610ead6001610814565b61098a565b95610ec687610ec05f610927565b906109b5565b6109d5565b610edd610ed86001610814565b61098a565b91610f02610eea5f610927565b610efd85610ef75f610927565b906109b5565b6109d5565b610f35610f0e30610805565b92610f26610f1a6100e4565b93849260208401610c33565b6020820181038252038261084e565b90610f3f5f610c54565b94610f697f00000000000000000000000000000000000000000000000000000000000000006104e5565b9363ab9c4b5d91959790929396853b15610feb575f97610f9d958995610fa894610f916100e4565b9c8d9b8c9a8b99610c74565b895260048901610dd8565b03925af18015610fe657610fba575b50565b610fd9905f3d8111610fdf575b610fd1818361084e565b810190610c7a565b5f610fb7565b503d610fc7565b610e53565b610c70565b90610ffc9392916107ef565b565b61100f9061100a61310d565b611054565b565b5f1b90565b9061102760018060a01b0391611011565b9181191691161790565b90565b9061104961104461105092610278565b611031565b8254611016565b9055565b61105e905f611034565b565b61106990610ffe565b565b61107361310d565b61107b6110cb565b565b60a01b90565b9061109260ff60a01b9161107d565b9181191691161790565b6110a5906102e3565b90565b90565b906110c06110bb6110c79261109c565b6110a8565b8254611083565b9055565b6110d55f5f6110ab565b565b6110df61106b565b565b6110f2906110ed61310d565b61116b565b565b6110fd90610250565b90565b611109906110f4565b90565b5f1c90565b61111d6111229161110c565b610381565b90565b61112f9054611111565b90565b61113b9061026c565b90565b9050519061114b82610133565b565b9060208282031261116657611163915f0161113e565b90565b6100ee565b6111776111be91611100565b80602061118c6111865f611125565b92611132565b6370a08231906111b361119e30610805565b926111a76100e4565b97889485938493610c74565b8352600483016103cd565b03915afa91821561120c576111da935f936111dc575b50613133565b565b6111fe91935060203d8111611205575b6111f6818361084e565b81019061114d565b915f6111d4565b503d6111ec565b610e53565b61121a906110e1565b565b61122461310d565b61122c61122e565b565b61123960015f6110ab565b565b61124361121c565b565b5f90565b67ffffffffffffffff811161126757611263602091610830565b0190565b61083a565b9061127e61127983611249565b610877565b918252565b5f7f457865637574696e67206f7065726174696f6e2e2e2e00000000000000000000910152565b6112b4601661126c565b906112c160208301611283565b565b6112cb6112aa565b90565b60209181520190565b60207f2066756e6374696f6e0000000000000000000000000000000000000000000000917f4f6e6c7920746865204161766520706f6f6c2063616e2063616c6c20746869735f8201520152565b61133160296040926112ce565b61133a816112d7565b0190565b6113539060208101905f818303910152611324565b90565b1561135d57565b6113656100e4565b62461bcd60e51b81528061137b6004820161133e565b0390fd5b60a01c90565b6113916113969161137f565b61029e565b90565b6113a39054611385565b90565b5f7f436f6e7472616374206973207061757365640000000000000000000000000000910152565b6113da60126020926112ce565b6113e3816113a6565b0190565b6113fc9060208101905f8183039101526113cd565b90565b1561140657565b61140e6100e4565b62461bcd60e51b815280611424600482016113e7565b0390fd5b67ffffffffffffffff81116114405760208091020190565b61083a565b5f80fd5b5f80fd5b5f80fd5b67ffffffffffffffff811161146f5761146b602091610830565b0190565b61083a565b9092919261148961148482611451565b610877565b938185526020850190828401116114a5576114a392610ae0565b565b61144d565b9080601f830112156114c8578160206114c593359101611474565b90565b610156565b91909160a081840312611555576114e460a0610877565b926114f1815f8401610121565b5f8501526115028160208401610121565b60208501526115148160408401610121565b60408501526115268160608401610a1c565b6060850152608082013567ffffffffffffffff81116115505761154992016114aa565b6080830152565b611449565b611445565b92919061156e61156982611428565b610877565b93818552602080860192028101918383116115c55781905b838210611594575050505050565b813567ffffffffffffffff81116115c0576020916115b587849387016114cd565b815201910190611586565b610156565b61015e565b9080601f830112156115e8578160206115e59335910161155a565b90565b610156565b9060208282031261161d575f82013567ffffffffffffffff81116116185761161592016115ca565b90565b6100f2565b6100ee565b9190811015611632576020020190565b6108ec565b3561164181610133565b90565b9190811015611654576020020190565b6108ec565b356116638161010d565b90565b5f7f496e697469616c2062616c616e63653a20256420257300000000000000000000910152565b611697601661126c565b906116a460208301611666565b565b6116ae61168d565b90565b60016116bd9101610130565b90565b5190565b906116ce826116c0565b8110156116df576020809102010190565b6108ec565b5f7f457865637574696e672073776170202564000000000000000000000000000000910152565b611715601161126c565b90611722602083016116e4565b565b61172c61170b565b90565b6117399051610101565b90565b61174861174d9161110c565b61029e565b90565b61175a905461173c565b90565b5f7f526f75746572206e6f742077686974656c697374656400000000000000000000910152565b61179160166020926112ce565b61179a8161175d565b0190565b6117b39060208101905f818303910152611784565b90565b156117bd57565b6117c56100e4565b62461bcd60e51b8152806117db6004820161179e565b0390fd5b6117e99051610a60565b90565b5f7f53776170206973206f6e2050616e63616b655633000000000000000000000000910152565b61181d601461126c565b9061182a602083016117ec565b565b611834611813565b90565b9092919261184c61184782611451565b610877565b938185526020850190828401116118685761186692610d8f565b565b61144d565b9080601f8301121561188b5781602061188893519101611837565b90565b610156565b9190916040818403126118e3576118a76040610877565b925f8201519167ffffffffffffffff83116118de576118cb826118d794830161186d565b5f86015260200161113e565b6020830152565b611449565b611445565b90602082820312611918575f82015167ffffffffffffffff8111611913576119109201611890565b90565b6100f2565b6100ee565b9050519061192a82610767565b565b9060208282031261194557611942915f0161191d565b90565b6100ee565b61195390610927565b9052565b91602061197892949361197160408201965f8301906103c0565b019061194a565b565b61198390610130565b9052565b9160206119a89294936119a160408201965f8301906103c0565b019061197a565b565b6119b49051610130565b90565b6119c16080610877565b90565b52565b5f90565b6119d490610250565b90565b6119e0906119cb565b90565b6119ec9061026c565b90565b611a0e611a17602093611a1c93611a0581610d82565b93848093610ad7565b95869101610d8f565b610830565b0190565b90611a6e90606080611a3f608084015f8701518582035f8701526119ef565b94611a5260208201516020860190610a01565b611a6460408201516040860190610d0e565b0151910190610d0e565b90565b611a869160208201915f818403910152611a20565b90565b90611a9b611a9683611451565b610877565b918252565b606090565b3d5f14611ac057611ab53d611a89565b903d5f602084013e5b565b611ac8611aa0565b90611abe565b5f7f50616e63616b65537761702056332073776170206661696c65643a2025730000910152565b611aff601e61126c565b90611b0c60208301611ace565b565b611b16611af5565b90565b611b2290610a6c565b9052565b5190565b611b49611b52602093611b5793611b4081611b26565b938480936112ce565b95869101610d8f565b610830565b0190565b9193611b92611ba99694611b88611b9c9497611b7e60a08801995f8901906103c0565b6020870190611b19565b60408501906103c0565b60608301906103c0565b6080818403910152611b2a565b90565b905090565b5f7f50616e63616b65537761702056332073776170206661696c65643a2000000000910152565b611be4601c8092611bac565b611bed81611bb1565b0190565b611c16611c0d92602092611c0481611b26565b94858093611bac565b93849101610d8f565b0190565b90611c27611c2d92611bd8565b90611bf1565b90565b90565b611c489160208201915f818403910152611b2a565b90565b5f7f53776170206973206f6e204165726f64726f6d65000000000000000000000000910152565b611c7c601461126c565b90611c8960208301611c4b565b565b611c93611c72565b90565b90505190611ca38261010d565b565b9190606083820312611cf157611cea90611cbf6060610877565b93611ccc825f830161191d565b5f860152611cdd8260208301611c96565b602086015260400161113e565b6040830152565b611445565b90606082820312611d0f57611d0c915f01611ca5565b90565b6100ee565b67ffffffffffffffff8111611d2c5760208091020190565b61083a565b90611d43611d3e83611d14565b610877565b918252565b611d526080610877565b90565b5f90565b5f90565b611d65611d48565b90602080808085611d74611d55565b815201611d7f611d55565b815201611d8a611d59565b815201611d95611d55565b81525050565b611da3611d5d565b90565b5f5b828110611db457505050565b602090611dbf611d9b565b8184015201611da8565b90611dee611dd683611d31565b92602080611de48693611d14565b9201910390611da6565b565b611dfa90516102e3565b90565b611e076080610877565b90565b90611e14906102e3565b9052565b5190565b90611e2682611e18565b811015611e37576020809102010190565b6108ec565b606090565b611e4a90610250565b90565b611e5690611e41565b90565b611e629061026c565b90565b90565b611e7c611e77611e8192611e65565b61024d565b610130565b90565b634e487b7160e01b5f52601160045260245ffd5b611ea7611ead91939293610130565b92610130565b8201809211611eb857565b611e84565b90929192611ed2611ecd82610951565b610877565b9381855260208086019202830192818411611f0f57915b838310611ef65750505050565b60208091611f04848661113e565b815201920191611ee9565b61015e565b9080601f83011215611f3257816020611f2f93519101611ebd565b90565b610156565b90602082820312611f67575f82015167ffffffffffffffff8111611f6257611f5f9201611f14565b90565b6100f2565b6100ee565b60209181520190565b60200190565b611f84906102e3565b9052565b90606080611fce93611fa05f8201515f860190610a01565b611fb260208201516020860190610a01565b611fc460408201516040860190611f7b565b0151910190610a01565b565b90611fdd81608093611f88565b0190565b60200190565b90612004611ffe611ff784611e18565b8093611f6c565b92611f75565b905f5b8181106120145750505090565b90919261202d6120276001928651611fd0565b94611fe1565b9101919091612007565b9061207461207f916120869698979561206760809661205d60a08801945f89019061197a565b602087019061197a565b8482036040860152611fe7565b9660608301906103c0565b019061197a565b565b5f7f4165726f64726f6d652073776170206661696c65643a20257300000000000000910152565b6120b9601961126c565b906120c660208301612088565b565b6120d06120af565b90565b5f7f4165726f64726f6d652073776170206661696c65643a20000000000000000000910152565b61210660178092611bac565b61210f816120d3565b0190565b90612120612126926120fa565b90611bf1565b90565b61213861213e91939293610130565b92610130565b820391821161214957565b611e84565b5f7f42616c616e636520616674657220737761702025643a20256420257300000000910152565b61217f601c61126c565b9061218c6020830161214e565b565b612196612175565b90565b5f7f416c6c20737761707320636f6d706c6574656400000000000000000000000000910152565b6121ca601361126c565b906121d760208301612199565b565b6121e16121c0565b90565b5f7f546f74616c20646562743a202564000000000000000000000000000000000000910152565b612215600e61126c565b90612222602083016121e4565b565b61222c61220b565b90565b60207f647320746f20726570617920746865206c6f616e000000000000000000000000917f417262697472616765206661696c65643a206e6f7420656e6f7567682066756e5f8201520152565b61228960346040926112ce565b6122928161222f565b0190565b6122ab9060208101905f81830391015261227c565b90565b156122b557565b6122bd6100e4565b62461bcd60e51b8152806122d360048201612296565b0390fd5b5f7f5265706179696e67206c6f616e2e2e2e00000000000000000000000000000000910152565b612308601061126c565b90612315602083016122d7565b565b61231f6122fe565b90565b5f7f50726f6669743a20256400000000000000000000000000000000000000000000910152565b612353600a61126c565b9061236060208301612322565b565b61236a612349565b90565b929894966123fa929891949650612382611245565b5061239361238e6112c3565b61317a565b6123d7336123d16123cb6123c67f00000000000000000000000000000000000000000000000000000000000000006104e5565b610101565b91610101565b14611356565b6123f16123ec6123e65f611399565b156102e3565b6113ff565b908101906115ed565b93612417612412888a61240c5f610927565b91611622565b611637565b9561243461242f84866124295f610927565b91611644565b611659565b98612448888b906124436116a6565b6131f0565b6124515f610927565b995b8a61246e6124686124638b6116c0565b610130565b91610130565b1015612cc35761247f888c906116c4565b51986124928c61248d611724565b61325b565b6124b96124b46124af8c6124a95f6001920161172f565b90610284565b611750565b6117b6565b6124c560608b016117df565b6124d76124d15f610a60565b91610a60565b145f146128cc579089916124f16124ec611c8b565b61317a565b61250f6080840151602061250482610d82565b818301019101611cf6565b602061252261251d85611100565b611132565b6125325f63095ea7b3970161172f565b906125505f809861255b6125446100e4565b9a8b9687958694610c74565b845260048401611957565b03925af19384156128c7578c9461289b575b50602061258161257c85611100565b611132565b6125915f63095ea7b3970161172f565b906125af5f86986125ba6125a36100e4565b9a8b9687958694610c74565b845260048401611987565b03925af1908115612896578c945f9261286a575b506125e16125dc6001610814565b611dc9565b92612667856126426125f560408a0161172f565b612639612603888801611df0565b61263061261260208a0161172f565b9361262761261e611dfd565b978c8901610943565b60208701610943565b60408501611e0a565b60608301610943565b6126618691869061265b61265583610927565b85611e1c565b52610927565b90611e1c565b51506126d98361269061268b6126868361267f611e3c565b9b0161172f565b611e4d565b611e59565b926126e46126a6604063cac88ea99397016119aa565b976126b030610805565b6126c4426126be603c611e68565b90611e98565b916126cd6100e4565b9a8b998a988997610c74565b875260048701612037565b03925af180915f92612846575b50155f1461282e575060016127615750612740604061273861273361275b945b61272d61271d826109b1565b6127276001610814565b90612129565b906109b5565b6119aa565b9a5b0161172f565b9a612756818d8c909161275161218e565b6134a0565b6116b1565b99612453565b61280d6127f961280861282a938d61277f61277a611aa5565b61339a565b916127918361278c6120c8565b61341b565b61279c5f830161172f565b6127e26127ad60405f94950161172f565b85907f277844e3a654ec2e30084b12226f58e0931f046ea9d6f4a377db59ce14f2339b956127d96100e4565b95869586611b5b565b0390a16127ed6100e4565b92839160208301612113565b6020820181038252038261084e565b611c30565b6128156100e4565b91829162461bcd60e51b835260048301611c33565b0390fd5b61275b92506127409150612738612733604092612711565b6128639192503d805f833e61285b818361084e565b810190611f37565b905f6126f1565b61288a9060203d811161288f575b612882818361084e565b81019061192c565b6125ce565b503d612878565b610e53565b6128bb9060203d81116128c0575b6128b3818361084e565b81019061192c565b61256d565b503d6128a9565b610e53565b98906128da606083016117df565b6128ed6128e76001610a60565b91610a60565b14612902575b50612740604061275b9261273a565b6129156129109a929a61182c565b61317a565b61293360808b0151602061292882610d82565b8183010191016118e8565b918a602061294861294385611100565b611132565b6129585f63095ea7b3940161172f565b906129765f809561298161296a6100e4565b97889687958694610c74565b845260048401611957565b03925af18015612cbe57612c92575b508a60206129a56129a085611100565b611132565b6129b55f63095ea7b3940161172f565b906129d35f86956129de6129c76100e4565b97889687958694610c74565b845260048401611987565b03925af1938415612c8d57612a4a612a95936020938f97612c62575b50612a415f84015193612a38612a1b87612a1330610805565b9593016119aa565b93612a30612a276119b7565b975f89016119c4565b878701610943565b604085016109d5565b606083016109d5565b612a6d612a68612a635f612a5c6119c7565b980161172f565b6119d7565b6119e3565b612a8a5f63b858183f612a7e6100e4565b96879586948593610c74565b835260048301611a71565b03925af180915f92612c32575b50155f14612c2257506001612b5457612abe612ac3915b611100565b611132565b602063095ea7b391612ad65f8d0161172f565b90612af45f8095612aff612ae86100e4565b97889687958694610c74565b845260048401611957565b03925af18015612b4f5761275b9261274092604092612b23575b509a9250506128f3565b612b439060203d8111612b48575b612b3b818361084e565b81019061192c565b612b19565b503d612b31565b610e53565b612c01612bed612bfc612c1e938d612b72612b6d611aa5565b61339a565b91612b8483612b7f611b0e565b61341b565b612b8f5f830161172f565b612bd6612ba16040600194950161172f565b85907f277844e3a654ec2e30084b12226f58e0931f046ea9d6f4a377db59ce14f2339b95612bcd6100e4565b95869586611b5b565b0390a1612be16100e4565b92839160208301611c1a565b6020820181038252038261084e565b611c30565b612c096100e4565b91829162461bcd60e51b835260048301611c33565b0390fd5b612ac3919250612abe9092612ab9565b612c5491925060203d8111612c5b575b612c4c818361084e565b81019061114d565b905f612aa2565b503d612c42565b612c8190853d8111612c86575b612c79818361084e565b81019061192c565b6129fa565b503d612c6f565b610e53565b612cb29060203d8111612cb7575b612caa818361084e565b81019061192c565b612990565b503d612ca0565b610e53565b50612d23959950612d1d939750612d949650612d02612d0791612d1894969a612cf2612ced6121d9565b61317a565b90612cfc5f610927565b91611622565b611637565b9390612d125f610927565b91611622565b611637565b90611e98565b612d3481612d2f612224565b61325b565b6020612d62612d5d612d58612d538789612d4d5f610927565b91611644565b611659565b611100565b611132565b6370a0823190612d89612d7430610805565b92612d7d6100e4565b96879485938493610c74565b8352600483016103cd565b03915afa918215612f7857612e2d92612dc8915f91612f4a575b50612dc1612dbb84610130565b91610130565b10156122ae565b612dd8612dd3612317565b61317a565b612dfc612df7612df28587612dec5f610927565b91611644565b611659565b611100565b90612e267f00000000000000000000000000000000000000000000000000000000000000006104e5565b9091613133565b612e906020612e5e612e59612e54612e4f8688612e495f610927565b91611644565b611659565b611100565b611132565b6370a0823190612e85612e7030610805565b92612e796100e4565b95869485938493610c74565b8352600483016103cd565b03915afa908115612f45575f91612f17575b5090612eb582612eb0612362565b61325b565b81612ec8612ec25f610927565b91610130565b11612ed6575b505050600190565b612ef9612ef4612f0f94612efe9390612eee5f610927565b91611644565b611659565b611100565b90612f085f611125565b9091613133565b5f8080612ece565b612f38915060203d8111612f3e575b612f30818361084e565b81019061114d565b5f612ea2565b503d612f26565b610e53565b612f6b915060203d8111612f71575b612f63818361084e565b81019061114d565b5f612dae565b503d612f59565b610e53565b612f8561310d565b612f8d612fb3565b565b612f9890610250565b90565b612fa490612f8f565b90565b612fb09061026c565b90565b5f808080612fd0612fcb612fc683611125565b612f9b565b612fa7565b612fd930610805565b3190828215612ff0575bf115612feb57565b610e53565b506108fc612fe3565b613001612f7d565b565b906130159161301061310d565b61304d565b565b9061302360ff91611011565b9181191691161790565b9061304261303d6130499261109c565b6110a8565b8254613017565b9055565b61305c61306192916001610284565b61302d565b565b9061306d91613003565b565b61308961308461307e5f611399565b156102e3565b6113ff565b565b5f7f4e6f7420746865206d756c746973696700000000000000000000000000000000910152565b6130bf60106020926112ce565b6130c88161308b565b0190565b6130e19060208101905f8183039101526130b2565b90565b156130eb57565b6130f36100e4565b62461bcd60e51b815280613109600482016130cc565b0390fd5b6131313361312b6131256131205f611125565b610101565b91610101565b146130e4565b565b9161314c916131469184916001926134e5565b156102e3565b6131535750565b61315f61317691611132565b5f918291635274afe760e01b8352600483016103cd565b0390fd5b6131a56131b46131b99261318c6100e4565b92839160046020840163104c13eb60e21b815201611c33565b6020820181038252038261084e565b61354f565b565b6040906131e76131dc6131ee9597969460608401908482035f860152611b2a565b96602083019061197a565b01906103c0565b565b613233929161321f61322e9291936132066100e4565b94859360046020860163038fd88960e31b8152016131bb565b6020820181038252038261084e565b61354f565b565b929160206132516132599360408701908782035f890152611b2a565b94019061197a565b565b9061329661329b9261328761326e6100e4565b938492600460208501632d839cb360e21b815201613235565b6020820181038252038261084e565b61354f565b565b606090565b90565b6132b96132b46132be926132a2565b61024d565b610130565b90565b5f7f4e6f2072657665727420726561736f6e00000000000000000000000000000000910152565b6132f2601061126c565b906132ff602083016132c1565b565b6133096132e8565b90565b9092919261332161331c82611249565b610877565b9381855260208501908284011161333d5761333b92610d8f565b565b61144d565b9080601f830112156133605781602061335d9351910161330c565b90565b610156565b90602082820312613395575f82015167ffffffffffffffff81116133905761338d9201613342565b90565b6100f2565b6100ee565b6133a261329d565b506133ac81610d82565b6133bf6133b960446132a5565b91610130565b106133e45760046133e1910160206133d682610d82565b818301019101613365565b90565b506133ed613301565b90565b909161340a6134189360408401908482035f860152611b2a565b916020818403910152611b2a565b90565b9061345661345b9261344761342e6100e4565b938492600460208501634b5c427760e01b8152016133f0565b6020820181038252038261084e565b61354f565b565b61349761349e9461348d6134826060959998969960808601908682035f880152611b2a565b98602085019061197a565b604083019061197a565b01906103c0565b565b906134cf6134e3946134de9392946134b66100e4565b958694600460208701631c43bc4f60e31b81520161345d565b6020820181038252038261084e565b61354f565b565b90919392936134f2611245565b5063a9059cbb60e01b92604051935f525f1960601c1660045260245260205f60448180855af19360015f511485161561352d575b5050604052565b8492941516613546575f903b113d151616915f80613526565b833d5f823e3d90fd5b6135629061355d600161358e565b6135ae565b565b6a636f6e736f6c652e6c6f6790565b5f809161357e613564565b602082519201905afa50565b5f90565b61359661358a565b5090565b634e487b7160e01b5f52605160045260245ffd5b60010361359a576135be90613573565b56fea2646970667358221220441f44881b6bd0731138192a3dd2e4000e5ea5304fc5b4f59f29fb71453bf48164736f6c634300081e0033","linkReferences":{}},"methodIdentifiers":{"POOL()":"7535d246","changeMultiSig(address)":"2902a0ca","executeArbitrage(address,uint256,(address,address,address,uint8,bytes)[])":"059f3a2d","executeOperation(address[],uint256[],uint256[],address,bytes)":"920f5c84","multiSig()":"36e0004a","pause()":"8456cb59","paused()":"5c975abb","setRouter(address,bool)":"c3c64674","unpause()":"3f4ba83a","whitelistedRouters(address)":"0f874a13","withdraw(address)":"51cff8d9","withdrawEth()":"a0ef91df"},"id":0}