{"abi":[{"type":"constructor","inputs":[{"name":"_pool","type":"address","internalType":"address"},{"name":"_owner","type":"address","internalType":"address"},{"name":"_multiSig","type":"address","internalType":"address payable"}],"stateMutability":"nonpayable"},{"type":"receive","stateMutability":"payable"},{"type":"function","name":"AAVE_POOL","inputs":[],"outputs":[{"name":"","type":"address","internalType":"contract IPool"}],"stateMutability":"view"},{"type":"function","name":"dexRouters","inputs":[{"name":"","type":"uint8","internalType":"enum DEX"}],"outputs":[{"name":"","type":"address","internalType":"address"}],"stateMutability":"view"},{"type":"function","name":"executeOperation","inputs":[{"name":"_asset","type":"address","internalType":"address"},{"name":"_amount","type":"uint256","internalType":"uint256"},{"name":"_premium","type":"uint256","internalType":"uint256"},{"name":"_initiator","type":"address","internalType":"address"},{"name":"_params","type":"bytes","internalType":"bytes"}],"outputs":[{"name":"","type":"bool","internalType":"bool"}],"stateMutability":"nonpayable"},{"type":"function","name":"multiSig","inputs":[],"outputs":[{"name":"","type":"address","internalType":"address payable"}],"stateMutability":"view"},{"type":"function","name":"owner","inputs":[],"outputs":[{"name":"","type":"address","internalType":"address"}],"stateMutability":"view"},{"type":"function","name":"renounceOwnership","inputs":[],"outputs":[],"stateMutability":"nonpayable"},{"type":"function","name":"setMultiSig","inputs":[{"name":"_multiSig","type":"address","internalType":"address payable"}],"outputs":[],"stateMutability":"nonpayable"},{"type":"function","name":"setRouter","inputs":[{"name":"_dex","type":"uint8","internalType":"enum DEX"},{"name":"_router","type":"address","internalType":"address"}],"outputs":[],"stateMutability":"nonpayable"},{"type":"function","name":"startArbitrage","inputs":[{"name":"_asset","type":"address","internalType":"address"},{"name":"_amount","type":"uint256","internalType":"uint256"},{"name":"_userData","type":"bytes","internalType":"bytes"}],"outputs":[],"stateMutability":"nonpayable"},{"type":"function","name":"transferOwnership","inputs":[{"name":"newOwner","type":"address","internalType":"address"}],"outputs":[],"stateMutability":"nonpayable"},{"type":"function","name":"withdraw","inputs":[{"name":"_token","type":"address","internalType":"address"},{"name":"_to","type":"address","internalType":"address"},{"name":"_amount","type":"uint256","internalType":"uint256"}],"outputs":[],"stateMutability":"nonpayable"},{"type":"event","name":"ArbitrageAttempt","inputs":[{"name":"asset","type":"address","indexed":true,"internalType":"address"},{"name":"loanAmount","type":"uint256","indexed":false,"internalType":"uint256"}],"anonymous":false},{"type":"event","name":"FlashLoanExecuted","inputs":[{"name":"token","type":"address","indexed":true,"internalType":"address"},{"name":"loanAmount","type":"uint256","indexed":false,"internalType":"uint256"},{"name":"profit","type":"uint256","indexed":false,"internalType":"uint256"}],"anonymous":false},{"type":"event","name":"OwnershipTransferred","inputs":[{"name":"previousOwner","type":"address","indexed":true,"internalType":"address"},{"name":"newOwner","type":"address","indexed":true,"internalType":"address"}],"anonymous":false},{"type":"event","name":"ProfitWithdrawn","inputs":[{"name":"to","type":"address","indexed":true,"internalType":"address"},{"name":"amount","type":"uint256","indexed":false,"internalType":"uint256"}],"anonymous":false},{"type":"event","name":"RouterUpdated","inputs":[{"name":"dex","type":"uint8","indexed":true,"internalType":"enum DEX"},{"name":"router","type":"address","indexed":true,"internalType":"address"}],"anonymous":false},{"type":"event","name":"SwapExecuted","inputs":[{"name":"dex","type":"uint8","indexed":true,"internalType":"enum DEX"},{"name":"tokenIn","type":"address","indexed":true,"internalType":"address"},{"name":"tokenOut","type":"address","indexed":true,"internalType":"address"},{"name":"amountIn","type":"uint256","indexed":false,"internalType":"uint256"},{"name":"amountOut","type":"uint256","indexed":false,"internalType":"uint256"}],"anonymous":false},{"type":"event","name":"SwapFailed","inputs":[{"name":"dex","type":"uint8","indexed":true,"internalType":"enum DEX"},{"name":"tokenIn","type":"address","indexed":true,"internalType":"address"},{"name":"tokenOut","type":"address","indexed":true,"internalType":"address"},{"name":"reason","type":"bytes","indexed":false,"internalType":"bytes"}],"anonymous":false},{"type":"error","name":"OwnableInvalidOwner","inputs":[{"name":"owner","type":"address","internalType":"address"}]},{"type":"error","name":"OwnableUnauthorizedAccount","inputs":[{"name":"account","type":"address","internalType":"address"}]},{"type":"error","name":"ReentrancyGuardReentrantCall","inputs":[]},{"type":"error","name":"SafeERC20FailedOperation","inputs":[{"name":"token","type":"address","internalType":"address"}]}],"bytecode":{"object":"0x60a034620001c857601f62001ead38819003918201601f191683019291906001600160401b03841183851017620001cc578160609284926040968752833981010312620001c8576200005181620001e0565b90826200006160208301620001e0565b9101516001600160a01b038082169390929091849003620001c8578216918215620001b1575f549160018060a01b03199380858516175f5582875194167f8be0079c531659141344cd1fd0a4f28419497f9722a3daafe3b4186f6b6457e05f80a360017f9b779b17422d0df92223018b32b4d1fa46e071723d6817e2486d003becc55f0055169081156200018357506080528162000127575b8251611cb79081620001f682396080518181816105d001528181610b5d01528181610ff601526114d60152f35b813b156200013f5760025416176002555f80620000fa565b825162461bcd60e51b815260206004820152601960248201527f6d75737420626520636f6e7472616374206d756c7469736967000000000000006044820152606490fd5b62461bcd60e51b815260206004820152600960248201526816995c9bc81c1bdbdb60ba1b6044820152606490fd5b8451631e4fbdf760e01b81525f6004820152602490fd5b5f80fd5b634e487b7160e01b5f52604160045260245ffd5b51906001600160a01b0382168203620001c85756fe608080604052600436101561001c575b50361561001a575f80fd5b005b5f90813560e01c90816308a016751461148c575080631b11d0ff14610ac6578063284d30ef1461097857806336e0004a14610926578063715018a61461088a578063785b32f4146108235780638da5cb5b146107d2578063cca2e3cc146104f0578063d9caed12146102a6578063e4b58cdc146101805763f2fde38b0361000f573461017d5760207ffffffffffffffffffffffffffffffffffffffffffffffffffffffffffffffffc36011261017d576100d46114fa565b6100dc611b79565b73ffffffffffffffffffffffffffffffffffffffff80911690811561014c575f54827fffffffffffffffffffffffff00000000000000000000000000000000000000008216175f55167f8be0079c531659141344cd1fd0a4f28419497f9722a3daafe3b4186f6b6457e05f80a380f35b602483604051907f1e4fbdf70000000000000000000000000000000000000000000000000000000082526004820152fd5b80fd5b503461017d5760407ffffffffffffffffffffffffffffffffffffffffffffffffffffffffffffffffc36011261017d5760043560048110156102a2576101c461151d565b906101cd611b79565b813b156102445773ffffffffffffffffffffffffffffffffffffffff6101f28261158f565b921691827fffffffffffffffffffffffff00000000000000000000000000000000000000008254161790557fed739f5df64012854c2039ba144af8e3af26211fc7f10a959c6a592ae58c44918380a380f35b60646040517f08c379a000000000000000000000000000000000000000000000000000000000815260206004820152601560248201527f526f75746572206e6f74206120636f6e747261637400000000000000000000006044820152fd5b5080fd5b503461017d5760607ffffffffffffffffffffffffffffffffffffffffffffffffffffffffffffffffc36011261017d576102de6114fa565b6102e661151d565b60443573ffffffffffffffffffffffffffffffffffffffff8060025416330361049257808316938415610434571691604051927f70a082310000000000000000000000000000000000000000000000000000000084523060048501526020938481602481855afa9081156104295787916103f8575b50831161039a57827f016e128b6bdadd9e9068abd0b18db2fc8b27ed3dbced50e4aa6cc0a6934251ab94939261039092611bc9565b604051908152a280f35b606484604051907f08c379a00000000000000000000000000000000000000000000000000000000082526004820152601460248201527f496e73756666696369656e742062616c616e63650000000000000000000000006044820152fd5b90508481813d8311610422575b61040f81836115d3565b8101031261041e57515f61035b565b5f80fd5b503d610405565b6040513d89823e3d90fd5b60646040517f08c379a000000000000000000000000000000000000000000000000000000000815260206004820152600e60248201527f7a65726f20726563697069656e740000000000000000000000000000000000006044820152fd5b60646040517f08c379a000000000000000000000000000000000000000000000000000000000815260206004820152600d60248201527f4f6e6c79206d756c7469736967000000000000000000000000000000000000006044820152fd5b503461017d5760607ffffffffffffffffffffffffffffffffffffffffffffffffffffffffffffffffc36011261017d576105286114fa565b602435919067ffffffffffffffff6044358181116107ce5761054e903690600401611561565b927f9b779b17422d0df92223018b32b4d1fa46e071723d6817e2486d003becc55f009560028754146107a4576002875573ffffffffffffffffffffffffffffffffffffffff8092169182156107465781156106e857827fc8bc94bfc9e69e644143f54fd09e9b7a6d764c47377140791c9549fea7f4e54f6020604051858152a27f00000000000000000000000000000000000000000000000000000000000000001691823b156106e457908660c4819594937fffffffffffffffffffffffffffffffffffffffffffffffffffffffffffffffe0601f8a6040519b8c998a9889967f42b0b77c0000000000000000000000000000000000000000000000000000000088523060048901526024880152604487015260a060648701528160a48701528686013785858286010152856084850152011681010301925af180156106d95761069b575b826001855580f35b81116106ac5760405260015f610693565b6024827f4e487b710000000000000000000000000000000000000000000000000000000081526041600452fd5b6040513d85823e3d90fd5b8680fd5b60646040517f08c379a000000000000000000000000000000000000000000000000000000000815260206004820152600b60248201527f7a65726f20616d6f756e740000000000000000000000000000000000000000006044820152fd5b60646040517f08c379a000000000000000000000000000000000000000000000000000000000815260206004820152600a60248201527f7a65726f206173736574000000000000000000000000000000000000000000006044820152fd5b60046040517f3ee5aeb5000000000000000000000000000000000000000000000000000000008152fd5b8380fd5b503461017d57807ffffffffffffffffffffffffffffffffffffffffffffffffffffffffffffffffc36011261017d5773ffffffffffffffffffffffffffffffffffffffff6020915416604051908152f35b503461017d5760207ffffffffffffffffffffffffffffffffffffffffffffffffffffffffffffffffc36011261017d5760043590600482101561017d57602073ffffffffffffffffffffffffffffffffffffffff6108808461158f565b5416604051908152f35b503461017d57807ffffffffffffffffffffffffffffffffffffffffffffffffffffffffffffffffc36011261017d576108c1611b79565b8073ffffffffffffffffffffffffffffffffffffffff81547fffffffffffffffffffffffff000000000000000000000000000000000000000081168355167f8be0079c531659141344cd1fd0a4f28419497f9722a3daafe3b4186f6b6457e08280a380f35b503461017d57807ffffffffffffffffffffffffffffffffffffffffffffffffffffffffffffffffc36011261017d57602073ffffffffffffffffffffffffffffffffffffffff60025416604051908152f35b503461017d5760207ffffffffffffffffffffffffffffffffffffffffffffffffffffffffffffffffc36011261017d5760043573ffffffffffffffffffffffffffffffffffffffff81168091036102a2576109d1611b79565b8015610a6857803b15610a0a577fffffffffffffffffffffffff0000000000000000000000000000000000000000600254161760025580f35b60646040517f08c379a000000000000000000000000000000000000000000000000000000000815260206004820152601960248201527f6d75737420626520636f6e7472616374206d756c7469736967000000000000006044820152fd5b60646040517f08c379a000000000000000000000000000000000000000000000000000000000815260206004820152600d60248201527f7a65726f206d756c7469736967000000000000000000000000000000000000006044820152fd5b503461017d5760a07ffffffffffffffffffffffffffffffffffffffffffffffffffffffffffffffffc36011261017d57610afe6114fa565b9060649081359173ffffffffffffffffffffffffffffffffffffffff83168093036102a25760843567ffffffffffffffff81116113ce57610b43903690600401611561565b94909373ffffffffffffffffffffffffffffffffffffffff7f000000000000000000000000000000000000000000000000000000000000000016330361142f5730036113d25760408486810103126113ce5783359467ffffffffffffffff86116107ce57808501601f8787010112156107ce5785850135610bc381611641565b96610bd160405198896115d3565b818852602088019083880160208460051b838b010101116106e457602081890101915b60208460051b838b01010183106111dc575050505050602494853591829585935b8351851015610f6b5773ffffffffffffffffffffffffffffffffffffffff6020610c3f8787611659565b51015116610c4d8686611659565b51516004811015610ed757610c839173ffffffffffffffffffffffffffffffffffffffff610c7b859361158f565b5416906119db565b610c8d8585611659565b519081516004811015610ed757610cb873ffffffffffffffffffffffffffffffffffffffff9161158f565b54168015159081610f60575b5015610f035781516004811015610ed757600103610e7a57610d2c73ffffffffffffffffffffffffffffffffffffffff6020840151168273ffffffffffffffffffffffffffffffffffffffff60408601511662ffffff6060870151169060c0870151936116f6565b9160c08101518310610e1d5780516004811015610df1577f0298e0e082a77c27dbd2db499b92fa088fc00ba96eae7f1bbec8dfedecc43c4b604073ffffffffffffffffffffffffffffffffffffffff818160208701511695015116948151908152866020820152a4937fffffffffffffffffffffffffffffffffffffffffffffffffffffffffffffffff8114610dc55760010193610c15565b88877f4e487b710000000000000000000000000000000000000000000000000000000081526011600452fd5b8b8a7f4e487b710000000000000000000000000000000000000000000000000000000081526021600452fd5b878b6011604051917f08c379a0000000000000000000000000000000000000000000000000000000008352602060048401528201527f536c6970706167652065786365656465640000000000000000000000000000006044820152fd5b868a600f604051917f08c379a0000000000000000000000000000000000000000000000000000000008352602060048401528201527f556e737570706f727465642044455800000000000000000000000000000000006044820152fd5b8a897f4e487b710000000000000000000000000000000000000000000000000000000081526021600452fd5b868a600e604051917f08c379a0000000000000000000000000000000000000000000000000000000008352602060048401528201527f496e76616c696420726f757465720000000000000000000000000000000000006044820152fd5b90503b15155f610cc4565b8886939288928a6044358101928382116111b057838310611153578383039583871161112757506020013585106110ca577f61268d74931c41c9775dffb6169a5208aab1d09cb2eb6aabe8b97162801e5dfa73ffffffffffffffffffffffffffffffffffffffff60409596971694859261101c8673ffffffffffffffffffffffffffffffffffffffff7f000000000000000000000000000000000000000000000000000000000000000016866119db565b8151908152886020820152a203611039575b602060405160018152f35b73ffffffffffffffffffffffffffffffffffffffff6002541691821561106d57506110649350611bc9565b8080808061102e565b84906010604051917f08c379a0000000000000000000000000000000000000000000000000000000008352602060048401528201527f6d756c7469736967206e6f7420736574000000000000000000000000000000006044820152fd5b86846014604051917f08c379a0000000000000000000000000000000000000000000000000000000008352602060048401528201527f50726f6669742062656c6f77206d696e696d756d0000000000000000000000006044820152fd5b807f4e487b71000000000000000000000000000000000000000000000000000000008792526011600452fd5b8785601b604051917f08c379a0000000000000000000000000000000000000000000000000000000008352602060048401528201527f496e73756666696369656e742066756e647320746f20726570617900000000006044820152fd5b84867f4e487b710000000000000000000000000000000000000000000000000000000081526011600452fd5b823567ffffffffffffffff81116113ca5760e07fffffffffffffffffffffffffffffffffffffffffffffffffffffffffffffffe082858d0101888d010301126113ca57604051908160e081011067ffffffffffffffff60e08401111761139d576004602082868e60e08701604052010101351015611399578a840181016020810135835261126c90604001611540565b60208301528360606112838d830184018201611540565b60408501526080918d0183018201359062ffffff82168203611395578401528b8501820160a08101359184019190915260c0013567ffffffffffffffff811161139157878c01858d0183018201603f0112156113915760208183878f01010101356112ed81611641565b916112fb60405193846115d3565b8183528d602084019060408c82019184888c8860051b9301010101011161138d5791818f9360408a969488888801010101905b60408460051b848a8a8a01010101018210611365575050505060a0850152010160e0013560c0820152815260209283019201610bf4565b819293959496506020809161137b604094611540565b8152019201905089959394929161132e565b8d80fd5b8a80fd5b8c80fd5b8980fd5b60248a7f4e487b710000000000000000000000000000000000000000000000000000000081526041600452fd5b8880fd5b8280fd5b506040517f08c379a000000000000000000000000000000000000000000000000000000000815260206004820152601160248201527f496e76616c696420696e69746961746f720000000000000000000000000000006044820152fd5b826040517f08c379a000000000000000000000000000000000000000000000000000000000815260206004820152600d60248201527f4e6f74204161766520506f6f6c000000000000000000000000000000000000006044820152fd5b9050346102a257817ffffffffffffffffffffffffffffffffffffffffffffffffffffffffffffffffc3601126102a25760209073ffffffffffffffffffffffffffffffffffffffff7f0000000000000000000000000000000000000000000000000000000000000000168152f35b6004359073ffffffffffffffffffffffffffffffffffffffff8216820361041e57565b6024359073ffffffffffffffffffffffffffffffffffffffff8216820361041e57565b359073ffffffffffffffffffffffffffffffffffffffff8216820361041e57565b9181601f8401121561041e5782359167ffffffffffffffff831161041e576020838186019501011161041e57565b60048110156115a6575f52600160205260405f2090565b7f4e487b71000000000000000000000000000000000000000000000000000000005f52602160045260245ffd5b90601f7fffffffffffffffffffffffffffffffffffffffffffffffffffffffffffffffe0910116810190811067ffffffffffffffff82111761161457604052565b7f4e487b71000000000000000000000000000000000000000000000000000000005f52604160045260245ffd5b67ffffffffffffffff81116116145760051b60200190565b805182101561166d5760209160051b010190565b7f4e487b71000000000000000000000000000000000000000000000000000000005f52603260045260245ffd5b91908251928382525f5b8481106116e25750507fffffffffffffffffffffffffffffffffffffffffffffffffffffffffffffffe0601f845f6020809697860101520116010190565b6020818301810151848301820152016116a4565b939294909460015f52600160205260409373ffffffffffffffffffffffffffffffffffffffff855f205416601e420142116119965785519061010082019767ffffffffffffffff988381108a82111761161457885273ffffffffffffffffffffffffffffffffffffffff169889835273ffffffffffffffffffffffffffffffffffffffff169560208301938785528884019562ffffff809316875260608501308152608086019042601e01825260a0870192835260c0870193845260e08701945f86528c51998a998a997f414bf389000000000000000000000000000000000000000000000000000000008b525173ffffffffffffffffffffffffffffffffffffffff1660048b01525173ffffffffffffffffffffffffffffffffffffffff1660248a0152511660448801525173ffffffffffffffffffffffffffffffffffffffff1660648701525160848601525160a48501525160c48401525173ffffffffffffffffffffffffffffffffffffffff1660e48301525a925f61010492602095f15f9181611962575b5061195a5750503d1561194d573d92831161161457611949938251936118cd60207fffffffffffffffffffffffffffffffffffffffffffffffffffffffffffffffe0601f84011601866115d3565b84523d5f602086013e5b60017f32ae741a343c2010d0d691ad017f3d12e7a2e6232ff2994d07524dd5a87e14318451602081528061190e602082018961169a565b0390a4519182917f08c379a000000000000000000000000000000000000000000000000000000000835260206004840152602483019061169a565b0390fd5b61194993606093506118d7565b945092505050565b9091506020813d60201161198e575b8161197e602093836115d3565b8101031261041e5751905f61187f565b3d9150611971565b7f4e487b71000000000000000000000000000000000000000000000000000000005f52601160045260245ffd5b9081602091031261041e5751801515810361041e5790565b91909173ffffffffffffffffffffffffffffffffffffffff809116916040918251947fdd62ed3e00000000000000000000000000000000000000000000000000000000865230600487015216908160248601526020948581604481885afa908115611b42575f91611b4c575b5010611a54575b50505050565b81517f095ea7b300000000000000000000000000000000000000000000000000000000908181528260048201525f602482015285816044815f895af18015611b425791604491879493611b25575b505f85519687948593845260048401527fffffffffffffffffffffffffffffffffffffffffffffffffffffffffffffffff60248401525af1908115611b1c5750611aee575b8080611a4e565b81611b0d92903d10611b15575b611b0581836115d3565b8101906119c3565b505f80611ae7565b503d611afb565b513d5f823e3d90fd5b611b3b90853d8711611b1557611b0581836115d3565b505f611aa2565b84513d5f823e3d90fd5b908682813d8311611b72575b611b6281836115d3565b8101031261017d5750515f611a47565b503d611b58565b73ffffffffffffffffffffffffffffffffffffffff5f54163303611b9957565b60246040517f118cdaa7000000000000000000000000000000000000000000000000000000008152336004820152fd5b60205f604051947fa9059cbb00000000000000000000000000000000000000000000000000000000825273ffffffffffffffffffffffffffffffffffffffff80951660045260245260448180855af160015f5114811615611c62575b8360405215611c3357505050565b602493507f5274afe7000000000000000000000000000000000000000000000000000000008352166004820152fd5b6001811516611c7857813b15153d151616611c25565b833d5f823e3d90fdfea264697066735822122071838f37a508085cd739d18e85a5857a83e9f2dfde3b59070674efed09b04e8a64736f6c63430008140033","linkReferences":{}},"methodIdentifiers":{"AAVE_POOL()":"08a01675","dexRouters(uint8)":"785b32f4","executeOperation(address,uint256,uint256,address,bytes)":"1b11d0ff","multiSig()":"36e0004a","owner()":"8da5cb5b","renounceOwnership()":"715018a6","setMultiSig(address)":"284d30ef","setRouter(uint8,address)":"e4b58cdc","startArbitrage(address,uint256,bytes)":"cca2e3cc","transferOwnership(address)":"f2fde38b","withdraw(address,address,uint256)":"d9caed12"},"id":1}