{
  "_format": "hh-sol-artifact-1",
  "contractName": "MockRouterHardhat",
  "sourceName": "contracts/MockRouterHardhat.sol",
  "abi": [
    {
      "inputs": [
        {
          "internalType": "uint256",
          "name": "_multiplier",
          "type": "uint256"
        },
        {
          "internalType": "uint256",
          "name": "_divisor",
          "type": "uint256"
        }
      ],
      "stateMutability": "nonpayable",
      "type": "constructor"
    },
    {
      "inputs": [],
      "name": "MOCK_VALUE",
      "outputs": [
        {
          "internalType": "uint256",
          "name": "",
          "type": "uint256"
        }
      ],
      "stateMutability": "view",
      "type": "function"
    },
    {
      "inputs": [
        {
          "internalType": "uint256",
          "name": "amountIn",
          "type": "uint256"
        },
        {
          "internalType": "address[]",
          "name": "",
          "type": "address[]"
        }
      ],
      "name": "getAmountsOut",
      "outputs": [
        {
          "internalType": "uint256[]",
          "name": "amounts",
          "type": "uint256[]"
        }
      ],
      "stateMutability": "view",
      "type": "function"
    },
    {
      "inputs": [
        {
          "internalType": "uint256",
          "name": "amountOut",
          "type": "uint256"
        },
        {
          "internalType": "address[]",
          "name": "",
          "type": "address[]"
        },
        {
          "internalType": "address",
          "name": "",
          "type": "address"
        },
        {
          "internalType": "uint256",
          "name": "",
          "type": "uint256"
        }
      ],
      "name": "swapETHForExactTokens",
      "outputs": [
        {
          "internalType": "uint256[]",
          "name": "amounts",
          "type": "uint256[]"
        }
      ],
      "stateMutability": "payable",
      "type": "function"
    },
    {
      "inputs": [
        {
          "internalType": "uint256",
          "name": "",
          "type": "uint256"
        },
        {
          "internalType": "address[]",
          "name": "",
          "type": "address[]"
        },
        {
          "internalType": "address",
          "name": "",
          "type": "address"
        },
        {
          "internalType": "uint256",
          "name": "",
          "type": "uint256"
        }
      ],
      "name": "swapExactETHForTokens",
      "outputs": [
        {
          "internalType": "uint256[]",
          "name": "amounts",
          "type": "uint256[]"
        }
      ],
      "stateMutability": "payable",
      "type": "function"
    },
    {
      "inputs": [
        {
          "internalType": "uint256",
          "name": "amountIn",
          "type": "uint256"
        },
        {
          "internalType": "uint256",
          "name": "",
          "type": "uint256"
        },
        {
          "internalType": "address[]",
          "name": "",
          "type": "address[]"
        },
        {
          "internalType": "address",
          "name": "",
          "type": "address"
        },
        {
          "internalType": "uint256",
          "name": "",
          "type": "uint256"
        }
      ],
      "name": "swapExactTokensForETH",
      "outputs": [
        {
          "internalType": "uint256[]",
          "name": "amounts",
          "type": "uint256[]"
        }
      ],
      "stateMutability": "nonpayable",
      "type": "function"
    },
    {
      "inputs": [
        {
          "internalType": "uint256",
          "name": "amountIn",
          "type": "uint256"
        },
        {
          "internalType": "uint256",
          "name": "",
          "type": "uint256"
        },
        {
          "internalType": "address[]",
          "name": "path",
          "type": "address[]"
        },
        {
          "internalType": "address",
          "name": "to",
          "type": "address"
        },
        {
          "internalType": "uint256",
          "name": "",
          "type": "uint256"
        }
      ],
      "name": "swapExactTokensForTokens",
      "outputs": [
        {
          "internalType": "uint256[]",
          "name": "amounts",
          "type": "uint256[]"
        }
      ],
      "stateMutability": "nonpayable",
      "type": "function"
    },
    {
      "inputs": [
        {
          "internalType": "uint256",
          "name": "amountOut",
          "type": "uint256"
        },
        {
          "internalType": "uint256",
          "name": "amountInMax",
          "type": "uint256"
        },
        {
          "internalType": "address[]",
          "name": "",
          "type": "address[]"
        },
        {
          "internalType": "address",
          "name": "",
          "type": "address"
        },
        {
          "internalType": "uint256",
          "name": "",
          "type": "uint256"
        }
      ],
      "name": "swapTokensForExactETH",
      "outputs": [
        {
          "internalType": "uint256[]",
          "name": "amounts",
          "type": "uint256[]"
        }
      ],
      "stateMutability": "nonpayable",
      "type": "function"
    },
    {
      "inputs": [
        {
          "internalType": "uint256",
          "name": "amountOut",
          "type": "uint256"
        },
        {
          "internalType": "uint256",
          "name": "amountInMax",
          "type": "uint256"
        },
        {
          "internalType": "address[]",
          "name": "",
          "type": "address[]"
        },
        {
          "internalType": "address",
          "name": "",
          "type": "address"
        },
        {
          "internalType": "uint256",
          "name": "",
          "type": "uint256"
        }
      ],
      "name": "swapTokensForExactTokens",
      "outputs": [
        {
          "internalType": "uint256[]",
          "name": "amounts",
          "type": "uint256[]"
        }
      ],
      "stateMutability": "nonpayable",
      "type": "function"
    }
  ],
  "bytecode": "0x60806040523480156200001157600080fd5b50604051620010743803806200107483398181016040528101906200003791906200008d565b81600081905550806001819055505050620000d4565b600080fd5b6000819050919050565b620000678162000052565b81146200007357600080fd5b50565b60008151905062000087816200005c565b92915050565b60008060408385031215620000a757620000a66200004d565b5b6000620000b78582860162000076565b9250506020620000ca8582860162000076565b9150509250929050565b610f9080620000e46000396000f3fe60806040526004361061007b5760003560e01c80637ff36ab51161004e5780637ff36ab5146101625780638803dbee14610192578063d06ca61f146101cf578063fb3bdb411461020c5761007b565b806318cbafe51461008057806338ed1739146100bd578063409dffa6146100fa5780634a25d94a14610125575b600080fd5b34801561008c57600080fd5b506100a760048036038101906100a2919061094e565b61023c565b6040516100b49190610aa6565b60405180910390f35b3480156100c957600080fd5b506100e460048036038101906100df919061094e565b6102de565b6040516100f19190610aa6565b60405180910390f35b34801561010657600080fd5b5061010f610517565b60405161011c9190610ad7565b60405180910390f35b34801561013157600080fd5b5061014c6004803603810190610147919061094e565b610523565b6040516101599190610aa6565b60405180910390f35b61017c60048036038101906101779190610af2565b6105bd565b6040516101899190610aa6565b60405180910390f35b34801561019e57600080fd5b506101b960048036038101906101b4919061094e565b61065e565b6040516101c69190610aa6565b60405180910390f35b3480156101db57600080fd5b506101f660048036038101906101f19190610cc9565b6106f8565b6040516102039190610aa6565b60405180910390f35b61022660048036038101906102219190610af2565b6107a8565b6040516102339190610aa6565b60405180910390f35b6060600267ffffffffffffffff81111561025957610258610b8b565b5b6040519080825280602002602001820160405280156102875781602001602082028036833780820191505090505b509050868160008151811061029f5761029e610d25565b5b602002602001018181525050670de0b6b3a7640000816001815181106102c8576102c7610d25565b5b6020026020010181815250509695505050505050565b6060600267ffffffffffffffff8111156102fb576102fa610b8b565b5b6040519080825280602002602001820160405280156103295781602001602082028036833780820191505090505b509050868160008151811061034157610340610d25565b5b6020026020010181815250506001546000548861035e9190610d83565b6103689190610df4565b8160018151811061037c5761037b610d25565b5b60200260200101818152505060008585600081811061039e5761039d610d25565b5b90506020020160208101906103b39190610e25565b9050600086866001898990506103c99190610e52565b8181106103d9576103d8610d25565b5b90506020020160208101906103ee9190610e25565b90508173ffffffffffffffffffffffffffffffffffffffff166323b872dd33308c6040518463ffffffff1660e01b815260040161042d93929190610e95565b6020604051808303816000875af115801561044c573d6000803e3d6000fd5b505050506040513d601f19601f820116820180604052508101906104709190610f04565b508073ffffffffffffffffffffffffffffffffffffffff1663a9059cbb86856001815181106104a2576104a1610d25565b5b60200260200101516040518363ffffffff1660e01b81526004016104c7929190610f31565b6020604051808303816000875af11580156104e6573d6000803e3d6000fd5b505050506040513d601f19601f8201168201806040525081019061050a9190610f04565b5050509695505050505050565b670de0b6b3a764000081565b6060600267ffffffffffffffff8111156105405761053f610b8b565b5b60405190808252806020026020018201604052801561056e5781602001602082028036833780820191505090505b509050858160008151811061058657610585610d25565b5b60200260200101818152505086816001815181106105a7576105a6610d25565b5b6020026020010181815250509695505050505050565b6060600267ffffffffffffffff8111156105da576105d9610b8b565b5b6040519080825280602002602001820160405280156106085781602001602082028036833780820191505090505b50905034816000815181106106205761061f610d25565b5b602002602001018181525050670de0b6b3a76400008160018151811061064957610648610d25565b5b60200260200101818152505095945050505050565b6060600267ffffffffffffffff81111561067b5761067a610b8b565b5b6040519080825280602002602001820160405280156106a95781602001602082028036833780820191505090505b50905085816000815181106106c1576106c0610d25565b5b60200260200101818152505086816001815181106106e2576106e1610d25565b5b6020026020010181815250509695505050505050565b6060600267ffffffffffffffff81111561071557610714610b8b565b5b6040519080825280602002602001820160405280156107435781602001602082028036833780820191505090505b509050828160008151811061075b5761075a610d25565b5b602002602001018181525050600154600054846107789190610d83565b6107829190610df4565b8160018151811061079657610795610d25565b5b60200260200101818152505092915050565b6060600267ffffffffffffffff8111156107c5576107c4610b8b565b5b6040519080825280602002602001820160405280156107f35781602001602082028036833780820191505090505b509050348160008151811061080b5761080a610d25565b5b602002602001018181525050858160018151811061082c5761082b610d25565b5b60200260200101818152505095945050505050565b6000604051905090565b600080fd5b600080fd5b6000819050919050565b61086881610855565b811461087357600080fd5b50565b6000813590506108858161085f565b92915050565b600080fd5b600080fd5b600080fd5b60008083601f8401126108b0576108af61088b565b5b8235905067ffffffffffffffff8111156108cd576108cc610890565b5b6020830191508360208202830111156108e9576108e8610895565b5b9250929050565b600073ffffffffffffffffffffffffffffffffffffffff82169050919050565b600061091b826108f0565b9050919050565b61092b81610910565b811461093657600080fd5b50565b60008135905061094881610922565b92915050565b60008060008060008060a0878903121561096b5761096a61084b565b5b600061097989828a01610876565b965050602061098a89828a01610876565b955050604087013567ffffffffffffffff8111156109ab576109aa610850565b5b6109b789828a0161089a565b945094505060606109ca89828a01610939565b92505060806109db89828a01610876565b9150509295509295509295565b600081519050919050565b600082825260208201905092915050565b6000819050602082019050919050565b610a1d81610855565b82525050565b6000610a2f8383610a14565b60208301905092915050565b6000602082019050919050565b6000610a53826109e8565b610a5d81856109f3565b9350610a6883610a04565b8060005b83811015610a99578151610a808882610a23565b9750610a8b83610a3b565b925050600181019050610a6c565b5085935050505092915050565b60006020820190508181036000830152610ac08184610a48565b905092915050565b610ad181610855565b82525050565b6000602082019050610aec6000830184610ac8565b92915050565b600080600080600060808688031215610b0e57610b0d61084b565b5b6000610b1c88828901610876565b955050602086013567ffffffffffffffff811115610b3d57610b3c610850565b5b610b498882890161089a565b94509450506040610b5c88828901610939565b9250506060610b6d88828901610876565b9150509295509295909350565b6000601f19601f8301169050919050565b7f4e487b7100000000000000000000000000000000000000000000000000000000600052604160045260246000fd5b610bc382610b7a565b810181811067ffffffffffffffff82111715610be257610be1610b8b565b5b80604052505050565b6000610bf5610841565b9050610c018282610bba565b919050565b600067ffffffffffffffff821115610c2157610c20610b8b565b5b602082029050602081019050919050565b6000610c45610c4084610c06565b610beb565b90508083825260208201905060208402830185811115610c6857610c67610895565b5b835b81811015610c915780610c7d8882610939565b845260208401935050602081019050610c6a565b5050509392505050565b600082601f830112610cb057610caf61088b565b5b8135610cc0848260208601610c32565b91505092915050565b60008060408385031215610ce057610cdf61084b565b5b6000610cee85828601610876565b925050602083013567ffffffffffffffff811115610d0f57610d0e610850565b5b610d1b85828601610c9b565b9150509250929050565b7f4e487b7100000000000000000000000000000000000000000000000000000000600052603260045260246000fd5b7f4e487b7100000000000000000000000000000000000000000000000000000000600052601160045260246000fd5b6000610d8e82610855565b9150610d9983610855565b9250828202610da781610855565b91508282048414831517610dbe57610dbd610d54565b5b5092915050565b7f4e487b7100000000000000000000000000000000000000000000000000000000600052601260045260246000fd5b6000610dff82610855565b9150610e0a83610855565b925082610e1a57610e19610dc5565b5b828204905092915050565b600060208284031215610e3b57610e3a61084b565b5b6000610e4984828501610939565b91505092915050565b6000610e5d82610855565b9150610e6883610855565b9250828203905081811115610e8057610e7f610d54565b5b92915050565b610e8f81610910565b82525050565b6000606082019050610eaa6000830186610e86565b610eb76020830185610e86565b610ec46040830184610ac8565b949350505050565b60008115159050919050565b610ee181610ecc565b8114610eec57600080fd5b50565b600081519050610efe81610ed8565b92915050565b600060208284031215610f1a57610f1961084b565b5b6000610f2884828501610eef565b91505092915050565b6000604082019050610f466000830185610e86565b610f536020830184610ac8565b939250505056fea26469706673582212204a24423ea5f233ea4c89e5b1784a8358db58b136fc1af5ae7321067732527e5c64736f6c63430008140033",
  "linkReferences": {},
  "deployedLinkReferences": {}
}