{"contracts/MockRouterHardhat.sol":{"MockRouterHardhat":{"abi":[{"inputs":[{"internalType":"uint256","name":"_multiplier","type":"uint256"},{"internalType":"uint256","name":"_divisor","type":"uint256"}],"stateMutability":"nonpayable","type":"constructor"},{"inputs":[],"name":"MOCK_VALUE","outputs":[{"internalType":"uint256","name":"","type":"uint256"}],"stateMutability":"view","type":"function"},{"inputs":[{"internalType":"uint256","name":"amountIn","type":"uint256"},{"internalType":"address[]","name":"","type":"address[]"}],"name":"getAmountsOut","outputs":[{"internalType":"uint256[]","name":"amounts","type":"uint256[]"}],"stateMutability":"view","type":"function"},{"inputs":[{"internalType":"uint256","name":"amountOut","type":"uint256"},{"internalType":"address[]","name":"","type":"address[]"},{"internalType":"address","name":"","type":"address"},{"internalType":"uint256","name":"","type":"uint256"}],"name":"swapETHForExactTokens","outputs":[{"internalType":"uint256[]","name":"amounts","type":"uint256[]"}],"stateMutability":"payable","type":"function"},{"inputs":[{"internalType":"uint256","name":"","type":"uint256"},{"internalType":"address[]","name":"","type":"address[]"},{"internalType":"address","name":"","type":"address"},{"internalType":"uint256","name":"","type":"uint256"}],"name":"swapExactETHForTokens","outputs":[{"internalType":"uint256[]","name":"amounts","type":"uint256[]"}],"stateMutability":"payable","type":"function"},{"inputs":[{"internalType":"uint256","name":"amountIn","type":"uint256"},{"internalType":"uint256","name":"","type":"uint256"},{"internalType":"address[]","name":"","type":"address[]"},{"internalType":"address","name":"","type":"address"},{"internalType":"uint256","name":"","type":"uint256"}],"name":"swapExactTokensForETH","outputs":[{"internalType":"uint256[]","name":"amounts","type":"uint256[]"}],"stateMutability":"nonpayable","type":"function"},{"inputs":[{"internalType":"uint256","name":"amountIn","type":"uint256"},{"internalType":"uint256","name":"","type":"uint256"},{"internalType":"address[]","name":"path","type":"address[]"},{"internalType":"address","name":"to","type":"address"},{"internalType":"uint256","name":"","type":"uint256"}],"name":"swapExactTokensForTokens","outputs":[{"internalType":"uint256[]","name":"amounts","type":"uint256[]"}],"stateMutability":"nonpayable","type":"function"},{"inputs":[{"internalType":"uint256","name":"amountOut","type":"uint256"},{"internalType":"uint256","name":"amountInMax","type":"uint256"},{"internalType":"address[]","name":"","type":"address[]"},{"internalType":"address","name":"","type":"address"},{"internalType":"uint256","name":"","type":"uint256"}],"name":"swapTokensForExactETH","outputs":[{"internalType":"uint256[]","name":"amounts","type":"uint256[]"}],"stateMutability":"nonpayable","type":"function"},{"inputs":[{"internalType":"uint256","name":"amountOut","type":"uint256"},{"internalType":"uint256","name":"amountInMax","type":"uint256"},{"internalType":"address[]","name":"","type":"address[]"},{"internalType":"address","name":"","type":"address"},{"internalType":"uint256","name":"","type":"uint256"}],"name":"swapTokensForExactTokens","outputs":[{"internalType":"uint256[]","name":"amounts","type":"uint256[]"}],"stateMutability":"nonpayable","type":"function"}],"evm":{"bytecode":{"linkReferences":{},"object":"60806040523480156200001157600080fd5b50604051620010743803806200107483398181016040528101906200003791906200008d565b81600081905550806001819055505050620000d4565b600080fd5b6000819050919050565b620000678162000052565b81146200007357600080fd5b50565b60008151905062000087816200005c565b92915050565b60008060408385031215620000a757620000a66200004d565b5b6000620000b78582860162000076565b9250506020620000ca8582860162000076565b9150509250929050565b610f9080620000e46000396000f3fe60806040526004361061007b5760003560e01c80637ff36ab51161004e5780637ff36ab5146101625780638803dbee14610192578063d06ca61f146101cf578063fb3bdb411461020c5761007b565b806318cbafe51461008057806338ed1739146100bd578063409dffa6146100fa5780634a25d94a14610125575b600080fd5b34801561008c57600080fd5b506100a760048036038101906100a2919061094e565b61023c565b6040516100b49190610aa6565b60405180910390f35b3480156100c957600080fd5b506100e460048036038101906100df919061094e565b6102de565b6040516100f19190610aa6565b60405180910390f35b34801561010657600080fd5b5061010f610517565b60405161011c9190610ad7565b60405180910390f35b34801561013157600080fd5b5061014c6004803603810190610147919061094e565b610523565b6040516101599190610aa6565b60405180910390f35b61017c60048036038101906101779190610af2565b6105bd565b6040516101899190610aa6565b60405180910390f35b34801561019e57600080fd5b506101b960048036038101906101b4919061094e565b61065e565b6040516101c69190610aa6565b60405180910390f35b3480156101db57600080fd5b506101f660048036038101906101f19190610cc9565b6106f8565b6040516102039190610aa6565b60405180910390f35b61022660048036038101906102219190610af2565b6107a8565b6040516102339190610aa6565b60405180910390f35b6060600267ffffffffffffffff81111561025957610258610b8b565b5b6040519080825280602002602001820160405280156102875781602001602082028036833780820191505090505b509050868160008151811061029f5761029e610d25565b5b602002602001018181525050670de0b6b3a7640000816001815181106102c8576102c7610d25565b5b6020026020010181815250509695505050505050565b6060600267ffffffffffffffff8111156102fb576102fa610b8b565b5b6040519080825280602002602001820160405280156103295781602001602082028036833780820191505090505b509050868160008151811061034157610340610d25565b5b6020026020010181815250506001546000548861035e9190610d83565b6103689190610df4565b8160018151811061037c5761037b610d25565b5b60200260200101818152505060008585600081811061039e5761039d610d25565b5b90506020020160208101906103b39190610e25565b9050600086866001898990506103c99190610e52565b8181106103d9576103d8610d25565b5b90506020020160208101906103ee9190610e25565b90508173ffffffffffffffffffffffffffffffffffffffff166323b872dd33308c6040518463ffffffff1660e01b815260040161042d93929190610e95565b6020604051808303816000875af115801561044c573d6000803e3d6000fd5b505050506040513d601f19601f820116820180604052508101906104709190610f04565b508073ffffffffffffffffffffffffffffffffffffffff1663a9059cbb86856001815181106104a2576104a1610d25565b5b60200260200101516040518363ffffffff1660e01b81526004016104c7929190610f31565b6020604051808303816000875af11580156104e6573d6000803e3d6000fd5b505050506040513d601f19601f8201168201806040525081019061050a9190610f04565b5050509695505050505050565b670de0b6b3a764000081565b6060600267ffffffffffffffff8111156105405761053f610b8b565b5b60405190808252806020026020018201604052801561056e5781602001602082028036833780820191505090505b509050858160008151811061058657610585610d25565b5b60200260200101818152505086816001815181106105a7576105a6610d25565b5b6020026020010181815250509695505050505050565b6060600267ffffffffffffffff8111156105da576105d9610b8b565b5b6040519080825280602002602001820160405280156106085781602001602082028036833780820191505090505b50905034816000815181106106205761061f610d25565b5b602002602001018181525050670de0b6b3a76400008160018151811061064957610648610d25565b5b60200260200101818152505095945050505050565b6060600267ffffffffffffffff81111561067b5761067a610b8b565b5b6040519080825280602002602001820160405280156106a95781602001602082028036833780820191505090505b50905085816000815181106106c1576106c0610d25565b5b60200260200101818152505086816001815181106106e2576106e1610d25565b5b6020026020010181815250509695505050505050565b6060600267ffffffffffffffff81111561071557610714610b8b565b5b6040519080825280602002602001820160405280156107435781602001602082028036833780820191505090505b509050828160008151811061075b5761075a610d25565b5b602002602001018181525050600154600054846107789190610d83565b6107829190610df4565b8160018151811061079657610795610d25565b5b60200260200101818152505092915050565b6060600267ffffffffffffffff8111156107c5576107c4610b8b565b5b6040519080825280602002602001820160405280156107f35781602001602082028036833780820191505090505b509050348160008151811061080b5761080a610d25565b5b602002602001018181525050858160018151811061082c5761082b610d25565b5b60200260200101818152505095945050505050565b6000604051905090565b600080fd5b600080fd5b6000819050919050565b61086881610855565b811461087357600080fd5b50565b6000813590506108858161085f565b92915050565b600080fd5b600080fd5b600080fd5b60008083601f8401126108b0576108af61088b565b5b8235905067ffffffffffffffff8111156108cd576108cc610890565b5b6020830191508360208202830111156108e9576108e8610895565b5b9250929050565b600073ffffffffffffffffffffffffffffffffffffffff82169050919050565b600061091b826108f0565b9050919050565b61092b81610910565b811461093657600080fd5b50565b60008135905061094881610922565b92915050565b60008060008060008060a0878903121561096b5761096a61084b565b5b600061097989828a01610876565b965050602061098a89828a01610876565b955050604087013567ffffffffffffffff8111156109ab576109aa610850565b5b6109b789828a0161089a565b945094505060606109ca89828a01610939565b92505060806109db89828a01610876565b9150509295509295509295565b600081519050919050565b600082825260208201905092915050565b6000819050602082019050919050565b610a1d81610855565b82525050565b6000610a2f8383610a14565b60208301905092915050565b6000602082019050919050565b6000610a53826109e8565b610a5d81856109f3565b9350610a6883610a04565b8060005b83811015610a99578151610a808882610a23565b9750610a8b83610a3b565b925050600181019050610a6c565b5085935050505092915050565b60006020820190508181036000830152610ac08184610a48565b905092915050565b610ad181610855565b82525050565b6000602082019050610aec6000830184610ac8565b92915050565b600080600080600060808688031215610b0e57610b0d61084b565b5b6000610b1c88828901610876565b955050602086013567ffffffffffffffff811115610b3d57610b3c610850565b5b610b498882890161089a565b94509450506040610b5c88828901610939565b9250506060610b6d88828901610876565b9150509295509295909350565b6000601f19601f8301169050919050565b7f4e487b7100000000000000000000000000000000000000000000000000000000600052604160045260246000fd5b610bc382610b7a565b810181811067ffffffffffffffff82111715610be257610be1610b8b565b5b80604052505050565b6000610bf5610841565b9050610c018282610bba565b919050565b600067ffffffffffffffff821115610c2157610c20610b8b565b5b602082029050602081019050919050565b6000610c45610c4084610c06565b610beb565b90508083825260208201905060208402830185811115610c6857610c67610895565b5b835b81811015610c915780610c7d8882610939565b845260208401935050602081019050610c6a565b5050509392505050565b600082601f830112610cb057610caf61088b565b5b8135610cc0848260208601610c32565b91505092915050565b60008060408385031215610ce057610cdf61084b565b5b6000610cee85828601610876565b925050602083013567ffffffffffffffff811115610d0f57610d0e610850565b5b610d1b85828601610c9b565b9150509250929050565b7f4e487b7100000000000000000000000000000000000000000000000000000000600052603260045260246000fd5b7f4e487b7100000000000000000000000000000000000000000000000000000000600052601160045260246000fd5b6000610d8e82610855565b9150610d9983610855565b9250828202610da781610855565b91508282048414831517610dbe57610dbd610d54565b5b5092915050565b7f4e487b7100000000000000000000000000000000000000000000000000000000600052601260045260246000fd5b6000610dff82610855565b9150610e0a83610855565b925082610e1a57610e19610dc5565b5b828204905092915050565b600060208284031215610e3b57610e3a61084b565b5b6000610e4984828501610939565b91505092915050565b6000610e5d82610855565b9150610e6883610855565b9250828203905081811115610e8057610e7f610d54565b5b92915050565b610e8f81610910565b82525050565b6000606082019050610eaa6000830186610e86565b610eb76020830185610e86565b610ec46040830184610ac8565b949350505050565b60008115159050919050565b610ee181610ecc565b8114610eec57600080fd5b50565b600081519050610efe81610ed8565b92915050565b600060208284031215610f1a57610f1961084b565b5b6000610f2884828501610eef565b91505092915050565b6000604082019050610f466000830185610e86565b610f536020830184610ac8565b939250505056fea26469706673582212204a24423ea5f233ea4c89e5b1784a8358db58b136fc1af5ae7321067732527e5c64736f6c63430008140033","opcodes":"PUSH1 0x80 PUSH1 0x40 MSTORE CALLVALUE DUP1 ISZERO PUSH3 0x11 JUMPI PUSH1 0x0 DUP1 REVERT JUMPDEST POP PUSH1 0x40 MLOAD PUSH3 0x1074 CODESIZE SUB DUP1 PUSH3 0x1074 DUP4 CODECOPY DUP2 DUP2 ADD PUSH1 0x40 MSTORE DUP2 ADD SWAP1 PUSH3 0x37 SWAP2 SWAP1 PUSH3 0x8D JUMP JUMPDEST DUP2 PUSH1 0x0 DUP2 SWAP1 SSTORE POP DUP1 PUSH1 0x1 DUP2 SWAP1 SSTORE POP POP POP PUSH3 0xD4 JUMP JUMPDEST PUSH1 0x0 DUP1 REVERT JUMPDEST PUSH1 0x0 DUP2 SWAP1 POP SWAP2 SWAP1 POP JUMP JUMPDEST PUSH3 0x67 DUP2 PUSH3 0x52 JUMP JUMPDEST DUP2 EQ PUSH3 0x73 JUMPI PUSH1 0x0 DUP1 REVERT JUMPDEST POP JUMP JUMPDEST PUSH1 0x0 DUP2 MLOAD SWAP1 POP PUSH3 0x87 DUP2 PUSH3 0x5C JUMP JUMPDEST SWAP3 SWAP2 POP POP JUMP JUMPDEST PUSH1 0x0 DUP1 PUSH1 0x40 DUP4 DUP6 SUB SLT ISZERO PUSH3 0xA7 JUMPI PUSH3 0xA6 PUSH3 0x4D JUMP JUMPDEST JUMPDEST PUSH1 0x0 PUSH3 0xB7 DUP6 DUP3 DUP7 ADD PUSH3 0x76 JUMP JUMPDEST SWAP3 POP POP PUSH1 0x20 PUSH3 0xCA DUP6 DUP3 DUP7 ADD PUSH3 0x76 JUMP JUMPDEST SWAP2 POP POP SWAP3 POP SWAP3 SWAP1 POP JUMP JUMPDEST PUSH2 0xF90 DUP1 PUSH3 0xE4 PUSH1 0x0 CODECOPY PUSH1 0x0 RETURN INVALID PUSH1 0x80 PUSH1 0x40 MSTORE PUSH1 0x4 CALLDATASIZE LT PUSH2 0x7B JUMPI PUSH1 0x0 CALLDATALOAD PUSH1 0xE0 SHR DUP1 PUSH4 0x7FF36AB5 GT PUSH2 0x4E JUMPI DUP1 PUSH4 0x7FF36AB5 EQ PUSH2 0x162 JUMPI DUP1 PUSH4 0x8803DBEE EQ PUSH2 0x192 JUMPI DUP1 PUSH4 0xD06CA61F EQ PUSH2 0x1CF JUMPI DUP1 PUSH4 0xFB3BDB41 EQ PUSH2 0x20C JUMPI PUSH2 0x7B JUMP JUMPDEST DUP1 PUSH4 0x18CBAFE5 EQ PUSH2 0x80 JUMPI DUP1 PUSH4 0x38ED1739 EQ PUSH2 0xBD JUMPI DUP1 PUSH4 0x409DFFA6 EQ PUSH2 0xFA JUMPI DUP1 PUSH4 0x4A25D94A EQ PUSH2 0x125 JUMPI JUMPDEST PUSH1 0x0 DUP1 REVERT JUMPDEST CALLVALUE DUP1 ISZERO PUSH2 0x8C JUMPI PUSH1 0x0 DUP1 REVERT JUMPDEST POP PUSH2 0xA7 PUSH1 0x4 DUP1 CALLDATASIZE SUB DUP2 ADD SWAP1 PUSH2 0xA2 SWAP2 SWAP1 PUSH2 0x94E JUMP JUMPDEST PUSH2 0x23C JUMP JUMPDEST PUSH1 0x40 MLOAD PUSH2 0xB4 SWAP2 SWAP1 PUSH2 0xAA6 JUMP JUMPDEST PUSH1 0x40 MLOAD DUP1 SWAP2 SUB SWAP1 RETURN JUMPDEST CALLVALUE DUP1 ISZERO PUSH2 0xC9 JUMPI PUSH1 0x0 DUP1 REVERT JUMPDEST POP PUSH2 0xE4 PUSH1 0x4 DUP1 CALLDATASIZE SUB DUP2 ADD SWAP1 PUSH2 0xDF SWAP2 SWAP1 PUSH2 0x94E JUMP JUMPDEST PUSH2 0x2DE JUMP JUMPDEST PUSH1 0x40 MLOAD PUSH2 0xF1 SWAP2 SWAP1 PUSH2 0xAA6 JUMP JUMPDEST PUSH1 0x40 MLOAD DUP1 SWAP2 SUB SWAP1 RETURN JUMPDEST CALLVALUE DUP1 ISZERO PUSH2 0x106 JUMPI PUSH1 0x0 DUP1 REVERT JUMPDEST POP PUSH2 0x10F PUSH2 0x517 JUMP JUMPDEST PUSH1 0x40 MLOAD PUSH2 0x11C SWAP2 SWAP1 PUSH2 0xAD7 JUMP JUMPDEST PUSH1 0x40 MLOAD DUP1 SWAP2 SUB SWAP1 RETURN JUMPDEST CALLVALUE DUP1 ISZERO PUSH2 0x131 JUMPI PUSH1 0x0 DUP1 REVERT JUMPDEST POP PUSH2 0x14C PUSH1 0x4 DUP1 CALLDATASIZE SUB DUP2 ADD SWAP1 PUSH2 0x147 SWAP2 SWAP1 PUSH2 0x94E JUMP JUMPDEST PUSH2 0x523 JUMP JUMPDEST PUSH1 0x40 MLOAD PUSH2 0x159 SWAP2 SWAP1 PUSH2 0xAA6 JUMP JUMPDEST PUSH1 0x40 MLOAD DUP1 SWAP2 SUB SWAP1 RETURN JUMPDEST PUSH2 0x17C PUSH1 0x4 DUP1 CALLDATASIZE SUB DUP2 ADD SWAP1 PUSH2 0x177 SWAP2 SWAP1 PUSH2 0xAF2 JUMP JUMPDEST PUSH2 0x5BD JUMP JUMPDEST PUSH1 0x40 MLOAD PUSH2 0x189 SWAP2 SWAP1 PUSH2 0xAA6 JUMP JUMPDEST PUSH1 0x40 MLOAD DUP1 SWAP2 SUB SWAP1 RETURN JUMPDEST CALLVALUE DUP1 ISZERO PUSH2 0x19E JUMPI PUSH1 0x0 DUP1 REVERT JUMPDEST POP PUSH2 0x1B9 PUSH1 0x4 DUP1 CALLDATASIZE SUB DUP2 ADD SWAP1 PUSH2 0x1B4 SWAP2 SWAP1 PUSH2 0x94E JUMP JUMPDEST PUSH2 0x65E JUMP JUMPDEST PUSH1 0x40 MLOAD PUSH2 0x1C6 SWAP2 SWAP1 PUSH2 0xAA6 JUMP JUMPDEST PUSH1 0x40 MLOAD DUP1 SWAP2 SUB SWAP1 RETURN JUMPDEST CALLVALUE DUP1 ISZERO PUSH2 0x1DB JUMPI PUSH1 0x0 DUP1 REVERT JUMPDEST POP PUSH2 0x1F6 PUSH1 0x4 DUP1 CALLDATASIZE SUB DUP2 ADD SWAP1 PUSH2 0x1F1 SWAP2 SWAP1 PUSH2 0xCC9 JUMP JUMPDEST PUSH2 0x6F8 JUMP JUMPDEST PUSH1 0x40 MLOAD PUSH2 0x203 SWAP2 SWAP1 PUSH2 0xAA6 JUMP JUMPDEST PUSH1 0x40 MLOAD DUP1 SWAP2 SUB SWAP1 RETURN JUMPDEST PUSH2 0x226 PUSH1 0x4 DUP1 CALLDATASIZE SUB DUP2 ADD SWAP1 PUSH2 0x221 SWAP2 SWAP1 PUSH2 0xAF2 JUMP JUMPDEST PUSH2 0x7A8 JUMP JUMPDEST PUSH1 0x40 MLOAD PUSH2 0x233 SWAP2 SWAP1 PUSH2 0xAA6 JUMP JUMPDEST PUSH1 0x40 MLOAD DUP1 SWAP2 SUB SWAP1 RETURN JUMPDEST PUSH1 0x60 PUSH1 0x2 PUSH8 0xFFFFFFFFFFFFFFFF DUP2 GT ISZERO PUSH2 0x259 JUMPI PUSH2 0x258 PUSH2 0xB8B JUMP JUMPDEST JUMPDEST PUSH1 0x40 MLOAD SWAP1 DUP1 DUP3 MSTORE DUP1 PUSH1 0x20 MUL PUSH1 0x20 ADD DUP3 ADD PUSH1 0x40 MSTORE DUP1 ISZERO PUSH2 0x287 JUMPI DUP2 PUSH1 0x20 ADD PUSH1 0x20 DUP3 MUL DUP1 CALLDATASIZE DUP4 CALLDATACOPY DUP1 DUP3 ADD SWAP2 POP POP SWAP1 POP JUMPDEST POP SWAP1 POP DUP7 DUP2 PUSH1 0x0 DUP2 MLOAD DUP2 LT PUSH2 0x29F JUMPI PUSH2 0x29E PUSH2 0xD25 JUMP JUMPDEST JUMPDEST PUSH1 0x20 MUL PUSH1 0x20 ADD ADD DUP2 DUP2 MSTORE POP POP PUSH8 0xDE0B6B3A7640000 DUP2 PUSH1 0x1 DUP2 MLOAD DUP2 LT PUSH2 0x2C8 JUMPI PUSH2 0x2C7 PUSH2 0xD25 JUMP JUMPDEST JUMPDEST PUSH1 0x20 MUL PUSH1 0x20 ADD ADD DUP2 DUP2 MSTORE POP POP SWAP7 SWAP6 POP POP POP POP POP POP JUMP JUMPDEST PUSH1 0x60 PUSH1 0x2 PUSH8 0xFFFFFFFFFFFFFFFF DUP2 GT ISZERO PUSH2 0x2FB JUMPI PUSH2 0x2FA PUSH2 0xB8B JUMP JUMPDEST JUMPDEST PUSH1 0x40 MLOAD SWAP1 DUP1 DUP3 MSTORE DUP1 PUSH1 0x20 MUL PUSH1 0x20 ADD DUP3 ADD PUSH1 0x40 MSTORE DUP1 ISZERO PUSH2 0x329 JUMPI DUP2 PUSH1 0x20 ADD PUSH1 0x20 DUP3 MUL DUP1 CALLDATASIZE DUP4 CALLDATACOPY DUP1 DUP3 ADD SWAP2 POP POP SWAP1 POP JUMPDEST POP SWAP1 POP DUP7 DUP2 PUSH1 0x0 DUP2 MLOAD DUP2 LT PUSH2 0x341 JUMPI PUSH2 0x340 PUSH2 0xD25 JUMP JUMPDEST JUMPDEST PUSH1 0x20 MUL PUSH1 0x20 ADD ADD DUP2 DUP2 MSTORE POP POP PUSH1 0x1 SLOAD PUSH1 0x0 SLOAD DUP9 PUSH2 0x35E SWAP2 SWAP1 PUSH2 0xD83 JUMP JUMPDEST PUSH2 0x368 SWAP2 SWAP1 PUSH2 0xDF4 JUMP JUMPDEST DUP2 PUSH1 0x1 DUP2 MLOAD DUP2 LT PUSH2 0x37C JUMPI PUSH2 0x37B PUSH2 0xD25 JUMP JUMPDEST JUMPDEST PUSH1 0x20 MUL PUSH1 0x20 ADD ADD DUP2 DUP2 MSTORE POP POP PUSH1 0x0 DUP6 DUP6 PUSH1 0x0 DUP2 DUP2 LT PUSH2 0x39E JUMPI PUSH2 0x39D PUSH2 0xD25 JUMP JUMPDEST JUMPDEST SWAP1 POP PUSH1 0x20 MUL ADD PUSH1 0x20 DUP2 ADD SWAP1 PUSH2 0x3B3 SWAP2 SWAP1 PUSH2 0xE25 JUMP JUMPDEST SWAP1 POP PUSH1 0x0 DUP7 DUP7 PUSH1 0x1 DUP10 DUP10 SWAP1 POP PUSH2 0x3C9 SWAP2 SWAP1 PUSH2 0xE52 JUMP JUMPDEST DUP2 DUP2 LT PUSH2 0x3D9 JUMPI PUSH2 0x3D8 PUSH2 0xD25 JUMP JUMPDEST JUMPDEST SWAP1 POP PUSH1 0x20 MUL ADD PUSH1 0x20 DUP2 ADD SWAP1 PUSH2 0x3EE SWAP2 SWAP1 PUSH2 0xE25 JUMP JUMPDEST SWAP1 POP DUP2 PUSH20 0xFFFFFFFFFFFFFFFFFFFFFFFFFFFFFFFFFFFFFFFF AND PUSH4 0x23B872DD CALLER ADDRESS DUP13 PUSH1 0x40 MLOAD DUP5 PUSH4 0xFFFFFFFF AND PUSH1 0xE0 SHL DUP2 MSTORE PUSH1 0x4 ADD PUSH2 0x42D SWAP4 SWAP3 SWAP2 SWAP1 PUSH2 0xE95 JUMP JUMPDEST PUSH1 0x20 PUSH1 0x40 MLOAD DUP1 DUP4 SUB DUP2 PUSH1 0x0 DUP8 GAS CALL ISZERO DUP1 ISZERO PUSH2 0x44C JUMPI RETURNDATASIZE PUSH1 0x0 DUP1 RETURNDATACOPY RETURNDATASIZE PUSH1 0x0 REVERT JUMPDEST POP POP POP POP PUSH1 0x40 MLOAD RETURNDATASIZE PUSH1 0x1F NOT PUSH1 0x1F DUP3 ADD AND DUP3 ADD DUP1 PUSH1 0x40 MSTORE POP DUP2 ADD SWAP1 PUSH2 0x470 SWAP2 SWAP1 PUSH2 0xF04 JUMP JUMPDEST POP DUP1 PUSH20 0xFFFFFFFFFFFFFFFFFFFFFFFFFFFFFFFFFFFFFFFF AND PUSH4 0xA9059CBB DUP7 DUP6 PUSH1 0x1 DUP2 MLOAD DUP2 LT PUSH2 0x4A2 JUMPI PUSH2 0x4A1 PUSH2 0xD25 JUMP JUMPDEST JUMPDEST PUSH1 0x20 MUL PUSH1 0x20 ADD ADD MLOAD PUSH1 0x40 MLOAD DUP4 PUSH4 0xFFFFFFFF AND PUSH1 0xE0 SHL DUP2 MSTORE PUSH1 0x4 ADD PUSH2 0x4C7 SWAP3 SWAP2 SWAP1 PUSH2 0xF31 JUMP JUMPDEST PUSH1 0x20 PUSH1 0x40 MLOAD DUP1 DUP4 SUB DUP2 PUSH1 0x0 DUP8 GAS CALL ISZERO DUP1 ISZERO PUSH2 0x4E6 JUMPI RETURNDATASIZE PUSH1 0x0 DUP1 RETURNDATACOPY RETURNDATASIZE PUSH1 0x0 REVERT JUMPDEST POP POP POP POP PUSH1 0x40 MLOAD RETURNDATASIZE PUSH1 0x1F NOT PUSH1 0x1F DUP3 ADD AND DUP3 ADD DUP1 PUSH1 0x40 MSTORE POP DUP2 ADD SWAP1 PUSH2 0x50A SWAP2 SWAP1 PUSH2 0xF04 JUMP JUMPDEST POP POP POP SWAP7 SWAP6 POP POP POP POP POP POP JUMP JUMPDEST PUSH8 0xDE0B6B3A7640000 DUP2 JUMP JUMPDEST PUSH1 0x60 PUSH1 0x2 PUSH8 0xFFFFFFFFFFFFFFFF DUP2 GT ISZERO PUSH2 0x540 JUMPI PUSH2 0x53F PUSH2 0xB8B JUMP JUMPDEST JUMPDEST PUSH1 0x40 MLOAD SWAP1 DUP1 DUP3 MSTORE DUP1 PUSH1 0x20 MUL PUSH1 0x20 ADD DUP3 ADD PUSH1 0x40 MSTORE DUP1 ISZERO PUSH2 0x56E JUMPI DUP2 PUSH1 0x20 ADD PUSH1 0x20 DUP3 MUL DUP1 CALLDATASIZE DUP4 CALLDATACOPY DUP1 DUP3 ADD SWAP2 POP POP SWAP1 POP JUMPDEST POP SWAP1 POP DUP6 DUP2 PUSH1 0x0 DUP2 MLOAD DUP2 LT PUSH2 0x586 JUMPI PUSH2 0x585 PUSH2 0xD25 JUMP JUMPDEST JUMPDEST PUSH1 0x20 MUL PUSH1 0x20 ADD ADD DUP2 DUP2 MSTORE POP POP DUP7 DUP2 PUSH1 0x1 DUP2 MLOAD DUP2 LT PUSH2 0x5A7 JUMPI PUSH2 0x5A6 PUSH2 0xD25 JUMP JUMPDEST JUMPDEST PUSH1 0x20 MUL PUSH1 0x20 ADD ADD DUP2 DUP2 MSTORE POP POP SWAP7 SWAP6 POP POP POP POP POP POP JUMP JUMPDEST PUSH1 0x60 PUSH1 0x2 PUSH8 0xFFFFFFFFFFFFFFFF DUP2 GT ISZERO PUSH2 0x5DA JUMPI PUSH2 0x5D9 PUSH2 0xB8B JUMP JUMPDEST JUMPDEST PUSH1 0x40 MLOAD SWAP1 DUP1 DUP3 MSTORE DUP1 PUSH1 0x20 MUL PUSH1 0x20 ADD DUP3 ADD PUSH1 0x40 MSTORE DUP1 ISZERO PUSH2 0x608 JUMPI DUP2 PUSH1 0x20 ADD PUSH1 0x20 DUP3 MUL DUP1 CALLDATASIZE DUP4 CALLDATACOPY DUP1 DUP3 ADD SWAP2 POP POP SWAP1 POP JUMPDEST POP SWAP1 POP CALLVALUE DUP2 PUSH1 0x0 DUP2 MLOAD DUP2 LT PUSH2 0x620 JUMPI PUSH2 0x61F PUSH2 0xD25 JUMP JUMPDEST JUMPDEST PUSH1 0x20 MUL PUSH1 0x20 ADD ADD DUP2 DUP2 MSTORE POP POP PUSH8 0xDE0B6B3A7640000 DUP2 PUSH1 0x1 DUP2 MLOAD DUP2 LT PUSH2 0x649 JUMPI PUSH2 0x648 PUSH2 0xD25 JUMP JUMPDEST JUMPDEST PUSH1 0x20 MUL PUSH1 0x20 ADD ADD DUP2 DUP2 MSTORE POP POP SWAP6 SWAP5 POP POP POP POP POP JUMP JUMPDEST PUSH1 0x60 PUSH1 0x2 PUSH8 0xFFFFFFFFFFFFFFFF DUP2 GT ISZERO PUSH2 0x67B JUMPI PUSH2 0x67A PUSH2 0xB8B JUMP JUMPDEST JUMPDEST PUSH1 0x40 MLOAD SWAP1 DUP1 DUP3 MSTORE DUP1 PUSH1 0x20 MUL PUSH1 0x20 ADD DUP3 ADD PUSH1 0x40 MSTORE DUP1 ISZERO PUSH2 0x6A9 JUMPI DUP2 PUSH1 0x20 ADD PUSH1 0x20 DUP3 MUL DUP1 CALLDATASIZE DUP4 CALLDATACOPY DUP1 DUP3 ADD SWAP2 POP POP SWAP1 POP JUMPDEST POP SWAP1 POP DUP6 DUP2 PUSH1 0x0 DUP2 MLOAD DUP2 LT PUSH2 0x6C1 JUMPI PUSH2 0x6C0 PUSH2 0xD25 JUMP JUMPDEST JUMPDEST PUSH1 0x20 MUL PUSH1 0x20 ADD ADD DUP2 DUP2 MSTORE POP POP DUP7 DUP2 PUSH1 0x1 DUP2 MLOAD DUP2 LT PUSH2 0x6E2 JUMPI PUSH2 0x6E1 PUSH2 0xD25 JUMP JUMPDEST JUMPDEST PUSH1 0x20 MUL PUSH1 0x20 ADD ADD DUP2 DUP2 MSTORE POP POP SWAP7 SWAP6 POP POP POP POP POP POP JUMP JUMPDEST PUSH1 0x60 PUSH1 0x2 PUSH8 0xFFFFFFFFFFFFFFFF DUP2 GT ISZERO PUSH2 0x715 JUMPI PUSH2 0x714 PUSH2 0xB8B JUMP JUMPDEST JUMPDEST PUSH1 0x40 MLOAD SWAP1 DUP1 DUP3 MSTORE DUP1 PUSH1 0x20 MUL PUSH1 0x20 ADD DUP3 ADD PUSH1 0x40 MSTORE DUP1 ISZERO PUSH2 0x743 JUMPI DUP2 PUSH1 0x20 ADD PUSH1 0x20 DUP3 MUL DUP1 CALLDATASIZE DUP4 CALLDATACOPY DUP1 DUP3 ADD SWAP2 POP POP SWAP1 POP JUMPDEST POP SWAP1 POP DUP3 DUP2 PUSH1 0x0 DUP2 MLOAD DUP2 LT PUSH2 0x75B JUMPI PUSH2 0x75A PUSH2 0xD25 JUMP JUMPDEST JUMPDEST PUSH1 0x20 MUL PUSH1 0x20 ADD ADD DUP2 DUP2 MSTORE POP POP PUSH1 0x1 SLOAD PUSH1 0x0 SLOAD DUP5 PUSH2 0x778 SWAP2 SWAP1 PUSH2 0xD83 JUMP JUMPDEST PUSH2 0x782 SWAP2 SWAP1 PUSH2 0xDF4 JUMP JUMPDEST DUP2 PUSH1 0x1 DUP2 MLOAD DUP2 LT PUSH2 0x796 JUMPI PUSH2 0x795 PUSH2 0xD25 JUMP JUMPDEST JUMPDEST PUSH1 0x20 MUL PUSH1 0x20 ADD ADD DUP2 DUP2 MSTORE POP POP SWAP3 SWAP2 POP POP JUMP JUMPDEST PUSH1 0x60 PUSH1 0x2 PUSH8 0xFFFFFFFFFFFFFFFF DUP2 GT ISZERO PUSH2 0x7C5 JUMPI PUSH2 0x7C4 PUSH2 0xB8B JUMP JUMPDEST JUMPDEST PUSH1 0x40 MLOAD SWAP1 DUP1 DUP3 MSTORE DUP1 PUSH1 0x20 MUL PUSH1 0x20 ADD DUP3 ADD PUSH1 0x40 MSTORE DUP1 ISZERO PUSH2 0x7F3 JUMPI DUP2 PUSH1 0x20 ADD PUSH1 0x20 DUP3 MUL DUP1 CALLDATASIZE DUP4 CALLDATACOPY DUP1 DUP3 ADD SWAP2 POP POP SWAP1 POP JUMPDEST POP SWAP1 POP CALLVALUE DUP2 PUSH1 0x0 DUP2 MLOAD DUP2 LT PUSH2 0x80B JUMPI PUSH2 0x80A PUSH2 0xD25 JUMP JUMPDEST JUMPDEST PUSH1 0x20 MUL PUSH1 0x20 ADD ADD DUP2 DUP2 MSTORE POP POP DUP6 DUP2 PUSH1 0x1 DUP2 MLOAD DUP2 LT PUSH2 0x82C JUMPI PUSH2 0x82B PUSH2 0xD25 JUMP JUMPDEST JUMPDEST PUSH1 0x20 MUL PUSH1 0x20 ADD ADD DUP2 DUP2 MSTORE POP POP SWAP6 SWAP5 POP POP POP POP POP JUMP JUMPDEST PUSH1 0x0 PUSH1 0x40 MLOAD SWAP1 POP SWAP1 JUMP JUMPDEST PUSH1 0x0 DUP1 REVERT JUMPDEST PUSH1 0x0 DUP1 REVERT JUMPDEST PUSH1 0x0 DUP2 SWAP1 POP SWAP2 SWAP1 POP JUMP JUMPDEST PUSH2 0x868 DUP2 PUSH2 0x855 JUMP JUMPDEST DUP2 EQ PUSH2 0x873 JUMPI PUSH1 0x0 DUP1 REVERT JUMPDEST POP JUMP JUMPDEST PUSH1 0x0 DUP2 CALLDATALOAD SWAP1 POP PUSH2 0x885 DUP2 PUSH2 0x85F JUMP JUMPDEST SWAP3 SWAP2 POP POP JUMP JUMPDEST PUSH1 0x0 DUP1 REVERT JUMPDEST PUSH1 0x0 DUP1 REVERT JUMPDEST PUSH1 0x0 DUP1 REVERT JUMPDEST PUSH1 0x0 DUP1 DUP4 PUSH1 0x1F DUP5 ADD SLT PUSH2 0x8B0 JUMPI PUSH2 0x8AF PUSH2 0x88B JUMP JUMPDEST JUMPDEST DUP3 CALLDATALOAD SWAP1 POP PUSH8 0xFFFFFFFFFFFFFFFF DUP2 GT ISZERO PUSH2 0x8CD JUMPI PUSH2 0x8CC PUSH2 0x890 JUMP JUMPDEST JUMPDEST PUSH1 0x20 DUP4 ADD SWAP2 POP DUP4 PUSH1 0x20 DUP3 MUL DUP4 ADD GT ISZERO PUSH2 0x8E9 JUMPI PUSH2 0x8E8 PUSH2 0x895 JUMP JUMPDEST JUMPDEST SWAP3 POP SWAP3 SWAP1 POP JUMP JUMPDEST PUSH1 0x0 PUSH20 0xFFFFFFFFFFFFFFFFFFFFFFFFFFFFFFFFFFFFFFFF DUP3 AND SWAP1 POP SWAP2 SWAP1 POP JUMP JUMPDEST PUSH1 0x0 PUSH2 0x91B DUP3 PUSH2 0x8F0 JUMP JUMPDEST SWAP1 POP SWAP2 SWAP1 POP JUMP JUMPDEST PUSH2 0x92B DUP2 PUSH2 0x910 JUMP JUMPDEST DUP2 EQ PUSH2 0x936 JUMPI PUSH1 0x0 DUP1 REVERT JUMPDEST POP JUMP JUMPDEST PUSH1 0x0 DUP2 CALLDATALOAD SWAP1 POP PUSH2 0x948 DUP2 PUSH2 0x922 JUMP JUMPDEST SWAP3 SWAP2 POP POP JUMP JUMPDEST PUSH1 0x0 DUP1 PUSH1 0x0 DUP1 PUSH1 0x0 DUP1 PUSH1 0xA0 DUP8 DUP10 SUB SLT ISZERO PUSH2 0x96B JUMPI PUSH2 0x96A PUSH2 0x84B JUMP JUMPDEST JUMPDEST PUSH1 0x0 PUSH2 0x979 DUP10 DUP3 DUP11 ADD PUSH2 0x876 JUMP JUMPDEST SWAP7 POP POP PUSH1 0x20 PUSH2 0x98A DUP10 DUP3 DUP11 ADD PUSH2 0x876 JUMP JUMPDEST SWAP6 POP POP PUSH1 0x40 DUP8 ADD CALLDATALOAD PUSH8 0xFFFFFFFFFFFFFFFF DUP2 GT ISZERO PUSH2 0x9AB JUMPI PUSH2 0x9AA PUSH2 0x850 JUMP JUMPDEST JUMPDEST PUSH2 0x9B7 DUP10 DUP3 DUP11 ADD PUSH2 0x89A JUMP JUMPDEST SWAP5 POP SWAP5 POP POP PUSH1 0x60 PUSH2 0x9CA DUP10 DUP3 DUP11 ADD PUSH2 0x939 JUMP JUMPDEST SWAP3 POP POP PUSH1 0x80 PUSH2 0x9DB DUP10 DUP3 DUP11 ADD PUSH2 0x876 JUMP JUMPDEST SWAP2 POP POP SWAP3 SWAP6 POP SWAP3 SWAP6 POP SWAP3 SWAP6 JUMP JUMPDEST PUSH1 0x0 DUP2 MLOAD SWAP1 POP SWAP2 SWAP1 POP JUMP JUMPDEST PUSH1 0x0 DUP3 DUP3 MSTORE PUSH1 0x20 DUP3 ADD SWAP1 POP SWAP3 SWAP2 POP POP JUMP JUMPDEST PUSH1 0x0 DUP2 SWAP1 POP PUSH1 0x20 DUP3 ADD SWAP1 POP SWAP2 SWAP1 POP JUMP JUMPDEST PUSH2 0xA1D DUP2 PUSH2 0x855 JUMP JUMPDEST DUP3 MSTORE POP POP JUMP JUMPDEST PUSH1 0x0 PUSH2 0xA2F DUP4 DUP4 PUSH2 0xA14 JUMP JUMPDEST PUSH1 0x20 DUP4 ADD SWAP1 POP SWAP3 SWAP2 POP POP JUMP JUMPDEST PUSH1 0x0 PUSH1 0x20 DUP3 ADD SWAP1 POP SWAP2 SWAP1 POP JUMP JUMPDEST PUSH1 0x0 PUSH2 0xA53 DUP3 PUSH2 0x9E8 JUMP JUMPDEST PUSH2 0xA5D DUP2 DUP6 PUSH2 0x9F3 JUMP JUMPDEST SWAP4 POP PUSH2 0xA68 DUP4 PUSH2 0xA04 JUMP JUMPDEST DUP1 PUSH1 0x0 JUMPDEST DUP4 DUP2 LT ISZERO PUSH2 0xA99 JUMPI DUP2 MLOAD PUSH2 0xA80 DUP9 DUP3 PUSH2 0xA23 JUMP JUMPDEST SWAP8 POP PUSH2 0xA8B DUP4 PUSH2 0xA3B JUMP JUMPDEST SWAP3 POP POP PUSH1 0x1 DUP2 ADD SWAP1 POP PUSH2 0xA6C JUMP JUMPDEST POP DUP6 SWAP4 POP POP POP POP SWAP3 SWAP2 POP POP JUMP JUMPDEST PUSH1 0x0 PUSH1 0x20 DUP3 ADD SWAP1 POP DUP2 DUP2 SUB PUSH1 0x0 DUP4 ADD MSTORE PUSH2 0xAC0 DUP2 DUP5 PUSH2 0xA48 JUMP JUMPDEST SWAP1 POP SWAP3 SWAP2 POP POP JUMP JUMPDEST PUSH2 0xAD1 DUP2 PUSH2 0x855 JUMP JUMPDEST DUP3 MSTORE POP POP JUMP JUMPDEST PUSH1 0x0 PUSH1 0x20 DUP3 ADD SWAP1 POP PUSH2 0xAEC PUSH1 0x0 DUP4 ADD DUP5 PUSH2 0xAC8 JUMP JUMPDEST SWAP3 SWAP2 POP POP JUMP JUMPDEST PUSH1 0x0 DUP1 PUSH1 0x0 DUP1 PUSH1 0x0 PUSH1 0x80 DUP7 DUP9 SUB SLT ISZERO PUSH2 0xB0E JUMPI PUSH2 0xB0D PUSH2 0x84B JUMP JUMPDEST JUMPDEST PUSH1 0x0 PUSH2 0xB1C DUP9 DUP3 DUP10 ADD PUSH2 0x876 JUMP JUMPDEST SWAP6 POP POP PUSH1 0x20 DUP7 ADD CALLDATALOAD PUSH8 0xFFFFFFFFFFFFFFFF DUP2 GT ISZERO PUSH2 0xB3D JUMPI PUSH2 0xB3C PUSH2 0x850 JUMP JUMPDEST JUMPDEST PUSH2 0xB49 DUP9 DUP3 DUP10 ADD PUSH2 0x89A JUMP JUMPDEST SWAP5 POP SWAP5 POP POP PUSH1 0x40 PUSH2 0xB5C DUP9 DUP3 DUP10 ADD PUSH2 0x939 JUMP JUMPDEST SWAP3 POP POP PUSH1 0x60 PUSH2 0xB6D DUP9 DUP3 DUP10 ADD PUSH2 0x876 JUMP JUMPDEST SWAP2 POP POP SWAP3 SWAP6 POP SWAP3 SWAP6 SWAP1 SWAP4 POP JUMP JUMPDEST PUSH1 0x0 PUSH1 0x1F NOT PUSH1 0x1F DUP4 ADD AND SWAP1 POP SWAP2 SWAP1 POP JUMP JUMPDEST PUSH32 0x4E487B7100000000000000000000000000000000000000000000000000000000 PUSH1 0x0 MSTORE PUSH1 0x41 PUSH1 0x4 MSTORE PUSH1 0x24 PUSH1 0x0 REVERT JUMPDEST PUSH2 0xBC3 DUP3 PUSH2 0xB7A JUMP JUMPDEST DUP2 ADD DUP2 DUP2 LT PUSH8 0xFFFFFFFFFFFFFFFF DUP3 GT OR ISZERO PUSH2 0xBE2 JUMPI PUSH2 0xBE1 PUSH2 0xB8B JUMP JUMPDEST JUMPDEST DUP1 PUSH1 0x40 MSTORE POP POP POP JUMP JUMPDEST PUSH1 0x0 PUSH2 0xBF5 PUSH2 0x841 JUMP JUMPDEST SWAP1 POP PUSH2 0xC01 DUP3 DUP3 PUSH2 0xBBA JUMP JUMPDEST SWAP2 SWAP1 POP JUMP JUMPDEST PUSH1 0x0 PUSH8 0xFFFFFFFFFFFFFFFF DUP3 GT ISZERO PUSH2 0xC21 JUMPI PUSH2 0xC20 PUSH2 0xB8B JUMP JUMPDEST JUMPDEST PUSH1 0x20 DUP3 MUL SWAP1 POP PUSH1 0x20 DUP2 ADD SWAP1 POP SWAP2 SWAP1 POP JUMP JUMPDEST PUSH1 0x0 PUSH2 0xC45 PUSH2 0xC40 DUP5 PUSH2 0xC06 JUMP JUMPDEST PUSH2 0xBEB JUMP JUMPDEST SWAP1 POP DUP1 DUP4 DUP3 MSTORE PUSH1 0x20 DUP3 ADD SWAP1 POP PUSH1 0x20 DUP5 MUL DUP4 ADD DUP6 DUP2 GT ISZERO PUSH2 0xC68 JUMPI PUSH2 0xC67 PUSH2 0x895 JUMP JUMPDEST JUMPDEST DUP4 JUMPDEST DUP2 DUP2 LT ISZERO PUSH2 0xC91 JUMPI DUP1 PUSH2 0xC7D DUP9 DUP3 PUSH2 0x939 JUMP JUMPDEST DUP5 MSTORE PUSH1 0x20 DUP5 ADD SWAP4 POP POP PUSH1 0x20 DUP2 ADD SWAP1 POP PUSH2 0xC6A JUMP JUMPDEST POP POP POP SWAP4 SWAP3 POP POP POP JUMP JUMPDEST PUSH1 0x0 DUP3 PUSH1 0x1F DUP4 ADD SLT PUSH2 0xCB0 JUMPI PUSH2 0xCAF PUSH2 0x88B JUMP JUMPDEST JUMPDEST DUP2 CALLDATALOAD PUSH2 0xCC0 DUP5 DUP3 PUSH1 0x20 DUP7 ADD PUSH2 0xC32 JUMP JUMPDEST SWAP2 POP POP SWAP3 SWAP2 POP POP JUMP JUMPDEST PUSH1 0x0 DUP1 PUSH1 0x40 DUP4 DUP6 SUB SLT ISZERO PUSH2 0xCE0 JUMPI PUSH2 0xCDF PUSH2 0x84B JUMP JUMPDEST JUMPDEST PUSH1 0x0 PUSH2 0xCEE DUP6 DUP3 DUP7 ADD PUSH2 0x876 JUMP JUMPDEST SWAP3 POP POP PUSH1 0x20 DUP4 ADD CALLDATALOAD PUSH8 0xFFFFFFFFFFFFFFFF DUP2 GT ISZERO PUSH2 0xD0F JUMPI PUSH2 0xD0E PUSH2 0x850 JUMP JUMPDEST JUMPDEST PUSH2 0xD1B DUP6 DUP3 DUP7 ADD PUSH2 0xC9B JUMP JUMPDEST SWAP2 POP POP SWAP3 POP SWAP3 SWAP1 POP JUMP JUMPDEST PUSH32 0x4E487B7100000000000000000000000000000000000000000000000000000000 PUSH1 0x0 MSTORE PUSH1 0x32 PUSH1 0x4 MSTORE PUSH1 0x24 PUSH1 0x0 REVERT JUMPDEST PUSH32 0x4E487B7100000000000000000000000000000000000000000000000000000000 PUSH1 0x0 MSTORE PUSH1 0x11 PUSH1 0x4 MSTORE PUSH1 0x24 PUSH1 0x0 REVERT JUMPDEST PUSH1 0x0 PUSH2 0xD8E DUP3 PUSH2 0x855 JUMP JUMPDEST SWAP2 POP PUSH2 0xD99 DUP4 PUSH2 0x855 JUMP JUMPDEST SWAP3 POP DUP3 DUP3 MUL PUSH2 0xDA7 DUP2 PUSH2 0x855 JUMP JUMPDEST SWAP2 POP DUP3 DUP3 DIV DUP5 EQ DUP4 ISZERO OR PUSH2 0xDBE JUMPI PUSH2 0xDBD PUSH2 0xD54 JUMP JUMPDEST JUMPDEST POP SWAP3 SWAP2 POP POP JUMP JUMPDEST PUSH32 0x4E487B7100000000000000000000000000000000000000000000000000000000 PUSH1 0x0 MSTORE PUSH1 0x12 PUSH1 0x4 MSTORE PUSH1 0x24 PUSH1 0x0 REVERT JUMPDEST PUSH1 0x0 PUSH2 0xDFF DUP3 PUSH2 0x855 JUMP JUMPDEST SWAP2 POP PUSH2 0xE0A DUP4 PUSH2 0x855 JUMP JUMPDEST SWAP3 POP DUP3 PUSH2 0xE1A JUMPI PUSH2 0xE19 PUSH2 0xDC5 JUMP JUMPDEST JUMPDEST DUP3 DUP3 DIV SWAP1 POP SWAP3 SWAP2 POP POP JUMP JUMPDEST PUSH1 0x0 PUSH1 0x20 DUP3 DUP5 SUB SLT ISZERO PUSH2 0xE3B JUMPI PUSH2 0xE3A PUSH2 0x84B JUMP JUMPDEST JUMPDEST PUSH1 0x0 PUSH2 0xE49 DUP5 DUP3 DUP6 ADD PUSH2 0x939 JUMP JUMPDEST SWAP2 POP POP SWAP3 SWAP2 POP POP JUMP JUMPDEST PUSH1 0x0 PUSH2 0xE5D DUP3 PUSH2 0x855 JUMP JUMPDEST SWAP2 POP PUSH2 0xE68 DUP4 PUSH2 0x855 JUMP JUMPDEST SWAP3 POP DUP3 DUP3 SUB SWAP1 POP DUP2 DUP2 GT ISZERO PUSH2 0xE80 JUMPI PUSH2 0xE7F PUSH2 0xD54 JUMP JUMPDEST JUMPDEST SWAP3 SWAP2 POP POP JUMP JUMPDEST PUSH2 0xE8F DUP2 PUSH2 0x910 JUMP JUMPDEST DUP3 MSTORE POP POP JUMP JUMPDEST PUSH1 0x0 PUSH1 0x60 DUP3 ADD SWAP1 POP PUSH2 0xEAA PUSH1 0x0 DUP4 ADD DUP7 PUSH2 0xE86 JUMP JUMPDEST PUSH2 0xEB7 PUSH1 0x20 DUP4 ADD DUP6 PUSH2 0xE86 JUMP JUMPDEST PUSH2 0xEC4 PUSH1 0x40 DUP4 ADD DUP5 PUSH2 0xAC8 JUMP JUMPDEST SWAP5 SWAP4 POP POP POP POP JUMP JUMPDEST PUSH1 0x0 DUP2 ISZERO ISZERO SWAP1 POP SWAP2 SWAP1 POP JUMP JUMPDEST PUSH2 0xEE1 DUP2 PUSH2 0xECC JUMP JUMPDEST DUP2 EQ PUSH2 0xEEC JUMPI PUSH1 0x0 DUP1 REVERT JUMPDEST POP JUMP JUMPDEST PUSH1 0x0 DUP2 MLOAD SWAP1 POP PUSH2 0xEFE DUP2 PUSH2 0xED8 JUMP JUMPDEST SWAP3 SWAP2 POP POP JUMP JUMPDEST PUSH1 0x0 PUSH1 0x20 DUP3 DUP5 SUB SLT ISZERO PUSH2 0xF1A JUMPI PUSH2 0xF19 PUSH2 0x84B JUMP JUMPDEST JUMPDEST PUSH1 0x0 PUSH2 0xF28 DUP5 DUP3 DUP6 ADD PUSH2 0xEEF JUMP JUMPDEST SWAP2 POP POP SWAP3 SWAP2 POP POP JUMP JUMPDEST PUSH1 0x0 PUSH1 0x40 DUP3 ADD SWAP1 POP PUSH2 0xF46 PUSH1 0x0 DUP4 ADD DUP6 PUSH2 0xE86 JUMP JUMPDEST PUSH2 0xF53 PUSH1 0x20 DUP4 ADD DUP5 PUSH2 0xAC8 JUMP JUMPDEST SWAP4 SWAP3 POP POP POP JUMP INVALID LOG2 PUSH5 0x6970667358 0x22 SLT KECCAK256 0x4A 0x24 TIMESTAMP RETURNDATACOPY 0xA5 CALLCODE CALLER 0xEA 0x4C DUP10 0xE5 0xB1 PUSH25 0x4A8358DB58B136FC1AF5AE7321067732527E5C64736F6C6343 STOP ADDMOD EQ STOP CALLER "},"methodIdentifiers":{"MOCK_VALUE()":"409dffa6","getAmountsOut(uint256,address[])":"d06ca61f","swapETHForExactTokens(uint256,address[],address,uint256)":"fb3bdb41","swapExactETHForTokens(uint256,address[],address,uint256)":"7ff36ab5","swapExactTokensForETH(uint256,uint256,address[],address,uint256)":"18cbafe5","swapExactTokensForTokens(uint256,uint256,address[],address,uint256)":"38ed1739","swapTokensForExactETH(uint256,uint256,address[],address,uint256)":"4a25d94a","swapTokensForExactTokens(uint256,uint256,address[],address,uint256)":"8803dbee"}}}}}