{"abi":[{"type":"constructor","inputs":[{"name":"_pool","type":"address","internalType":"address"}],"stateMutability":"nonpayable"},{"type":"function","name":"getACLAdmin","inputs":[],"outputs":[{"name":"","type":"address","internalType":"address"}],"stateMutability":"pure"},{"type":"function","name":"getACLManager","inputs":[],"outputs":[{"name":"","type":"address","internalType":"address"}],"stateMutability":"pure"},{"type":"function","name":"getAddress","inputs":[{"name":"id","type":"bytes32","internalType":"bytes32"}],"outputs":[{"name":"","type":"address","internalType":"address"}],"stateMutability":"view"},{"type":"function","name":"getMarketId","inputs":[],"outputs":[{"name":"","type":"string","internalType":"string"}],"stateMutability":"pure"},{"type":"function","name":"getPool","inputs":[],"outputs":[{"name":"","type":"address","internalType":"address"}],"stateMutability":"view"},{"type":"function","name":"getPoolConfigurator","inputs":[],"outputs":[{"name":"","type":"address","internalType":"address"}],"stateMutability":"pure"},{"type":"function","name":"getPoolDataProvider","inputs":[],"outputs":[{"name":"","type":"address","internalType":"address"}],"stateMutability":"pure"},{"type":"function","name":"getPriceOracle","inputs":[],"outputs":[{"name":"","type":"address","internalType":"address"}],"stateMutability":"pure"},{"type":"function","name":"getPriceOracleSentinel","inputs":[],"outputs":[{"name":"","type":"address","internalType":"address"}],"stateMutability":"pure"},{"type":"function","name":"pool","inputs":[],"outputs":[{"name":"","type":"address","internalType":"address"}],"stateMutability":"view"},{"type":"function","name":"setACLAdmin","inputs":[{"name":"","type":"address","internalType":"address"}],"outputs":[],"stateMutability":"pure"},{"type":"function","name":"setACLManager","inputs":[{"name":"","type":"address","internalType":"address"}],"outputs":[],"stateMutability":"pure"},{"type":"function","name":"setAddress","inputs":[{"name":"","type":"bytes32","internalType":"bytes32"},{"name":"","type":"address","internalType":"address"}],"outputs":[],"stateMutability":"pure"},{"type":"function","name":"setAddressAsProxy","inputs":[{"name":"","type":"bytes32","internalType":"bytes32"},{"name":"","type":"address","internalType":"address"}],"outputs":[],"stateMutability":"pure"},{"type":"function","name":"setMarketId","inputs":[{"name":"","type":"string","internalType":"string"}],"outputs":[],"stateMutability":"pure"},{"type":"function","name":"setPool","inputs":[{"name":"_pool","type":"address","internalType":"address"}],"outputs":[],"stateMutability":"nonpayable"},{"type":"function","name":"setPoolConfiguratorImpl","inputs":[{"name":"","type":"address","internalType":"address"}],"outputs":[],"stateMutability":"pure"},{"type":"function","name":"setPoolDataProvider","inputs":[{"name":"","type":"address","internalType":"address"}],"outputs":[],"stateMutability":"pure"},{"type":"function","name":"setPoolImpl","inputs":[{"name":"","type":"address","internalType":"address"}],"outputs":[],"stateMutability":"pure"},{"type":"function","name":"setPriceOracle","inputs":[{"name":"","type":"address","internalType":"address"}],"outputs":[],"stateMutability":"pure"},{"type":"function","name":"setPriceOracleSentinel","inputs":[{"name":"","type":"address","internalType":"address"}],"outputs":[],"stateMutability":"pure"},{"type":"event","name":"ACLAdminUpdated","inputs":[{"name":"oldAddress","type":"address","indexed":true,"internalType":"address"},{"name":"newAddress","type":"address","indexed":true,"internalType":"address"}],"anonymous":false},{"type":"event","name":"ACLManagerUpdated","inputs":[{"name":"oldAddress","type":"address","indexed":true,"internalType":"address"},{"name":"newAddress","type":"address","indexed":true,"internalType":"address"}],"anonymous":false},{"type":"event","name":"AddressSet","inputs":[{"name":"id","type":"bytes32","indexed":true,"internalType":"bytes32"},{"name":"oldAddress","type":"address","indexed":true,"internalType":"address"},{"name":"newAddress","type":"address","indexed":true,"internalType":"address"}],"anonymous":false},{"type":"event","name":"AddressSetAsProxy","inputs":[{"name":"id","type":"bytes32","indexed":true,"internalType":"bytes32"},{"name":"proxyAddress","type":"address","indexed":true,"internalType":"address"},{"name":"oldImplementationAddress","type":"address","indexed":false,"internalType":"address"},{"name":"newImplementationAddress","type":"address","indexed":true,"internalType":"address"}],"anonymous":false},{"type":"event","name":"MarketIdSet","inputs":[{"name":"oldMarketId","type":"string","indexed":true,"internalType":"string"},{"name":"newMarketId","type":"string","indexed":true,"internalType":"string"}],"anonymous":false},{"type":"event","name":"PoolConfiguratorUpdated","inputs":[{"name":"oldAddress","type":"address","indexed":true,"internalType":"address"},{"name":"newAddress","type":"address","indexed":true,"internalType":"address"}],"anonymous":false},{"type":"event","name":"PoolDataProviderUpdated","inputs":[{"name":"oldAddress","type":"address","indexed":true,"internalType":"address"},{"name":"newAddress","type":"address","indexed":true,"internalType":"address"}],"anonymous":false},{"type":"event","name":"PoolUpdated","inputs":[{"name":"oldAddress","type":"address","indexed":true,"internalType":"address"},{"name":"newAddress","type":"address","indexed":true,"internalType":"address"}],"anonymous":false},{"type":"event","name":"PriceOracleSentinelUpdated","inputs":[{"name":"oldAddress","type":"address","indexed":true,"internalType":"address"},{"name":"newAddress","type":"address","indexed":true,"internalType":"address"}],"anonymous":false},{"type":"event","name":"PriceOracleUpdated","inputs":[{"name":"oldAddress","type":"address","indexed":true,"internalType":"address"},{"name":"newAddress","type":"address","indexed":true,"internalType":"address"}],"anonymous":false},{"type":"event","name":"ProxyCreated","inputs":[{"name":"id","type":"bytes32","indexed":true,"internalType":"bytes32"},{"name":"proxyAddress","type":"address","indexed":true,"internalType":"address"},{"name":"implementationAddress","type":"address","indexed":true,"internalType":"address"}],"anonymous":false}],"bytecode":{"object":"0x60803461007357601f61042738819003918201601f19168301916001600160401b038311848410176100775780849260209460405283398101031261007357516001600160a01b03811690819003610073575f80546001600160a01b03191691909117905560405161039b908161008c8239f35b5f80fd5b634e487b7160e01b5f52604160045260245ffdfe608060408181526004361015610013575f80fd5b5f90813560e01c928363026b1d5f14610295575082630e67178c1461010857826316f0115b1461026f57826321f8a7211461023f5782634437152a14610209578263530e784f1461015d578263568ef47014610167575081635dcc528c146101625781635eb88d3d14610108578163631adfca14610108578163707cd7161461010857816374944cec1461015d57816376d84ffc1461015d578163a15644061461015d578163ca446dd914610162578163e44e9ed11461015d578163e4ca28b71461015d578163e860accb14610108578163ed301ca91461015d578163f67b18471461010d575063fca513a814610108575f80fd5b6102b9565b346101565760203660031901126101565760043567ffffffffffffffff808211610159573660238301121561015957816004013590811161015957369101602401116101565780f35b80fd5b8280fd5b6102ed565b610308565b34610205578160031936011261020557805181810181811067ffffffffffffffff8211176101f1578252600b81526020906a1b5bd8dacb5b585c9ad95d60aa1b8282015282519382859384528251928382860152825b8481106101db57505050828201840152601f01601f19168101030190f35b81810183015188820188015287955082016101bd565b634e487b7160e01b84526041600452602484fd5b5080fd5b5034610156576020366003190112610156576001600160a01b0361022b6102d7565b82546001600160a01b031916911617815580f35b346102055760203660031901126102055760209061025e60043561032d565b90516001600160a01b039091168152f35b34610205578160031936011261020557905490516001600160a01b039091168152602090f35b90503461020557816003193601126102055790546001600160a01b03168152602090f35b346102d3575f3660031901126102d35760206040515f8152f35b5f80fd5b600435906001600160a01b03821682036102d357565b346102d35760203660031901126102d3576103066102d7565b005b346102d35760403660031901126102d3576024356001600160a01b038116036102d357005b7f5d5c2d2522b7f6ec8d1c86f44956b9ecd4376b1842cd263d54a5368aa149486d14610357575f90565b5f546001600160a01b03169056fea2646970667358221220c60628c000b29f665ecf44ffaf155929ead189a6f8bce16620011befcc60410564736f6c63430008140033","linkReferences":{}},"methodIdentifiers":{"getACLAdmin()":"0e67178c","getACLManager()":"707cd716","getAddress(bytes32)":"21f8a721","getMarketId()":"568ef470","getPool()":"026b1d5f","getPoolConfigurator()":"631adfca","getPoolDataProvider()":"e860accb","getPriceOracle()":"fca513a8","getPriceOracleSentinel()":"5eb88d3d","pool()":"16f0115b","setACLAdmin(address)":"76d84ffc","setACLManager(address)":"ed301ca9","setAddress(bytes32,address)":"ca446dd9","setAddressAsProxy(bytes32,address)":"5dcc528c","setMarketId(string)":"f67b1847","setPool(address)":"4437152a","setPoolConfiguratorImpl(address)":"e4ca28b7","setPoolDataProvider(address)":"e44e9ed1","setPoolImpl(address)":"a1564406","setPriceOracle(address)":"530e784f","setPriceOracleSentinel(address)":"74944cec"},"id":4}