{"abi":[{"type":"constructor","inputs":[{"name":"_pool","type":"address","internalType":"address"}],"stateMutability":"nonpayable"},{"type":"function","name":"getACLAdmin","inputs":[],"outputs":[{"name":"","type":"address","internalType":"address"}],"stateMutability":"pure"},{"type":"function","name":"getACLManager","inputs":[],"outputs":[{"name":"","type":"address","internalType":"address"}],"stateMutability":"pure"},{"type":"function","name":"getAddress","inputs":[{"name":"id","type":"bytes32","internalType":"bytes32"}],"outputs":[{"name":"","type":"address","internalType":"address"}],"stateMutability":"view"},{"type":"function","name":"getMarketId","inputs":[],"outputs":[{"name":"","type":"string","internalType":"string"}],"stateMutability":"pure"},{"type":"function","name":"getPool","inputs":[],"outputs":[{"name":"","type":"address","internalType":"address"}],"stateMutability":"view"},{"type":"function","name":"getPoolConfigurator","inputs":[],"outputs":[{"name":"","type":"address","internalType":"address"}],"stateMutability":"pure"},{"type":"function","name":"getPoolDataProvider","inputs":[],"outputs":[{"name":"","type":"address","internalType":"address"}],"stateMutability":"pure"},{"type":"function","name":"getPriceOracle","inputs":[],"outputs":[{"name":"","type":"address","internalType":"address"}],"stateMutability":"pure"},{"type":"function","name":"getPriceOracleSentinel","inputs":[],"outputs":[{"name":"","type":"address","internalType":"address"}],"stateMutability":"pure"},{"type":"function","name":"pool","inputs":[],"outputs":[{"name":"","type":"address","internalType":"address"}],"stateMutability":"view"},{"type":"function","name":"setACLAdmin","inputs":[{"name":"","type":"address","internalType":"address"}],"outputs":[],"stateMutability":"pure"},{"type":"function","name":"setACLManager","inputs":[{"name":"","type":"address","internalType":"address"}],"outputs":[],"stateMutability":"pure"},{"type":"function","name":"setAddress","inputs":[{"name":"","type":"bytes32","internalType":"bytes32"},{"name":"","type":"address","internalType":"address"}],"outputs":[],"stateMutability":"pure"},{"type":"function","name":"setAddressAsProxy","inputs":[{"name":"","type":"bytes32","internalType":"bytes32"},{"name":"","type":"address","internalType":"address"}],"outputs":[],"stateMutability":"pure"},{"type":"function","name":"setMarketId","inputs":[{"name":"","type":"string","internalType":"string"}],"outputs":[],"stateMutability":"pure"},{"type":"function","name":"setPool","inputs":[{"name":"_pool","type":"address","internalType":"address"}],"outputs":[],"stateMutability":"nonpayable"},{"type":"function","name":"setPoolConfiguratorImpl","inputs":[{"name":"","type":"address","internalType":"address"}],"outputs":[],"stateMutability":"pure"},{"type":"function","name":"setPoolDataProvider","inputs":[{"name":"","type":"address","internalType":"address"}],"outputs":[],"stateMutability":"pure"},{"type":"function","name":"setPoolImpl","inputs":[{"name":"","type":"address","internalType":"address"}],"outputs":[],"stateMutability":"pure"},{"type":"function","name":"setPriceOracle","inputs":[{"name":"","type":"address","internalType":"address"}],"outputs":[],"stateMutability":"pure"},{"type":"function","name":"setPriceOracleSentinel","inputs":[{"name":"","type":"address","internalType":"address"}],"outputs":[],"stateMutability":"pure"},{"type":"event","name":"ACLAdminUpdated","inputs":[{"name":"oldAddress","type":"address","indexed":true,"internalType":"address"},{"name":"newAddress","type":"address","indexed":true,"internalType":"address"}],"anonymous":false},{"type":"event","name":"ACLManagerUpdated","inputs":[{"name":"oldAddress","type":"address","indexed":true,"internalType":"address"},{"name":"newAddress","type":"address","indexed":true,"internalType":"address"}],"anonymous":false},{"type":"event","name":"AddressSet","inputs":[{"name":"id","type":"bytes32","indexed":true,"internalType":"bytes32"},{"name":"oldAddress","type":"address","indexed":true,"internalType":"address"},{"name":"newAddress","type":"address","indexed":true,"internalType":"address"}],"anonymous":false},{"type":"event","name":"AddressSetAsProxy","inputs":[{"name":"id","type":"bytes32","indexed":true,"internalType":"bytes32"},{"name":"proxyAddress","type":"address","indexed":true,"internalType":"address"},{"name":"oldImplementationAddress","type":"address","indexed":false,"internalType":"address"},{"name":"newImplementationAddress","type":"address","indexed":true,"internalType":"address"}],"anonymous":false},{"type":"event","name":"MarketIdSet","inputs":[{"name":"oldMarketId","type":"string","indexed":true,"internalType":"string"},{"name":"newMarketId","type":"string","indexed":true,"internalType":"string"}],"anonymous":false},{"type":"event","name":"PoolConfiguratorUpdated","inputs":[{"name":"oldAddress","type":"address","indexed":true,"internalType":"address"},{"name":"newAddress","type":"address","indexed":true,"internalType":"address"}],"anonymous":false},{"type":"event","name":"PoolDataProviderUpdated","inputs":[{"name":"oldAddress","type":"address","indexed":true,"internalType":"address"},{"name":"newAddress","type":"address","indexed":true,"internalType":"address"}],"anonymous":false},{"type":"event","name":"PoolUpdated","inputs":[{"name":"oldAddress","type":"address","indexed":true,"internalType":"address"},{"name":"newAddress","type":"address","indexed":true,"internalType":"address"}],"anonymous":false},{"type":"event","name":"PriceOracleSentinelUpdated","inputs":[{"name":"oldAddress","type":"address","indexed":true,"internalType":"address"},{"name":"newAddress","type":"address","indexed":true,"internalType":"address"}],"anonymous":false},{"type":"event","name":"PriceOracleUpdated","inputs":[{"name":"oldAddress","type":"address","indexed":true,"internalType":"address"},{"name":"newAddress","type":"address","indexed":true,"internalType":"address"}],"anonymous":false},{"type":"event","name":"ProxyCreated","inputs":[{"name":"id","type":"bytes32","indexed":true,"internalType":"bytes32"},{"name":"proxyAddress","type":"address","indexed":true,"internalType":"address"},{"name":"implementationAddress","type":"address","indexed":true,"internalType":"address"}],"anonymous":false}],"bytecode":{"object":"0x60806040523461002f576100196100146100f4565b61018f565b610021610034565b610aa261019c8239610aa290f35b61003a565b60405190565b5f80fd5b601f801991011690565b634e487b7160e01b5f52604160045260245ffd5b906100669061003e565b810190811060018060401b0382111761007e57604052565b610048565b9061009661008f610034565b928361005c565b565b5f80fd5b60018060a01b031690565b6100b09061009c565b90565b6100bc816100a7565b036100c357565b5f80fd5b905051906100d4826100b3565b565b906020828203126100ef576100ec915f016100c7565b90565b610098565b610112610c3e8038038061010781610083565b9283398101906100d6565b90565b5f1b90565b9061012b60018060a01b0391610115565b9181191691161790565b90565b61014c6101476101519261009c565b610135565b61009c565b90565b61015d90610138565b90565b61016990610154565b90565b90565b9061018461017f61018b92610160565b61016c565b825461011a565b9055565b610199905f61016f565b56fe60806040526004361015610013575b6107b2565b61001d5f3561016c565b8063026b1d5f146101675780630e67178c1461016257806316f0115b1461015d57806321f8a721146101585780634437152a14610153578063530e784f1461014e578063568ef470146101495780635dcc528c146101445780635eb88d3d1461013f578063631adfca1461013a578063707cd7161461013557806374944cec1461013057806376d84ffc1461012b578063a156440614610126578063ca446dd914610121578063e44e9ed11461011c578063e4ca28b714610117578063e860accb14610112578063ed301ca91461010d578063f67b1847146101085763fca513a80361000e5761077d565b610750565b6106a3565b61066e565b610642565b610616565b6105e9565b6105bd565b610591565b610565565b610530565b6104fb565b6104c6565b610499565b610437565b6103a0565b61036d565b6102f2565b610275565b6101fd565b6101c8565b60e01c90565b60405190565b5f80fd5b5f80fd5b5f91031261018a57565b61017c565b60018060a01b031690565b6101a39061018f565b90565b6101af9061019a565b9052565b91906101c6905f602085019401906101a6565b565b346101f8576101d8366004610180565b6101f46101e36107e0565b6101eb610172565b918291826101b3565b0390f35b610178565b3461022d5761020d366004610180565b610229610218610823565b610220610172565b918291826101b3565b0390f35b610178565b1c90565b60018060a01b031690565b6102519060086102569302610232565b610236565b90565b906102649154610241565b90565b6102725f5f90610259565b90565b346102a557610285366004610180565b6102a1610290610267565b610298610172565b918291826101b3565b0390f35b610178565b5f80fd5b90565b6102ba816102ae565b036102c157565b5f80fd5b905035906102d2826102b1565b565b906020828203126102ed576102ea915f016102c5565b90565b61017c565b346103225761031e61030d6103083660046102d4565b610838565b610315610172565b918291826101b3565b0390f35b610178565b6103308161019a565b0361033757565b5f80fd5b9050359061034882610327565b565b9060208282031261036357610360915f0161033b565b90565b61017c565b5f0190565b3461039b5761038561038036600461034a565b610907565b61038d610172565b8061039781610368565b0390f35b610178565b346103c7576103b036600461034a565b506103b9610172565b806103c381610368565b0390f35b610178565b5190565b60209181520190565b90825f9392825e0152565b601f801991011690565b61040d61041660209361041b93610404816103cc565b938480936103d0565b958691016103d9565b6103e4565b0190565b6104349160208201915f8184039101526103ee565b90565b3461046757610447366004610180565b6104636104526109ef565b61045a610172565b9182918261041f565b0390f35b610178565b91906040838203126104945780610488610491925f86016102c5565b9360200161033b565b90565b61017c565b346104c1576104a936600461046c565b50506104b3610172565b806104bd81610368565b0390f35b610178565b346104f6576104d6366004610180565b6104f26104e1610a03565b6104e9610172565b918291826101b3565b0390f35b610178565b3461052b5761050b366004610180565b610527610516610a18565b61051e610172565b918291826101b3565b0390f35b610178565b3461056057610540366004610180565b61055c61054b610a2d565b610553610172565b918291826101b3565b0390f35b610178565b3461058c5761057536600461034a565b5061057e610172565b8061058881610368565b0390f35b610178565b346105b8576105a136600461034a565b506105aa610172565b806105b481610368565b0390f35b610178565b346105e4576105cd36600461034a565b506105d6610172565b806105e081610368565b0390f35b610178565b34610611576105f936600461046c565b5050610603610172565b8061060d81610368565b0390f35b610178565b3461063d5761062636600461034a565b5061062f610172565b8061063981610368565b0390f35b610178565b346106695761065236600461034a565b5061065b610172565b8061066581610368565b0390f35b610178565b3461069e5761067e366004610180565b61069a610689610a42565b610691610172565b918291826101b3565b0390f35b610178565b346106ca576106b336600461034a565b506106bc610172565b806106c681610368565b0390f35b610178565b5f80fd5b5f80fd5b5f80fd5b909182601f830112156107155781359167ffffffffffffffff831161071057602001926001830284011161070b57565b6106d7565b6106d3565b6106cf565b9060208282031261074b575f82013567ffffffffffffffff81116107465761074292016106db565b9091565b6102aa565b61017c565b346107785761076036600461071a565b505061076a610172565b8061077481610368565b0390f35b610178565b346107ad5761078d366004610180565b6107a9610798610a57565b6107a0610172565b918291826101b3565b0390f35b610178565b5f80fd5b5f90565b5f1c90565b6107cb6107d0916107ba565b610236565b90565b6107dd90546107bf565b90565b6107e86107b6565b506107f25f6107d3565b90565b90565b90565b61080f61080a610814926107f5565b6107f8565b61018f565b90565b610820906107fb565b90565b61082b6107b6565b506108355f610817565b90565b6108406107b6565b5061087361086d7f5d5c2d2522b7f6ec8d1c86f44956b9ecd4376b1842cd263d54a5368aa149486d6102ae565b916102ae565b14610884576108815f610817565b90565b61088d5f6107d3565b90565b5f1b90565b906108a660018060a01b0391610890565b9181191691161790565b6108c46108bf6108c99261018f565b6107f8565b61018f565b90565b6108d5906108b0565b90565b6108e1906108cc565b90565b90565b906108fc6108f7610903926108d8565b6108e4565b8254610895565b9055565b610911905f6108e7565b565b606090565b634e487b7160e01b5f52604160045260245ffd5b90610936906103e4565b810190811067ffffffffffffffff82111761095057604052565b610918565b90610968610961610172565b928361092c565b565b67ffffffffffffffff8111610988576109846020916103e4565b0190565b610918565b9061099f61099a8361096a565b610955565b918252565b5f7f6d6f636b2d6d61726b6574000000000000000000000000000000000000000000910152565b6109d5600b61098d565b906109e2602083016109a4565b565b6109ec6109cb565b90565b6109f7610913565b50610a006109e4565b90565b610a0b6107b6565b50610a155f610817565b90565b610a206107b6565b50610a2a5f610817565b90565b610a356107b6565b50610a3f5f610817565b90565b610a4a6107b6565b50610a545f610817565b90565b610a5f6107b6565b50610a695f610817565b9056fea2646970667358221220f05d3f98b00bc0159fa53bb96fa0e953c0806c01b3187be5ade87ac2ae756db164736f6c634300081e0033","linkReferences":{}},"methodIdentifiers":{"getACLAdmin()":"0e67178c","getACLManager()":"707cd716","getAddress(bytes32)":"21f8a721","getMarketId()":"568ef470","getPool()":"026b1d5f","getPoolConfigurator()":"631adfca","getPoolDataProvider()":"e860accb","getPriceOracle()":"fca513a8","getPriceOracleSentinel()":"5eb88d3d","pool()":"16f0115b","setACLAdmin(address)":"76d84ffc","setACLManager(address)":"ed301ca9","setAddress(bytes32,address)":"ca446dd9","setAddressAsProxy(bytes32,address)":"5dcc528c","setMarketId(string)":"f67b1847","setPool(address)":"4437152a","setPoolConfiguratorImpl(address)":"e4ca28b7","setPoolDataProvider(address)":"e44e9ed1","setPoolImpl(address)":"a1564406","setPriceOracle(address)":"530e784f","setPriceOracleSentinel(address)":"74944cec"},"id":8}