{
  "_format": "hh-sol-artifact-1",
  "contractName": "ArbitrageBalancer",
  "sourceName": "contracts/ArbitrageBalancer.sol",
  "abi": [
    {
      "inputs": [
        {
          "internalType": "address",
          "name": "_vault",
          "type": "address"
        }
      ],
      "stateMutability": "nonpayable",
      "type": "constructor"
    },
    {
      "inputs": [],
      "name": "ReentrancyGuardReentrantCall",
      "type": "error"
    },
    {
      "anonymous": false,
      "inputs": [
        {
          "indexed": true,
          "internalType": "address",
          "name": "token",
          "type": "address"
        },
        {
          "indexed": false,
          "internalType": "uint256",
          "name": "loanAmount",
          "type": "uint256"
        },
        {
          "indexed": false,
          "internalType": "int256",
          "name": "netProfit",
          "type": "int256"
        }
      ],
      "name": "FlashLoanExecuted",
      "type": "event"
    },
    {
      "inputs": [],
      "name": "owner",
      "outputs": [
        {
          "internalType": "address",
          "name": "",
          "type": "address"
        }
      ],
      "stateMutability": "view",
      "type": "function"
    },
    {
      "inputs": [
        {
          "internalType": "address[]",
          "name": "tokens",
          "type": "address[]"
        },
        {
          "internalType": "uint256[]",
          "name": "amounts",
          "type": "uint256[]"
        },
        {
          "internalType": "uint256[]",
          "name": "feeAmounts",
          "type": "uint256[]"
        },
        {
          "internalType": "bytes",
          "name": "userData",
          "type": "bytes"
        }
      ],
      "name": "receiveFlashLoan",
      "outputs": [],
      "stateMutability": "nonpayable",
      "type": "function"
    },
    {
      "inputs": [
        {
          "internalType": "address",
          "name": "token",
          "type": "address"
        },
        {
          "internalType": "uint256",
          "name": "amount",
          "type": "uint256"
        },
        {
          "internalType": "bytes",
          "name": "userData",
          "type": "bytes"
        }
      ],
      "name": "startFlashloan",
      "outputs": [],
      "stateMutability": "nonpayable",
      "type": "function"
    },
    {
      "inputs": [],
      "name": "vault",
      "outputs": [
        {
          "internalType": "contract IVault",
          "name": "",
          "type": "address"
        }
      ],
      "stateMutability": "view",
      "type": "function"
    },
    {
      "inputs": [
        {
          "internalType": "address",
          "name": "tokenAddress",
          "type": "address"
        }
      ],
      "name": "withdraw",
      "outputs": [],
      "stateMutability": "nonpayable",
      "type": "function"
    }
  ],
  "bytecode": "0x60c06040523480156200001157600080fd5b5060405162001ce438038062001ce4833981810160405281019062000037919062000118565b60016000819055503373ffffffffffffffffffffffffffffffffffffffff1660808173ffffffffffffffffffffffffffffffffffffffff16815250508073ffffffffffffffffffffffffffffffffffffffff1660a08173ffffffffffffffffffffffffffffffffffffffff1681525050506200014a565b600080fd5b600073ffffffffffffffffffffffffffffffffffffffff82169050919050565b6000620000e082620000b3565b9050919050565b620000f281620000d3565b8114620000fe57600080fd5b50565b6000815190506200011281620000e7565b92915050565b600060208284031215620001315762000130620000ae565b5b6000620001418482850162000101565b91505092915050565b60805160a051611b44620001a0600039600081816104470152818161050e015281816109f70152610ba501526000818160ee01528181610224015281816102ad015281816104e20152610aaf0152611b446000f3fe608060405234801561001057600080fd5b50600436106100575760003560e01c806351cff8d91461005c5780638298a90d146100785780638da5cb5b14610094578063f04f2707146100b2578063fbfa77cf146100ce575b600080fd5b61007660048036038101906100719190610c89565b6100ec565b005b610092600480360381019061008d9190610d51565b6102ab565b005b61009c6104e0565b6040516100a99190610dd4565b60405180910390f35b6100cc60048036038101906100c79190610e9b565b610504565b005b6100d6610ba3565b6040516100e39190610fe3565b60405180910390f35b7f000000000000000000000000000000000000000000000000000000000000000073ffffffffffffffffffffffffffffffffffffffff163373ffffffffffffffffffffffffffffffffffffffff161461017a576040517f08c379a00000000000000000000000000000000000000000000000000000000081526004016101719061105b565b60405180910390fd5b600081905060008173ffffffffffffffffffffffffffffffffffffffff166370a08231306040518263ffffffff1660e01b81526004016101ba9190610dd4565b602060405180830381865afa1580156101d7573d6000803e3d6000fd5b505050506040513d601f19601f820116820180604052508101906101fb9190611090565b905060008111156102a6578173ffffffffffffffffffffffffffffffffffffffff1663a9059cbb7f0000000000000000000000000000000000000000000000000000000000000000836040518363ffffffff1660e01b81526004016102619291906110cc565b6020604051808303816000875af1158015610280573d6000803e3d6000fd5b505050506040513d601f19601f820116820180604052508101906102a4919061112d565b505b505050565b7f000000000000000000000000000000000000000000000000000000000000000073ffffffffffffffffffffffffffffffffffffffff163373ffffffffffffffffffffffffffffffffffffffff1614610339576040517f08c379a00000000000000000000000000000000000000000000000000000000081526004016103309061105b565b60405180910390fd5b6000600167ffffffffffffffff8111156103565761035561115a565b5b6040519080825280602002602001820160405280156103845781602001602082028036833780820191505090505b509050848160008151811061039c5761039b611189565b5b602002602001019073ffffffffffffffffffffffffffffffffffffffff16908173ffffffffffffffffffffffffffffffffffffffff16815250506000600167ffffffffffffffff8111156103f3576103f261115a565b5b6040519080825280602002602001820160405280156104215781602001602082028036833780820191505090505b509050848160008151811061043957610438611189565b5b6020026020010181815250507f000000000000000000000000000000000000000000000000000000000000000073ffffffffffffffffffffffffffffffffffffffff16635c38449e30848488886040518663ffffffff1660e01b81526004016104a6959493929190611392565b600060405180830381600087803b1580156104c057600080fd5b505af11580156104d4573d6000803e3d6000fd5b50505050505050505050565b7f000000000000000000000000000000000000000000000000000000000000000081565b61050c610bc7565b7f000000000000000000000000000000000000000000000000000000000000000073ffffffffffffffffffffffffffffffffffffffff163373ffffffffffffffffffffffffffffffffffffffff161461059a576040517f08c379a00000000000000000000000000000000000000000000000000000000081526004016105919061143a565b60405180910390fd5b600188889050146105e0576040517f08c379a00000000000000000000000000000000000000000000000000000000081526004016105d7906114a6565b60405180910390fd5b600080600080600080600088888101906105fa91906116f4565b965096509650965096509650965060008f8f600081811061061e5761061d611189565b5b90506020020160208101906106339190610c89565b905060008e8e600081811061064b5761064a611189565b5b90506020020135905060008d8d600081811061066a57610669611189565b5b9050602002013590506000818361068191906117fd565b90508373ffffffffffffffffffffffffffffffffffffffff1663095ea7b3896000815181106106b3576106b2611189565b5b6020026020010151856040518363ffffffff1660e01b81526004016106d99291906110cc565b6020604051808303816000875af11580156106f8573d6000803e3d6000fd5b505050506040513d601f19601f8201168201806040525081019061071c919061112d565b5060008860008151811061073357610732611189565b5b602002602001015173ffffffffffffffffffffffffffffffffffffffff166338ed17398560018b60008151811061076d5761076c611189565b5b602002602001015130426040518663ffffffff1660e01b815260040161079795949392919061186c565b6000604051808303816000875af11580156107b6573d6000803e3d6000fd5b505050506040513d6000823e3d601f19601f820116820180604052508101906107df9190611989565b9050600081600183516107f291906119d2565b8151811061080357610802611189565b5b602002602001015190508b73ffffffffffffffffffffffffffffffffffffffff1663095ea7b38b60018151811061083d5761083c611189565b5b6020026020010151836040518363ffffffff1660e01b81526004016108639291906110cc565b6020604051808303816000875af1158015610882573d6000803e3d6000fd5b505050506040513d601f19601f820116820180604052508101906108a6919061112d565b5060008a6001815181106108bd576108bc611189565b5b602002602001015173ffffffffffffffffffffffffffffffffffffffff166338ed173983868d6001815181106108f6576108f5611189565b5b602002602001015130426040518663ffffffff1660e01b8152600401610920959493929190611a06565b6000604051808303816000875af115801561093f573d6000803e3d6000fd5b505050506040513d6000823e3d601f19601f820116820180604052508101906109689190611989565b90506000816001835161097b91906119d2565b8151811061098c5761098b611189565b5b60200260200101519050848110156109d9576040517f08c379a00000000000000000000000000000000000000000000000000000000081526004016109d090611aac565b60405180910390fd5b8773ffffffffffffffffffffffffffffffffffffffff1663a9059cbb7f0000000000000000000000000000000000000000000000000000000000000000876040518363ffffffff1660e01b8152600401610a349291906110cc565b6020604051808303816000875af1158015610a53573d6000803e3d6000fd5b505050506040513d601f19601f82011682018060405250810190610a77919061112d565b5060008582610a8691906119d2565b90506000811115610b31578873ffffffffffffffffffffffffffffffffffffffff1663a9059cbb7f0000000000000000000000000000000000000000000000000000000000000000836040518363ffffffff1660e01b8152600401610aec9291906110cc565b6020604051808303816000875af1158015610b0b573d6000803e3d6000fd5b505050506040513d601f19601f82011682018060405250810190610b2f919061112d565b505b8873ffffffffffffffffffffffffffffffffffffffff167f1736d858cebb9f1fc945933505f6898d6f81e41ee20cfb09e7031c9a817240c68983604051610b79929190611ae5565b60405180910390a250505050505050505050505050505050610b99610c0d565b5050505050505050565b7f000000000000000000000000000000000000000000000000000000000000000081565b600260005403610c03576040517f3ee5aeb500000000000000000000000000000000000000000000000000000000815260040160405180910390fd5b6002600081905550565b6001600081905550565b6000604051905090565b600080fd5b600080fd5b600073ffffffffffffffffffffffffffffffffffffffff82169050919050565b6000610c5682610c2b565b9050919050565b610c6681610c4b565b8114610c7157600080fd5b50565b600081359050610c8381610c5d565b92915050565b600060208284031215610c9f57610c9e610c21565b5b6000610cad84828501610c74565b91505092915050565b6000819050919050565b610cc981610cb6565b8114610cd457600080fd5b50565b600081359050610ce681610cc0565b92915050565b600080fd5b600080fd5b600080fd5b60008083601f840112610d1157610d10610cec565b5b8235905067ffffffffffffffff811115610d2e57610d2d610cf1565b5b602083019150836001820283011115610d4a57610d49610cf6565b5b9250929050565b60008060008060608587031215610d6b57610d6a610c21565b5b6000610d7987828801610c74565b9450506020610d8a87828801610cd7565b935050604085013567ffffffffffffffff811115610dab57610daa610c26565b5b610db787828801610cfb565b925092505092959194509250565b610dce81610c4b565b82525050565b6000602082019050610de96000830184610dc5565b92915050565b60008083601f840112610e0557610e04610cec565b5b8235905067ffffffffffffffff811115610e2257610e21610cf1565b5b602083019150836020820283011115610e3e57610e3d610cf6565b5b9250929050565b60008083601f840112610e5b57610e5a610cec565b5b8235905067ffffffffffffffff811115610e7857610e77610cf1565b5b602083019150836020820283011115610e9457610e93610cf6565b5b9250929050565b6000806000806000806000806080898b031215610ebb57610eba610c21565b5b600089013567ffffffffffffffff811115610ed957610ed8610c26565b5b610ee58b828c01610def565b9850985050602089013567ffffffffffffffff811115610f0857610f07610c26565b5b610f148b828c01610e45565b9650965050604089013567ffffffffffffffff811115610f3757610f36610c26565b5b610f438b828c01610e45565b9450945050606089013567ffffffffffffffff811115610f6657610f65610c26565b5b610f728b828c01610cfb565b92509250509295985092959890939650565b6000819050919050565b6000610fa9610fa4610f9f84610c2b565b610f84565b610c2b565b9050919050565b6000610fbb82610f8e565b9050919050565b6000610fcd82610fb0565b9050919050565b610fdd81610fc2565b82525050565b6000602082019050610ff86000830184610fd4565b92915050565b600082825260208201905092915050565b7f6f6e6c79206f776e657200000000000000000000000000000000000000000000600082015250565b6000611045600a83610ffe565b91506110508261100f565b602082019050919050565b6000602082019050818103600083015261107481611038565b9050919050565b60008151905061108a81610cc0565b92915050565b6000602082840312156110a6576110a5610c21565b5b60006110b48482850161107b565b91505092915050565b6110c681610cb6565b82525050565b60006040820190506110e16000830185610dc5565b6110ee60208301846110bd565b9392505050565b60008115159050919050565b61110a816110f5565b811461111557600080fd5b50565b60008151905061112781611101565b92915050565b60006020828403121561114357611142610c21565b5b600061115184828501611118565b91505092915050565b7f4e487b7100000000000000000000000000000000000000000000000000000000600052604160045260246000fd5b7f4e487b7100000000000000000000000000000000000000000000000000000000600052603260045260246000fd5b600081519050919050565b600082825260208201905092915050565b6000819050602082019050919050565b6111ed81610c4b565b82525050565b60006111ff83836111e4565b60208301905092915050565b6000602082019050919050565b6000611223826111b8565b61122d81856111c3565b9350611238836111d4565b8060005b8381101561126957815161125088826111f3565b975061125b8361120b565b92505060018101905061123c565b5085935050505092915050565b600081519050919050565b600082825260208201905092915050565b6000819050602082019050919050565b6112ab81610cb6565b82525050565b60006112bd83836112a2565b60208301905092915050565b6000602082019050919050565b60006112e182611276565b6112eb8185611281565b93506112f683611292565b8060005b8381101561132757815161130e88826112b1565b9750611319836112c9565b9250506001810190506112fa565b5085935050505092915050565b600082825260208201905092915050565b82818337600083830152505050565b6000601f19601f8301169050919050565b60006113718385611334565b935061137e838584611345565b61138783611354565b840190509392505050565b60006080820190506113a76000830188610dc5565b81810360208301526113b98187611218565b905081810360408301526113cd81866112d6565b905081810360608301526113e2818486611365565b90509695505050505050565b7f6f6e6c79207661756c7400000000000000000000000000000000000000000000600082015250565b6000611424600a83610ffe565b915061142f826113ee565b602082019050919050565b6000602082019050818103600083015261145381611417565b9050919050565b7f6f6e6c792073696e676c6520746f6b656e20666c617368206c6f616e73000000600082015250565b6000611490601d83610ffe565b915061149b8261145a565b602082019050919050565b600060208201905081810360008301526114bf81611483565b9050919050565b60006114d182610c2b565b9050919050565b6114e1816114c6565b81146114ec57600080fd5b50565b6000813590506114fe816114d8565b92915050565b61150d82611354565b810181811067ffffffffffffffff8211171561152c5761152b61115a565b5b80604052505050565b600061153f610c17565b905061154b8282611504565b919050565b600067ffffffffffffffff82111561156b5761156a61115a565b5b602082029050602081019050919050565b600061158f61158a84611550565b611535565b905080838252602082019050602084028301858111156115b2576115b1610cf6565b5b835b818110156115db57806115c78882610c74565b8452602084019350506020810190506115b4565b5050509392505050565b600082601f8301126115fa576115f9610cec565b5b813561160a84826020860161157c565b91505092915050565b600067ffffffffffffffff82111561162e5761162d61115a565b5b602082029050602081019050919050565b600061165261164d84611613565b611535565b9050808382526020820190506020840283018581111561167557611674610cf6565b5b835b818110156116bc57803567ffffffffffffffff81111561169a57611699610cec565b5b8086016116a789826115e5565b85526020850194505050602081019050611677565b5050509392505050565b600082601f8301126116db576116da610cec565b5b81356116eb84826020860161163f565b91505092915050565b600080600080600080600060e0888a03121561171357611712610c21565b5b60006117218a828b016114ef565b97505060206117328a828b016114ef565b96505060406117438a828b016114ef565b955050606088013567ffffffffffffffff81111561176457611763610c26565b5b6117708a828b016115e5565b945050608088013567ffffffffffffffff81111561179157611790610c26565b5b61179d8a828b016116c6565b93505060a06117ae8a828b01610cd7565b92505060c06117bf8a828b01610cd7565b91505092959891949750929550565b7f4e487b7100000000000000000000000000000000000000000000000000000000600052601160045260246000fd5b600061180882610cb6565b915061181383610cb6565b925082820190508082111561182b5761182a6117ce565b5b92915050565b6000819050919050565b600061185661185161184c84611831565b610f84565b610cb6565b9050919050565b6118668161183b565b82525050565b600060a08201905061188160008301886110bd565b61188e602083018761185d565b81810360408301526118a08186611218565b90506118af6060830185610dc5565b6118bc60808301846110bd565b9695505050505050565b600067ffffffffffffffff8211156118e1576118e061115a565b5b602082029050602081019050919050565b6000611905611900846118c6565b611535565b9050808382526020820190506020840283018581111561192857611927610cf6565b5b835b81811015611951578061193d888261107b565b84526020840193505060208101905061192a565b5050509392505050565b600082601f8301126119705761196f610cec565b5b81516119808482602086016118f2565b91505092915050565b60006020828403121561199f5761199e610c21565b5b600082015167ffffffffffffffff8111156119bd576119bc610c26565b5b6119c98482850161195b565b91505092915050565b60006119dd82610cb6565b91506119e883610cb6565b9250828203905081811115611a00576119ff6117ce565b5b92915050565b600060a082019050611a1b60008301886110bd565b611a2860208301876110bd565b8181036040830152611a3a8186611218565b9050611a496060830185610dc5565b611a5660808301846110bd565b9695505050505050565b7f4e6f742070726f66697461626c65000000000000000000000000000000000000600082015250565b6000611a96600e83610ffe565b9150611aa182611a60565b602082019050919050565b60006020820190508181036000830152611ac581611a89565b9050919050565b6000819050919050565b611adf81611acc565b82525050565b6000604082019050611afa60008301856110bd565b611b076020830184611ad6565b939250505056fea264697066735822122002ddbcef1913f2a4fe35060b64d6577f95469b75d984035261709f2c4c182cc864736f6c63430008140033",
  "linkReferences": {},
  "deployedLinkReferences": {}
}