{"abi":[{"type":"constructor","inputs":[{"name":"_asset","type":"address","internalType":"address"}],"stateMutability":"nonpayable"},{"type":"function","name":"ADDRESSES_PROVIDER","inputs":[],"outputs":[{"name":"","type":"address","internalType":"contract IPoolAddressesProvider"}],"stateMutability":"pure"},{"type":"function","name":"BRIDGE_PROTOCOL_FEE","inputs":[],"outputs":[{"name":"","type":"uint256","internalType":"uint256"}],"stateMutability":"pure"},{"type":"function","name":"FLASHLOAN_PREMIUM_TOTAL","inputs":[],"outputs":[{"name":"","type":"uint128","internalType":"uint128"}],"stateMutability":"pure"},{"type":"function","name":"FLASHLOAN_PREMIUM_TO_PROTOCOL","inputs":[],"outputs":[{"name":"","type":"uint128","internalType":"uint128"}],"stateMutability":"pure"},{"type":"function","name":"MAX_NUMBER_RESERVES","inputs":[],"outputs":[{"name":"","type":"uint16","internalType":"uint16"}],"stateMutability":"pure"},{"type":"function","name":"MAX_STABLE_RATE_BORROW_SIZE_PERCENT","inputs":[],"outputs":[{"name":"","type":"uint256","internalType":"uint256"}],"stateMutability":"pure"},{"type":"function","name":"UNDERLYING_ASSET_ADDRESS","inputs":[],"outputs":[{"name":"","type":"address","internalType":"address"}],"stateMutability":"view"},{"type":"function","name":"backUnbacked","inputs":[{"name":"","type":"address","internalType":"address"},{"name":"","type":"uint256","internalType":"uint256"},{"name":"","type":"uint256","internalType":"uint256"}],"outputs":[{"name":"","type":"uint256","internalType":"uint256"}],"stateMutability":"pure"},{"type":"function","name":"borrow","inputs":[{"name":"","type":"address","internalType":"address"},{"name":"","type":"uint256","internalType":"uint256"},{"name":"","type":"uint256","internalType":"uint256"},{"name":"","type":"uint16","internalType":"uint16"},{"name":"","type":"address","internalType":"address"}],"outputs":[],"stateMutability":"pure"},{"type":"function","name":"configureEModeCategory","inputs":[{"name":"","type":"uint8","internalType":"uint8"},{"name":"","type":"tuple","internalType":"struct DataTypes.EModeCategory","components":[{"name":"ltv","type":"uint16","internalType":"uint16"},{"name":"liquidationThreshold","type":"uint16","internalType":"uint16"},{"name":"liquidationBonus","type":"uint16","internalType":"uint16"},{"name":"priceSource","type":"address","internalType":"address"},{"name":"label","type":"string","internalType":"string"}]}],"outputs":[],"stateMutability":"pure"},{"type":"function","name":"deposit","inputs":[{"name":"","type":"address","internalType":"address"},{"name":"","type":"uint256","internalType":"uint256"},{"name":"","type":"address","internalType":"address"},{"name":"","type":"uint16","internalType":"uint16"}],"outputs":[],"stateMutability":"pure"},{"type":"function","name":"dropReserve","inputs":[{"name":"","type":"address","internalType":"address"}],"outputs":[],"stateMutability":"pure"},{"type":"function","name":"finalizeTransfer","inputs":[{"name":"","type":"address","internalType":"address"},{"name":"","type":"address","internalType":"address"},{"name":"","type":"address","internalType":"address"},{"name":"","type":"uint256","internalType":"uint256"},{"name":"","type":"uint256","internalType":"uint256"},{"name":"","type":"uint256","internalType":"uint256"}],"outputs":[],"stateMutability":"pure"},{"type":"function","name":"flashLoan","inputs":[{"name":"","type":"address","internalType":"address"},{"name":"","type":"address[]","internalType":"address[]"},{"name":"","type":"uint256[]","internalType":"uint256[]"},{"name":"","type":"uint256[]","internalType":"uint256[]"},{"name":"","type":"address","internalType":"address"},{"name":"","type":"bytes","internalType":"bytes"},{"name":"","type":"uint16","internalType":"uint16"}],"outputs":[],"stateMutability":"pure"},{"type":"function","name":"flashLoanSimple","inputs":[{"name":"receiver","type":"address","internalType":"address"},{"name":"asset","type":"address","internalType":"address"},{"name":"amount","type":"uint256","internalType":"uint256"},{"name":"params","type":"bytes","internalType":"bytes"},{"name":"","type":"uint16","internalType":"uint16"}],"outputs":[],"stateMutability":"nonpayable"},{"type":"function","name":"getConfiguration","inputs":[{"name":"","type":"address","internalType":"address"}],"outputs":[{"name":"","type":"tuple","internalType":"struct DataTypes.ReserveConfigurationMap","components":[{"name":"data","type":"uint256","internalType":"uint256"}]}],"stateMutability":"pure"},{"type":"function","name":"getEModeCategoryData","inputs":[{"name":"","type":"uint8","internalType":"uint8"}],"outputs":[{"name":"","type":"tuple","internalType":"struct DataTypes.EModeCategory","components":[{"name":"ltv","type":"uint16","internalType":"uint16"},{"name":"liquidationThreshold","type":"uint16","internalType":"uint16"},{"name":"liquidationBonus","type":"uint16","internalType":"uint16"},{"name":"priceSource","type":"address","internalType":"address"},{"name":"label","type":"string","internalType":"string"}]}],"stateMutability":"pure"},{"type":"function","name":"getReserveAddressById","inputs":[{"name":"","type":"uint16","internalType":"uint16"}],"outputs":[{"name":"","type":"address","internalType":"address"}],"stateMutability":"pure"},{"type":"function","name":"getReserveData","inputs":[{"name":"","type":"address","internalType":"address"}],"outputs":[{"name":"","type":"tuple","internalType":"struct DataTypes.ReserveData","components":[{"name":"configuration","type":"tuple","internalType":"struct DataTypes.ReserveConfigurationMap","components":[{"name":"data","type":"uint256","internalType":"uint256"}]},{"name":"liquidityIndex","type":"uint128","internalType":"uint128"},{"name":"currentLiquidityRate","type":"uint128","internalType":"uint128"},{"name":"variableBorrowIndex","type":"uint128","internalType":"uint128"},{"name":"currentVariableBorrowRate","type":"uint128","internalType":"uint128"},{"name":"currentStableBorrowRate","type":"uint128","internalType":"uint128"},{"name":"lastUpdateTimestamp","type":"uint40","internalType":"uint40"},{"name":"id","type":"uint16","internalType":"uint16"},{"name":"aTokenAddress","type":"address","internalType":"address"},{"name":"stableDebtTokenAddress","type":"address","internalType":"address"},{"name":"variableDebtTokenAddress","type":"address","internalType":"address"},{"name":"interestRateStrategyAddress","type":"address","internalType":"address"},{"name":"accruedToTreasury","type":"uint128","internalType":"uint128"},{"name":"unbacked","type":"uint128","internalType":"uint128"},{"name":"isolationModeTotalDebt","type":"uint128","internalType":"uint128"}]}],"stateMutability":"pure"},{"type":"function","name":"getReserveNormalizedIncome","inputs":[{"name":"","type":"address","internalType":"address"}],"outputs":[{"name":"","type":"uint256","internalType":"uint256"}],"stateMutability":"pure"},{"type":"function","name":"getReserveNormalizedVariableDebt","inputs":[{"name":"","type":"address","internalType":"address"}],"outputs":[{"name":"","type":"uint256","internalType":"uint256"}],"stateMutability":"pure"},{"type":"function","name":"getReservesList","inputs":[],"outputs":[{"name":"","type":"address[]","internalType":"address[]"}],"stateMutability":"pure"},{"type":"function","name":"getUserAccountData","inputs":[{"name":"","type":"address","internalType":"address"}],"outputs":[{"name":"","type":"uint256","internalType":"uint256"},{"name":"","type":"uint256","internalType":"uint256"},{"name":"","type":"uint256","internalType":"uint256"},{"name":"","type":"uint256","internalType":"uint256"},{"name":"","type":"uint256","internalType":"uint256"},{"name":"","type":"uint256","internalType":"uint256"}],"stateMutability":"pure"},{"type":"function","name":"getUserConfiguration","inputs":[{"name":"","type":"address","internalType":"address"}],"outputs":[{"name":"","type":"tuple","internalType":"struct DataTypes.UserConfigurationMap","components":[{"name":"data","type":"uint256","internalType":"uint256"}]}],"stateMutability":"pure"},{"type":"function","name":"getUserEMode","inputs":[{"name":"","type":"address","internalType":"address"}],"outputs":[{"name":"","type":"uint256","internalType":"uint256"}],"stateMutability":"pure"},{"type":"function","name":"initReserve","inputs":[{"name":"","type":"address","internalType":"address"},{"name":"","type":"address","internalType":"address"},{"name":"","type":"address","internalType":"address"},{"name":"","type":"address","internalType":"address"},{"name":"","type":"address","internalType":"address"}],"outputs":[],"stateMutability":"pure"},{"type":"function","name":"liquidationCall","inputs":[{"name":"","type":"address","internalType":"address"},{"name":"","type":"address","internalType":"address"},{"name":"","type":"address","internalType":"address"},{"name":"","type":"uint256","internalType":"uint256"},{"name":"","type":"bool","internalType":"bool"}],"outputs":[],"stateMutability":"pure"},{"type":"function","name":"mintToTreasury","inputs":[{"name":"","type":"address[]","internalType":"address[]"}],"outputs":[],"stateMutability":"pure"},{"type":"function","name":"mintUnbacked","inputs":[{"name":"","type":"address","internalType":"address"},{"name":"","type":"uint256","internalType":"uint256"},{"name":"","type":"address","internalType":"address"},{"name":"","type":"uint16","internalType":"uint16"}],"outputs":[],"stateMutability":"pure"},{"type":"function","name":"rebalanceStableBorrowRate","inputs":[{"name":"","type":"address","internalType":"address"},{"name":"","type":"address","internalType":"address"}],"outputs":[],"stateMutability":"pure"},{"type":"function","name":"repay","inputs":[{"name":"","type":"address","internalType":"address"},{"name":"","type":"uint256","internalType":"uint256"},{"name":"","type":"uint256","internalType":"uint256"},{"name":"","type":"address","internalType":"address"}],"outputs":[{"name":"","type":"uint256","internalType":"uint256"}],"stateMutability":"pure"},{"type":"function","name":"repayWithATokens","inputs":[{"name":"","type":"address","internalType":"address"},{"name":"","type":"uint256","internalType":"uint256"},{"name":"","type":"uint256","internalType":"uint256"}],"outputs":[{"name":"","type":"uint256","internalType":"uint256"}],"stateMutability":"pure"},{"type":"function","name":"repayWithPermit","inputs":[{"name":"","type":"address","internalType":"address"},{"name":"","type":"uint256","internalType":"uint256"},{"name":"","type":"uint256","internalType":"uint256"},{"name":"","type":"address","internalType":"address"},{"name":"","type":"uint256","internalType":"uint256"},{"name":"","type":"uint8","internalType":"uint8"},{"name":"","type":"bytes32","internalType":"bytes32"},{"name":"","type":"bytes32","internalType":"bytes32"}],"outputs":[{"name":"","type":"uint256","internalType":"uint256"}],"stateMutability":"pure"},{"type":"function","name":"rescueTokens","inputs":[{"name":"","type":"address","internalType":"address"},{"name":"","type":"address","internalType":"address"},{"name":"","type":"uint256","internalType":"uint256"}],"outputs":[],"stateMutability":"pure"},{"type":"function","name":"resetIsolationModeTotalDebt","inputs":[{"name":"","type":"address","internalType":"address"}],"outputs":[],"stateMutability":"pure"},{"type":"function","name":"setConfiguration","inputs":[{"name":"","type":"address","internalType":"address"},{"name":"","type":"tuple","internalType":"struct DataTypes.ReserveConfigurationMap","components":[{"name":"data","type":"uint256","internalType":"uint256"}]}],"outputs":[],"stateMutability":"pure"},{"type":"function","name":"setReserveInterestRateStrategyAddress","inputs":[{"name":"","type":"address","internalType":"address"},{"name":"","type":"address","internalType":"address"}],"outputs":[],"stateMutability":"pure"},{"type":"function","name":"setUserEMode","inputs":[{"name":"","type":"uint8","internalType":"uint8"}],"outputs":[],"stateMutability":"pure"},{"type":"function","name":"setUserUseReserveAsCollateral","inputs":[{"name":"","type":"address","internalType":"address"},{"name":"","type":"bool","internalType":"bool"}],"outputs":[],"stateMutability":"pure"},{"type":"function","name":"supply","inputs":[{"name":"","type":"address","internalType":"address"},{"name":"","type":"uint256","internalType":"uint256"},{"name":"","type":"address","internalType":"address"},{"name":"","type":"uint16","internalType":"uint16"}],"outputs":[],"stateMutability":"pure"},{"type":"function","name":"supplyWithPermit","inputs":[{"name":"","type":"address","internalType":"address"},{"name":"","type":"uint256","internalType":"uint256"},{"name":"","type":"address","internalType":"address"},{"name":"","type":"uint16","internalType":"uint16"},{"name":"","type":"uint256","internalType":"uint256"},{"name":"","type":"uint8","internalType":"uint8"},{"name":"","type":"bytes32","internalType":"bytes32"},{"name":"","type":"bytes32","internalType":"bytes32"}],"outputs":[],"stateMutability":"pure"},{"type":"function","name":"swapBorrowRateMode","inputs":[{"name":"","type":"address","internalType":"address"},{"name":"","type":"uint256","internalType":"uint256"}],"outputs":[],"stateMutability":"pure"},{"type":"function","name":"updateBridgeProtocolFee","inputs":[{"name":"","type":"uint256","internalType":"uint256"}],"outputs":[],"stateMutability":"pure"},{"type":"function","name":"updateFlashloanPremiums","inputs":[{"name":"","type":"uint128","internalType":"uint128"},{"name":"","type":"uint128","internalType":"uint128"}],"outputs":[],"stateMutability":"pure"},{"type":"function","name":"withdraw","inputs":[{"name":"","type":"address","internalType":"address"},{"name":"","type":"uint256","internalType":"uint256"},{"name":"","type":"address","internalType":"address"}],"outputs":[{"name":"","type":"uint256","internalType":"uint256"}],"stateMutability":"pure"},{"type":"event","name":"BackUnbacked","inputs":[{"name":"reserve","type":"address","indexed":true,"internalType":"address"},{"name":"backer","type":"address","indexed":true,"internalType":"address"},{"name":"amount","type":"uint256","indexed":false,"internalType":"uint256"},{"name":"fee","type":"uint256","indexed":false,"internalType":"uint256"}],"anonymous":false},{"type":"event","name":"Borrow","inputs":[{"name":"reserve","type":"address","indexed":true,"internalType":"address"},{"name":"user","type":"address","indexed":false,"internalType":"address"},{"name":"onBehalfOf","type":"address","indexed":true,"internalType":"address"},{"name":"amount","type":"uint256","indexed":false,"internalType":"uint256"},{"name":"interestRateMode","type":"uint8","indexed":false,"internalType":"enum DataTypes.InterestRateMode"},{"name":"borrowRate","type":"uint256","indexed":false,"internalType":"uint256"},{"name":"referralCode","type":"uint16","indexed":true,"internalType":"uint16"}],"anonymous":false},{"type":"event","name":"FlashLoan","inputs":[{"name":"target","type":"address","indexed":true,"internalType":"address"},{"name":"initiator","type":"address","indexed":false,"internalType":"address"},{"name":"asset","type":"address","indexed":true,"internalType":"address"},{"name":"amount","type":"uint256","indexed":false,"internalType":"uint256"},{"name":"interestRateMode","type":"uint8","indexed":false,"internalType":"enum DataTypes.InterestRateMode"},{"name":"premium","type":"uint256","indexed":false,"internalType":"uint256"},{"name":"referralCode","type":"uint16","indexed":true,"internalType":"uint16"}],"anonymous":false},{"type":"event","name":"IsolationModeTotalDebtUpdated","inputs":[{"name":"asset","type":"address","indexed":true,"internalType":"address"},{"name":"totalDebt","type":"uint256","indexed":false,"internalType":"uint256"}],"anonymous":false},{"type":"event","name":"LiquidationCall","inputs":[{"name":"collateralAsset","type":"address","indexed":true,"internalType":"address"},{"name":"debtAsset","type":"address","indexed":true,"internalType":"address"},{"name":"user","type":"address","indexed":true,"internalType":"address"},{"name":"debtToCover","type":"uint256","indexed":false,"internalType":"uint256"},{"name":"liquidatedCollateralAmount","type":"uint256","indexed":false,"internalType":"uint256"},{"name":"liquidator","type":"address","indexed":false,"internalType":"address"},{"name":"receiveAToken","type":"bool","indexed":false,"internalType":"bool"}],"anonymous":false},{"type":"event","name":"MintUnbacked","inputs":[{"name":"reserve","type":"address","indexed":true,"internalType":"address"},{"name":"user","type":"address","indexed":false,"internalType":"address"},{"name":"onBehalfOf","type":"address","indexed":true,"internalType":"address"},{"name":"amount","type":"uint256","indexed":false,"internalType":"uint256"},{"name":"referralCode","type":"uint16","indexed":true,"internalType":"uint16"}],"anonymous":false},{"type":"event","name":"MintedToTreasury","inputs":[{"name":"reserve","type":"address","indexed":true,"internalType":"address"},{"name":"amountMinted","type":"uint256","indexed":false,"internalType":"uint256"}],"anonymous":false},{"type":"event","name":"RebalanceStableBorrowRate","inputs":[{"name":"reserve","type":"address","indexed":true,"internalType":"address"},{"name":"user","type":"address","indexed":true,"internalType":"address"}],"anonymous":false},{"type":"event","name":"Repay","inputs":[{"name":"reserve","type":"address","indexed":true,"internalType":"address"},{"name":"user","type":"address","indexed":true,"internalType":"address"},{"name":"repayer","type":"address","indexed":true,"internalType":"address"},{"name":"amount","type":"uint256","indexed":false,"internalType":"uint256"},{"name":"useATokens","type":"bool","indexed":false,"internalType":"bool"}],"anonymous":false},{"type":"event","name":"ReserveDataUpdated","inputs":[{"name":"reserve","type":"address","indexed":true,"internalType":"address"},{"name":"liquidityRate","type":"uint256","indexed":false,"internalType":"uint256"},{"name":"stableBorrowRate","type":"uint256","indexed":false,"internalType":"uint256"},{"name":"variableBorrowRate","type":"uint256","indexed":false,"internalType":"uint256"},{"name":"liquidityIndex","type":"uint256","indexed":false,"internalType":"uint256"},{"name":"variableBorrowIndex","type":"uint256","indexed":false,"internalType":"uint256"}],"anonymous":false},{"type":"event","name":"ReserveUsedAsCollateralDisabled","inputs":[{"name":"reserve","type":"address","indexed":true,"internalType":"address"},{"name":"user","type":"address","indexed":true,"internalType":"address"}],"anonymous":false},{"type":"event","name":"ReserveUsedAsCollateralEnabled","inputs":[{"name":"reserve","type":"address","indexed":true,"internalType":"address"},{"name":"user","type":"address","indexed":true,"internalType":"address"}],"anonymous":false},{"type":"event","name":"Supply","inputs":[{"name":"reserve","type":"address","indexed":true,"internalType":"address"},{"name":"user","type":"address","indexed":false,"internalType":"address"},{"name":"onBehalfOf","type":"address","indexed":true,"internalType":"address"},{"name":"amount","type":"uint256","indexed":false,"internalType":"uint256"},{"name":"referralCode","type":"uint16","indexed":true,"internalType":"uint16"}],"anonymous":false},{"type":"event","name":"SwapBorrowRateMode","inputs":[{"name":"reserve","type":"address","indexed":true,"internalType":"address"},{"name":"user","type":"address","indexed":true,"internalType":"address"},{"name":"interestRateMode","type":"uint8","indexed":false,"internalType":"enum DataTypes.InterestRateMode"}],"anonymous":false},{"type":"event","name":"UserEModeSet","inputs":[{"name":"user","type":"address","indexed":true,"internalType":"address"},{"name":"categoryId","type":"uint8","indexed":false,"internalType":"uint8"}],"anonymous":false},{"type":"event","name":"Withdraw","inputs":[{"name":"reserve","type":"address","indexed":true,"internalType":"address"},{"name":"user","type":"address","indexed":true,"internalType":"address"},{"name":"to","type":"address","indexed":true,"internalType":"address"},{"name":"amount","type":"uint256","indexed":false,"internalType":"uint256"}],"anonymous":false}],"bytecode":{"object":"0x60a06040523461003f57610019610014610104565b610125565b610021610044565b6129bd61012b8239608051818181611287015261220e01526129bd90f35b61004a565b60405190565b5f80fd5b601f801991011690565b634e487b7160e01b5f52604160045260245ffd5b906100769061004e565b810190811060018060401b0382111761008e57604052565b610058565b906100a661009f610044565b928361006c565b565b5f80fd5b60018060a01b031690565b6100c0906100ac565b90565b6100cc816100b7565b036100d357565b5f80fd5b905051906100e4826100c3565b565b906020828203126100ff576100fc915f016100d7565b90565b6100a8565b610122612ae88038038061011781610093565b9283398101906100e6565b90565b60805256fe60806040526004361015610013575b61197d565b61001d5f356102eb565b8062a718a9146102e657806302c205f0146102e15780630542975c146102dc578063074b2e43146102d75780631d2118f9146102d2578063272d9072146102cd57806328530a47146102c85780632dad97d4146102c35780633036b439146102be57806335ea6a75146102b9578063386497fd146102b457806342b0b77c146102af5780634417a583146102aa57806352751797146102a5578063573ade81146102a05780635a3b74b91461029b578063617ba0371461029657806363c9b8601461029157806369328dec1461028c57806369a933a5146102875780636a99c036146102825780636c6f6ae11461027d5780637a708e921461027857806394ba89a2146102735780639cd199961461026e578063a415bcad14610269578063ab9c4b5d14610264578063b16a19de1461025f578063bcb6e5221461025a578063bf92857c14610255578063c44b11f714610250578063cd1123821461024b578063cea9d26f14610246578063d15e005314610241578063d1946dbc1461023c578063d579ea7d14610237578063d5ed393314610232578063d65dc7a11461022d578063e43e88a114610228578063e82fec2f14610223578063e8eda9df1461021e578063eddf1b7914610219578063ee3e210b14610214578063f51e435b1461020f5763f8119d510361000e57611948565b6118f9565b61187a565b6117c4565b611795565b611760565b611734565b6116fe565b6116cd565b61163c565b6115ab565b6114e4565b6114b6565b61144f565b61141a565b6113b6565b61132e565b6112a9565b61124f565b611108565b611085565b610fe3565b610f86565b610efb565b610df7565b610dc8565b610d92565b610d2c565b610cfd565b610c8a565b610c24565b610ba9565b610b34565b610ad2565b6109e3565b6109ae565b6107d5565b610781565b61071b565b6106c8565b610679565b610617565b6105ab565b610510565b6103e6565b60e01c90565b60405190565b5f80fd5b5f80fd5b5f80fd5b60018060a01b031690565b61031790610303565b90565b6103238161030e565b0361032a57565b5f80fd5b9050359061033b8261031a565b565b90565b6103498161033d565b0361035057565b5f80fd5b9050359061036182610340565b565b151590565b61037181610363565b0361037857565b5f80fd5b9050359061038982610368565b565b919060a0838203126103dc576103a3815f850161032e565b926103b1826020830161032e565b926103d96103c2846040850161032e565b936103d08160608601610354565b9360800161037c565b90565b6102fb565b5f0190565b34610411576103f636600461038b565b50505050506104036102f1565b8061040d816103e1565b0390f35b6102f7565b61ffff1690565b61042681610416565b0361042d57565b5f80fd5b9050359061043e8261041d565b565b60ff1690565b61044f81610440565b0361045657565b5f80fd5b9050359061046782610446565b565b90565b61047581610469565b0361047c57565b5f80fd5b9050359061048d8261046c565b565b91906101008382031261050b576104a8815f850161032e565b926104b68260208301610354565b926104c4836040840161032e565b926104d28160608501610431565b926104e08260808301610354565b926105086104f18460a0850161045a565b936104ff8160c08601610480565b9360e001610480565b90565b6102fb565b3461053e5761052036600461048f565b50505050505050506105306102f1565b8061053a816103e1565b0390f35b6102f7565b5f91031261054d57565b6102fb565b90565b61056961056461056e92610303565b610552565b610303565b90565b61057a90610555565b90565b61058690610571565b90565b6105929061057d565b9052565b91906105a9905f60208501940190610589565b565b346105db576105bb366004610543565b6105d76105c66119c8565b6105ce6102f1565b91829182610596565b0390f35b6102f7565b6fffffffffffffffffffffffffffffffff1690565b6105fe906105e0565b9052565b9190610615905f602085019401906105f5565b565b3461064757610627366004610543565b610643610632611a05565b61063a6102f1565b91829182610602565b0390f35b6102f7565b91906040838203126106745780610668610671925f860161032e565b9360200161032e565b90565b6102fb565b346106a15761068936600461064c565b50506106936102f1565b8061069d816103e1565b0390f35b6102f7565b6106af9061033d565b9052565b91906106c6905f602085019401906106a6565b565b346106f8576106d8366004610543565b6106f46106e3611a3a565b6106eb6102f1565b918291826106b3565b0390f35b6102f7565b9060208282031261071657610713915f0161045a565b90565b6102fb565b346107425761072b3660046106fd565b506107346102f1565b8061073e816103e1565b0390f35b6102f7565b909160608284031261077c57610779610762845f850161032e565b936107708160208601610354565b93604001610354565b90565b6102fb565b346107b2576107ae61079d610797366004610747565b91611a4f565b6107a56102f1565b918291826106b3565b0390f35b6102f7565b906020828203126107d0576107cd915f01610354565b90565b6102fb565b346107fc576107e53660046107b7565b506107ee6102f1565b806107f8816103e1565b0390f35b6102f7565b9060208282031261081a57610817915f0161032e565b90565b6102fb565b6108289061033d565b9052565b905f8061083d93015191019061081f565b565b610848906105e0565b9052565b64ffffffffff1690565b61085f9061084c565b9052565b61086c90610416565b9052565b6108799061030e565b9052565b906101c080610996936108965f8201515f86019061082c565b6108a86020820151602086019061083f565b6108ba6040820151604086019061083f565b6108cc6060820151606086019061083f565b6108de6080820151608086019061083f565b6108f060a082015160a086019061083f565b61090260c082015160c0860190610856565b61091460e082015160e0860190610863565b610928610100820151610100860190610870565b61093c610120820151610120860190610870565b610950610140820151610140860190610870565b610964610160820151610160860190610870565b61097861018082015161018086019061083f565b61098c6101a08201516101a086019061083f565b015191019061083f565b565b91906109ac905f6101e0850194019061087d565b565b346109de576109da6109c96109c4366004610801565b611c81565b6109d16102f1565b91829182610998565b0390f35b6102f7565b34610a1357610a0f6109fe6109f9366004610801565b611e26565b610a066102f1565b918291826106b3565b0390f35b6102f7565b5f80fd5b5f80fd5b5f80fd5b909182601f83011215610a5e5781359167ffffffffffffffff8311610a59576020019260018302840111610a5457565b610a20565b610a1c565b610a18565b9160a083830312610acd57610a7a825f850161032e565b92610a88836020830161032e565b92610a968160408401610354565b92606083013567ffffffffffffffff8111610ac857610aba83610ac5928601610a24565b939094608001610431565b90565b6102ff565b6102fb565b34610b0757610af1610ae5366004610a63565b949390939291926121fc565b610af96102f1565b80610b03816103e1565b0390f35b6102f7565b905f80610b1d93015191019061081f565b565b9190610b32905f60208501940190610b0c565b565b34610b6457610b60610b4f610b4a366004610801565b61257e565b610b576102f1565b91829182610b1f565b0390f35b6102f7565b90602082820312610b8257610b7f915f01610431565b90565b6102fb565b610b909061030e565b9052565b9190610ba7905f60208501940190610b87565b565b34610bd957610bd5610bc4610bbf366004610b69565b6125ac565b610bcc6102f1565b91829182610b94565b0390f35b6102f7565b608081830312610c1f57610bf4825f830161032e565b92610c1c610c058460208501610354565b93610c138160408601610354565b9360600161032e565b90565b6102fb565b34610c5857610c54610c43610c3a366004610bde565b929190916125c2565b610c4b6102f1565b918291826106b3565b0390f35b6102f7565b9190604083820312610c855780610c79610c82925f860161032e565b9360200161037c565b90565b6102fb565b34610cb257610c9a366004610c5d565b5050610ca46102f1565b80610cae816103e1565b0390f35b6102f7565b608081830312610cf857610ccd825f830161032e565b92610cf5610cde8460208501610354565b93610cec816040860161032e565b93606001610431565b90565b6102fb565b34610d2757610d0d366004610cb7565b50505050610d196102f1565b80610d23816103e1565b0390f35b6102f7565b34610d5357610d3c366004610801565b50610d456102f1565b80610d4f816103e1565b0390f35b6102f7565b9091606082840312610d8d57610d8a610d73845f850161032e565b93610d818160208601610354565b9360400161032e565b90565b6102fb565b34610dc357610dbf610dae610da8366004610d58565b916125db565b610db66102f1565b918291826106b3565b0390f35b6102f7565b34610df257610dd8366004610cb7565b50505050610de46102f1565b80610dee816103e1565b0390f35b6102f7565b34610e2757610e07366004610543565b610e23610e126125f3565b610e1a6102f1565b91829182610602565b0390f35b6102f7565b5190565b60209181520190565b90825f9392825e0152565b601f801991011690565b610e6d610e76602093610e7b93610e6481610e2c565b93848093610e30565b95869101610e39565b610e44565b0190565b610ee091608060a0820192610e9a5f8201515f850190610863565b610eac60208201516020850190610863565b610ebe60408201516040850190610863565b610ed060608201516060850190610870565b0151906080818403910152610e4e565b90565b610ef89160208201915f818403910152610e7f565b90565b34610f2b57610f27610f16610f113660046106fd565b6126d0565b610f1e6102f1565b91829182610ee3565b0390f35b6102f7565b919060a083820312610f8157610f48815f850161032e565b92610f56826020830161032e565b92610f7e610f67846040850161032e565b93610f75816060860161032e565b9360800161032e565b90565b6102fb565b34610fb157610f96366004610f30565b5050505050610fa36102f1565b80610fad816103e1565b0390f35b6102f7565b9190604083820312610fde5780610fd2610fdb925f860161032e565b93602001610354565b90565b6102fb565b3461100b57610ff3366004610fb6565b5050610ffd6102f1565b80611007816103e1565b0390f35b6102f7565b909182601f8301121561104a5781359167ffffffffffffffff831161104557602001926020830284011161104057565b610a20565b610a1c565b610a18565b90602082820312611080575f82013567ffffffffffffffff811161107b576110779201611010565b9091565b6102ff565b6102fb565b346110ad5761109536600461104f565b505061109f6102f1565b806110a9816103e1565b0390f35b6102f7565b919060a083820312611103576110ca815f850161032e565b926110d88260208301610354565b926111006110e98460408501610354565b936110f78160608601610431565b9360800161032e565b90565b6102fb565b34611133576111183660046110b2565b50505050506111256102f1565b8061112f816103e1565b0390f35b6102f7565b909182601f830112156111725781359167ffffffffffffffff831161116d57602001926020830284011161116857565b610a20565b610a1c565b610a18565b60e08183031261124a5761118d825f830161032e565b92602082013567ffffffffffffffff811161124557836111ae918401611010565b929093604082013567ffffffffffffffff811161124057816111d1918401611138565b929093606082013567ffffffffffffffff811161123b57836111f4918401611138565b929093611204816080840161032e565b9260a083013567ffffffffffffffff81116112365761122883611233928601610a24565b93909460c001610431565b90565b6102ff565b6102ff565b6102ff565b6102ff565b6102fb565b346112805761125f366004611177565b50505050505050505050506112726102f1565b8061127c816103e1565b0390f35b6102f7565b7f000000000000000000000000000000000000000000000000000000000000000090565b346112d9576112b9366004610543565b6112d56112c4611285565b6112cc6102f1565b91829182610b94565b0390f35b6102f7565b6112e7816105e0565b036112ee57565b5f80fd5b905035906112ff826112de565b565b9190604083820312611329578061131d611326925f86016112f2565b936020016112f2565b90565b6102fb565b346113565761133e366004611301565b50506113486102f1565b80611352816103e1565b0390f35b6102f7565b91946113a36113ad9298979561139960a09661138f6113b49a61138560c08a019e5f8b01906106a6565b60208901906106a6565b60408701906106a6565b60608501906106a6565b60808301906106a6565b01906106a6565b565b346113ed576113e96113d16113cc366004610801565b61274e565b926113e09694969291926102f1565b9687968761135b565b0390f35b6102f7565b905f8061140393015191019061081f565b565b9190611418905f602085019401906113f2565b565b3461144a57611446611435611430366004610801565b6127d4565b61143d6102f1565b91829182611405565b0390f35b6102f7565b346114775761145f36600461064c565b50506114696102f1565b80611473816103e1565b0390f35b6102f7565b90916060828403126114b1576114ae611497845f850161032e565b936114a5816020860161032e565b93604001610354565b90565b6102fb565b346114df576114c636600461147c565b5050506114d16102f1565b806114db816103e1565b0390f35b6102f7565b34611514576115106114ff6114fa366004610801565b6127fe565b6115076102f1565b918291826106b3565b0390f35b6102f7565b5190565b60209181520190565b60200190565b9061153981602093610870565b0190565b60200190565b9061156061155a61155384611519565b809361151d565b92611526565b905f5b8181106115705750505090565b909192611589611583600192865161152c565b9461153d565b9101919091611563565b6115a89160208201915f818403910152611543565b90565b346115db576115bb366004610543565b6115d76115c66128cc565b6115ce6102f1565b91829182611593565b0390f35b6102f7565b5f80fd5b908160a09103126115f25790565b6115e0565b91909160408184031261163757611610835f830161045a565b92602082013567ffffffffffffffff81116116325761162f92016115e4565b90565b6102ff565b6102fb565b346116645761164c3660046115f7565b50506116566102f1565b80611660816103e1565b0390f35b6102f7565b909160c0828403126116c857611681835f840161032e565b9261168f816020850161032e565b9261169d826040830161032e565b926116c56116ae8460608501610354565b936116bc8160808601610354565b9360a001610354565b90565b6102fb565b346116f9576116dd366004611669565b5050505050506116eb6102f1565b806116f5816103e1565b0390f35b6102f7565b3461172f5761172b61171a611714366004610747565b9161290e565b6117226102f1565b918291826106b3565b0390f35b6102f7565b3461175b57611744366004610801565b5061174d6102f1565b80611757816103e1565b0390f35b6102f7565b3461179057611770366004610543565b61178c61177b612926565b6117836102f1565b918291826106b3565b0390f35b6102f7565b346117bf576117a5366004610cb7565b505050506117b16102f1565b806117bb816103e1565b0390f35b6102f7565b346117f4576117f06117df6117da366004610801565b61293b565b6117e76102f1565b918291826106b3565b0390f35b6102f7565b91906101008382031261187557611812815f850161032e565b926118208260208301610354565b9261182e8360408401610354565b9261183c816060850161032e565b9261184a8260808301610354565b9261187261185b8460a0850161045a565b936118698160c08601610480565b9360e001610480565b90565b6102fb565b346118b4576118b061189f6118903660046117f9565b96959095949194939293612951565b6118a76102f1565b918291826106b3565b0390f35b6102f7565b908160209103126118c75790565b6115e0565b91906040838203126118f457806118e86118f1925f860161032e565b936020016118b9565b90565b6102fb565b34611921576119093660046118cc565b50506119136102f1565b8061191d816103e1565b0390f35b6102f7565b61192f90610416565b9052565b9190611946905f60208501940190611926565b565b3461197857611958366004610543565b611974611963612972565b61196b6102f1565b91829182611933565b0390f35b6102f7565b5f80fd5b5f90565b90565b61199c6119976119a192611985565b610552565b610303565b90565b6119ad90611988565b90565b6119b990610555565b90565b6119c5906119b0565b90565b6119d0611981565b506119e26119dd5f6119a4565b6119bc565b90565b5f90565b6119fd6119f8611a0292611985565b610552565b6105e0565b90565b611a0d6119e5565b50611a175f6119e9565b90565b5f90565b611a32611a2d611a3792611985565b610552565b61033d565b90565b611a42611a1a565b50611a4c5f611a1e565b90565b505050611a5a611a1a565b50611a645f611a1e565b90565b634e487b7160e01b5f52604160045260245ffd5b90611a8590610e44565b810190811067ffffffffffffffff821117611a9f57604052565b611a67565b90611ab7611ab06102f1565b9283611a7b565b565b611ac46101e0611aa4565b90565b611ad16020611aa4565b90565b5f90565b611ae0611ac7565b90602082611aec611ad4565b81525050565b611afa611ad8565b90565b5f90565b5f90565b5f90565b5f90565b611b15611ab9565b9081611b1f611af2565b8152602001611b2c611afd565b8152602001611b39611afd565b8152602001611b46611afd565b8152602001611b53611afd565b8152602001611b60611afd565b8152602001611b6d611b01565b8152602001611b7a611b05565b8152602001611b87611b09565b8152602001611b94611b09565b8152602001611ba1611b09565b8152602001611bae611b09565b8152602001611bbb611afd565b8152602001611bc8611afd565b8152602001611bd5611afd565b815250565b611be2611b0d565b90565b611bef6020611aa4565b90565b90611bfc9061033d565b9052565b611c0b6101e0611aa4565b90565b52565b90611c1b906105e0565b9052565b611c33611c2e611c3892611985565b610552565b61084c565b90565b90611c459061084c565b9052565b611c5d611c58611c6292611985565b610552565b610416565b90565b90611c6f90610416565b9052565b90611c7d9061030e565b9052565b50611c8a611bda565b505f611c94611be5565b90611c9e90611a1e565b5f820190611cab91611bf2565b5f905f905f5f5f5f5f5f611cbe906119a4565b905f611cc9906119a4565b925f611cd4906119a4565b945f611cdf906119a4565b965f985f9a5f9c611cee611c00565b9e8f925f840190611cfe91611c0e565b611d07906119e9565b6020830190611d1591611c11565b611d1e906119e9565b9060400190611d2c91611c11565b611d35906119e9565b60608d0190611d4391611c11565b611d4c906119e9565b60808c0190611d5a91611c11565b611d63906119e9565b60a08b0190611d7191611c11565b611d7a90611c1f565b60c08a0190611d8891611c3b565b611d9190611c49565b60e0890190611d9f91611c65565b610100880190611dae91611c73565b610120870190611dbd91611c73565b610140860190611dcc91611c73565b610160850190611ddb91611c73565b611de4906119e9565b610180840190611df391611c11565b611dfc906119e9565b6101a0830190611e0b91611c11565b611e14906119e9565b6101c0820190611e2391611c11565b90565b50611e2f611a1a565b50611e395f611a1e565b90565b60209181520190565b5f7f556e737570706f72746564206173736574000000000000000000000000000000910152565b611e796011602092611e3c565b611e8281611e45565b0190565b611e9b9060208101905f818303910152611e6c565b90565b15611ea557565b611ead6102f1565b62461bcd60e51b815280611ec360048201611e86565b0390fd5b611ed090610555565b90565b611edc90611ec7565b90565b611ee890610571565b90565b611ef490610571565b90565b60e01b90565b90505190611f0a82610340565b565b90602082820312611f2557611f22915f01611efd565b90565b6102fb565b611f326102f1565b3d5f823e3d90fd5b5f7f4e6f7420656e6f756768206c6971756964697479000000000000000000000000910152565b611f6e6014602092611e3c565b611f7781611f3a565b0190565b611f909060208101905f818303910152611f61565b90565b15611f9a57565b611fa26102f1565b62461bcd60e51b815280611fb860048201611f7b565b0390fd5b90505190611fc982610368565b565b90602082820312611fe457611fe1915f01611fbc565b90565b6102fb565b91602061200a92949361200360408201965f830190610b87565b01906106a6565b565b61201590610555565b90565b6120219061200c565b90565b61202d90610571565b90565b61203990611a1e565b9052565b60209181520190565b90825f939282370152565b919061206b81612064816120709561203d565b8095612046565b610e44565b0190565b91936120ac6120b69296946120a26120c3999761209860a088019a5f890190610b87565b60208701906106a6565b6040850190612030565b6060830190610b87565b6080818503910152612051565b90565b5f7f466c6173686c6f616e20657865637574696f6e206661696c6564000000000000910152565b6120fa601a602092611e3c565b612103816120c6565b0190565b61211c9060208101905f8183039101526120ed565b90565b1561212657565b61212e6102f1565b62461bcd60e51b81528061214460048201612107565b0390fd5b604090612171612178949695939661216760608401985f850190610b87565b6020830190610b87565b01906106a6565b565b5f7f4c6f616e206e6f74207265706169640000000000000000000000000000000000910152565b6121ae600f602092611e3c565b6121b78161217a565b0190565b6121d09060208101905f8183039101526121a1565b90565b156121da57565b6121e26102f1565b62461bcd60e51b8152806121f8600482016121bb565b0390fd5b90929391945061223e836122386122327f000000000000000000000000000000000000000000000000000000000000000061030e565b9161030e565b14611e9e565b612286602061225461224f86611ed3565b611edf565b6370a082319061227b61226630611eeb565b9261226f6102f1565b95869485938493611ef7565b835260048301610b94565b03915afa90811561253a575f9161250c575b50936122b7856122b06122aa8961033d565b9161033d565b1015611f93565b6122c86122c385611ed3565b611edf565b90602063a9059cbb9284906122f05f8b966122fb6122e46102f1565b98899687958694611ef7565b845260048401611fe9565b03925af1918215612507576020926124dc575b5061232061231b84612018565b612024565b61234a5f631b11d0ff61235589958c9984913390919261233e6102f1565b9c8d9a8b998a98611ef7565b885260048801612074565b03925af19182156124d757602092612374915f916124aa575b5061211f565b61238561238084611ed3565b611edf565b6123af5f6323b872dd6123ba61239a30611eeb565b996123a36102f1565b9a8b9788968795611ef7565b855260048501612148565b03925af19283156124a5576123de6020926123e3926124159661247a575b50611ed3565b611edf565b6370a082319061240a6123f530611eeb565b926123fe6102f1565b96879485938493611ef7565b835260048301610b94565b03915afa80156124755761243861243e91612445945f91612447575b509261033d565b9161033d565b10156121d3565b565b612468915060203d811161246e575b6124608183611a7b565b810190611f0c565b5f612431565b503d612456565b611f2a565b61249990853d811161249e575b6124918183611a7b565b810190611fcb565b6123d8565b503d612487565b611f2a565b6124ca9150843d81116124d0575b6124c28183611a7b565b810190611fcb565b5f61236e565b503d6124b8565b611f2a565b6124fb90833d8111612500575b6124f38183611a7b565b810190611fcb565b61230e565b503d6124e9565b611f2a565b61252d915060203d8111612533575b6125258183611a7b565b810190611f0c565b5f612298565b503d61251b565b611f2a565b6125496020611aa4565b90565b61255461253f565b90602082612560611ad4565b81525050565b61256e61254c565b90565b61257b6020611aa4565b90565b50612587612566565b505f6125a561259d612597612571565b92611a1e565b5f8301611bf2565b90565b5f90565b506125b56125a8565b506125bf5f6119a4565b90565b505050506125ce611a1a565b506125d85f611a1e565b90565b5050506125e6611a1a565b506125f05f611a1e565b90565b6125fb6119e5565b506126055f6119e9565b90565b61261260a0611aa4565b90565b606090565b612622612608565b9060208080808086612632611b05565b81520161263d611b05565b815201612648611b05565b815201612653611b09565b81520161265e612615565b81525050565b61266c61261a565b90565b61267960a0611aa4565b90565b67ffffffffffffffff811161269a57612696602091610e44565b0190565b611a67565b906126b16126ac8361267c565b611aa4565b918252565b6126bf5f61269f565b90565b6126ca6126b6565b90565b52565b506126d9612664565b505f6127375f61272e6127255f6127206127176126f55f6119a4565b9561271261270a61270461266f565b9a611c49565b5f8b01611c65565b611c49565b60208801611c65565b611c49565b60408501611c65565b60608301611c73565b61274b6127426126c2565b608083016126cd565b90565b50612757611a1a565b50612760611a1a565b50612769611a1a565b50612772611a1a565b5061277b611a1a565b50612784611a1a565b505f905f915f915f915f916127c66127c06127ba6127b46127ae6127a85f97611a1e565b9a611a1e565b98611a1e565b96611a1e565b94611a1e565b92611a1e565b90565b6127d1611ad8565b90565b506127dd6127c9565b505f6127fb6127f36127ed611be5565b92611a1e565b5f8301611bf2565b90565b50612807611a1a565b506128115f611a1e565b90565b606090565b90565b61283061282b61283592612819565b610552565b61033d565b90565b67ffffffffffffffff81116128505760208091020190565b611a67565b9061286761286283612838565b611aa4565b918252565b369037565b9061289661287e83612855565b9260208061288c8693612838565b920191039061286c565b565b634e487b7160e01b5f52603260045260245ffd5b906128b682611519565b8110156128c7576020809102010190565b612898565b6128d4612814565b506128e76128e2600161281c565b612871565b61290b6128f35f6119a4565b612906836129005f611a1e565b906128ac565b611c73565b90565b505050612919611a1a565b506129235f611a1e565b90565b61292e611a1a565b506129385f611a1e565b90565b50612944611a1a565b5061294e5f611a1e565b90565b5050505050505050612961611a1a565b5061296b5f611a1e565b90565b5f90565b61297a61296e565b506129845f611c49565b9056fea2646970667358221220f815730fbc3d197627873dc7e5d7b182f9b696c69b894183af369294271db34064736f6c634300081e0033","linkReferences":{}},"methodIdentifiers":{"ADDRESSES_PROVIDER()":"0542975c","BRIDGE_PROTOCOL_FEE()":"272d9072","FLASHLOAN_PREMIUM_TOTAL()":"074b2e43","FLASHLOAN_PREMIUM_TO_PROTOCOL()":"6a99c036","MAX_NUMBER_RESERVES()":"f8119d51","MAX_STABLE_RATE_BORROW_SIZE_PERCENT()":"e82fec2f","UNDERLYING_ASSET_ADDRESS()":"b16a19de","backUnbacked(address,uint256,uint256)":"d65dc7a1","borrow(address,uint256,uint256,uint16,address)":"a415bcad","configureEModeCategory(uint8,(uint16,uint16,uint16,address,string))":"d579ea7d","deposit(address,uint256,address,uint16)":"e8eda9df","dropReserve(address)":"63c9b860","finalizeTransfer(address,address,address,uint256,uint256,uint256)":"d5ed3933","flashLoan(address,address[],uint256[],uint256[],address,bytes,uint16)":"ab9c4b5d","flashLoanSimple(address,address,uint256,bytes,uint16)":"42b0b77c","getConfiguration(address)":"c44b11f7","getEModeCategoryData(uint8)":"6c6f6ae1","getReserveAddressById(uint16)":"52751797","getReserveData(address)":"35ea6a75","getReserveNormalizedIncome(address)":"d15e0053","getReserveNormalizedVariableDebt(address)":"386497fd","getReservesList()":"d1946dbc","getUserAccountData(address)":"bf92857c","getUserConfiguration(address)":"4417a583","getUserEMode(address)":"eddf1b79","initReserve(address,address,address,address,address)":"7a708e92","liquidationCall(address,address,address,uint256,bool)":"00a718a9","mintToTreasury(address[])":"9cd19996","mintUnbacked(address,uint256,address,uint16)":"69a933a5","rebalanceStableBorrowRate(address,address)":"cd112382","repay(address,uint256,uint256,address)":"573ade81","repayWithATokens(address,uint256,uint256)":"2dad97d4","repayWithPermit(address,uint256,uint256,address,uint256,uint8,bytes32,bytes32)":"ee3e210b","rescueTokens(address,address,uint256)":"cea9d26f","resetIsolationModeTotalDebt(address)":"e43e88a1","setConfiguration(address,(uint256))":"f51e435b","setReserveInterestRateStrategyAddress(address,address)":"1d2118f9","setUserEMode(uint8)":"28530a47","setUserUseReserveAsCollateral(address,bool)":"5a3b74b9","supply(address,uint256,address,uint16)":"617ba037","supplyWithPermit(address,uint256,address,uint16,uint256,uint8,bytes32,bytes32)":"02c205f0","swapBorrowRateMode(address,uint256)":"94ba89a2","updateBridgeProtocolFee(uint256)":"3036b439","updateFlashloanPremiums(uint128,uint128)":"bcb6e522","withdraw(address,uint256,address)":"69328dec"},"id":7}