{"abi":[{"type":"constructor","inputs":[{"name":"_asset","type":"address","internalType":"address"}],"stateMutability":"nonpayable"},{"type":"function","name":"ADDRESSES_PROVIDER","inputs":[],"outputs":[{"name":"","type":"address","internalType":"contract IPoolAddressesProvider"}],"stateMutability":"pure"},{"type":"function","name":"BRIDGE_PROTOCOL_FEE","inputs":[],"outputs":[{"name":"","type":"uint256","internalType":"uint256"}],"stateMutability":"pure"},{"type":"function","name":"FLASHLOAN_PREMIUM_TOTAL","inputs":[],"outputs":[{"name":"","type":"uint128","internalType":"uint128"}],"stateMutability":"pure"},{"type":"function","name":"FLASHLOAN_PREMIUM_TO_PROTOCOL","inputs":[],"outputs":[{"name":"","type":"uint128","internalType":"uint128"}],"stateMutability":"pure"},{"type":"function","name":"MAX_NUMBER_RESERVES","inputs":[],"outputs":[{"name":"","type":"uint16","internalType":"uint16"}],"stateMutability":"pure"},{"type":"function","name":"MAX_STABLE_RATE_BORROW_SIZE_PERCENT","inputs":[],"outputs":[{"name":"","type":"uint256","internalType":"uint256"}],"stateMutability":"pure"},{"type":"function","name":"UNDERLYING_ASSET_ADDRESS","inputs":[],"outputs":[{"name":"","type":"address","internalType":"address"}],"stateMutability":"view"},{"type":"function","name":"backUnbacked","inputs":[{"name":"","type":"address","internalType":"address"},{"name":"","type":"uint256","internalType":"uint256"},{"name":"","type":"uint256","internalType":"uint256"}],"outputs":[{"name":"","type":"uint256","internalType":"uint256"}],"stateMutability":"pure"},{"type":"function","name":"borrow","inputs":[{"name":"","type":"address","internalType":"address"},{"name":"","type":"uint256","internalType":"uint256"},{"name":"","type":"uint256","internalType":"uint256"},{"name":"","type":"uint16","internalType":"uint16"},{"name":"","type":"address","internalType":"address"}],"outputs":[],"stateMutability":"pure"},{"type":"function","name":"configureEModeCategory","inputs":[{"name":"","type":"uint8","internalType":"uint8"},{"name":"","type":"tuple","internalType":"struct DataTypes.EModeCategory","components":[{"name":"ltv","type":"uint16","internalType":"uint16"},{"name":"liquidationThreshold","type":"uint16","internalType":"uint16"},{"name":"liquidationBonus","type":"uint16","internalType":"uint16"},{"name":"priceSource","type":"address","internalType":"address"},{"name":"label","type":"string","internalType":"string"}]}],"outputs":[],"stateMutability":"pure"},{"type":"function","name":"deposit","inputs":[{"name":"","type":"address","internalType":"address"},{"name":"","type":"uint256","internalType":"uint256"},{"name":"","type":"address","internalType":"address"},{"name":"","type":"uint16","internalType":"uint16"}],"outputs":[],"stateMutability":"pure"},{"type":"function","name":"dropReserve","inputs":[{"name":"","type":"address","internalType":"address"}],"outputs":[],"stateMutability":"pure"},{"type":"function","name":"finalizeTransfer","inputs":[{"name":"","type":"address","internalType":"address"},{"name":"","type":"address","internalType":"address"},{"name":"","type":"address","internalType":"address"},{"name":"","type":"uint256","internalType":"uint256"},{"name":"","type":"uint256","internalType":"uint256"},{"name":"","type":"uint256","internalType":"uint256"}],"outputs":[],"stateMutability":"pure"},{"type":"function","name":"flashLoan","inputs":[{"name":"","type":"address","internalType":"address"},{"name":"","type":"address[]","internalType":"address[]"},{"name":"","type":"uint256[]","internalType":"uint256[]"},{"name":"","type":"uint256[]","internalType":"uint256[]"},{"name":"","type":"address","internalType":"address"},{"name":"","type":"bytes","internalType":"bytes"},{"name":"","type":"uint16","internalType":"uint16"}],"outputs":[],"stateMutability":"pure"},{"type":"function","name":"flashLoanSimple","inputs":[{"name":"receiver","type":"address","internalType":"address"},{"name":"asset","type":"address","internalType":"address"},{"name":"amount","type":"uint256","internalType":"uint256"},{"name":"params","type":"bytes","internalType":"bytes"},{"name":"","type":"uint16","internalType":"uint16"}],"outputs":[],"stateMutability":"nonpayable"},{"type":"function","name":"getConfiguration","inputs":[{"name":"","type":"address","internalType":"address"}],"outputs":[{"name":"","type":"tuple","internalType":"struct DataTypes.ReserveConfigurationMap","components":[{"name":"data","type":"uint256","internalType":"uint256"}]}],"stateMutability":"pure"},{"type":"function","name":"getEModeCategoryData","inputs":[{"name":"","type":"uint8","internalType":"uint8"}],"outputs":[{"name":"","type":"tuple","internalType":"struct DataTypes.EModeCategory","components":[{"name":"ltv","type":"uint16","internalType":"uint16"},{"name":"liquidationThreshold","type":"uint16","internalType":"uint16"},{"name":"liquidationBonus","type":"uint16","internalType":"uint16"},{"name":"priceSource","type":"address","internalType":"address"},{"name":"label","type":"string","internalType":"string"}]}],"stateMutability":"pure"},{"type":"function","name":"getReserveAddressById","inputs":[{"name":"","type":"uint16","internalType":"uint16"}],"outputs":[{"name":"","type":"address","internalType":"address"}],"stateMutability":"pure"},{"type":"function","name":"getReserveData","inputs":[{"name":"","type":"address","internalType":"address"}],"outputs":[{"name":"","type":"tuple","internalType":"struct DataTypes.ReserveData","components":[{"name":"configuration","type":"tuple","internalType":"struct DataTypes.ReserveConfigurationMap","components":[{"name":"data","type":"uint256","internalType":"uint256"}]},{"name":"liquidityIndex","type":"uint128","internalType":"uint128"},{"name":"currentLiquidityRate","type":"uint128","internalType":"uint128"},{"name":"variableBorrowIndex","type":"uint128","internalType":"uint128"},{"name":"currentVariableBorrowRate","type":"uint128","internalType":"uint128"},{"name":"currentStableBorrowRate","type":"uint128","internalType":"uint128"},{"name":"lastUpdateTimestamp","type":"uint40","internalType":"uint40"},{"name":"id","type":"uint16","internalType":"uint16"},{"name":"aTokenAddress","type":"address","internalType":"address"},{"name":"stableDebtTokenAddress","type":"address","internalType":"address"},{"name":"variableDebtTokenAddress","type":"address","internalType":"address"},{"name":"interestRateStrategyAddress","type":"address","internalType":"address"},{"name":"accruedToTreasury","type":"uint128","internalType":"uint128"},{"name":"unbacked","type":"uint128","internalType":"uint128"},{"name":"isolationModeTotalDebt","type":"uint128","internalType":"uint128"}]}],"stateMutability":"pure"},{"type":"function","name":"getReserveNormalizedIncome","inputs":[{"name":"","type":"address","internalType":"address"}],"outputs":[{"name":"","type":"uint256","internalType":"uint256"}],"stateMutability":"pure"},{"type":"function","name":"getReserveNormalizedVariableDebt","inputs":[{"name":"","type":"address","internalType":"address"}],"outputs":[{"name":"","type":"uint256","internalType":"uint256"}],"stateMutability":"pure"},{"type":"function","name":"getReservesList","inputs":[],"outputs":[{"name":"","type":"address[]","internalType":"address[]"}],"stateMutability":"pure"},{"type":"function","name":"getUserAccountData","inputs":[{"name":"","type":"address","internalType":"address"}],"outputs":[{"name":"","type":"uint256","internalType":"uint256"},{"name":"","type":"uint256","internalType":"uint256"},{"name":"","type":"uint256","internalType":"uint256"},{"name":"","type":"uint256","internalType":"uint256"},{"name":"","type":"uint256","internalType":"uint256"},{"name":"","type":"uint256","internalType":"uint256"}],"stateMutability":"pure"},{"type":"function","name":"getUserConfiguration","inputs":[{"name":"","type":"address","internalType":"address"}],"outputs":[{"name":"","type":"tuple","internalType":"struct DataTypes.UserConfigurationMap","components":[{"name":"data","type":"uint256","internalType":"uint256"}]}],"stateMutability":"pure"},{"type":"function","name":"getUserEMode","inputs":[{"name":"","type":"address","internalType":"address"}],"outputs":[{"name":"","type":"uint256","internalType":"uint256"}],"stateMutability":"pure"},{"type":"function","name":"initReserve","inputs":[{"name":"","type":"address","internalType":"address"},{"name":"","type":"address","internalType":"address"},{"name":"","type":"address","internalType":"address"},{"name":"","type":"address","internalType":"address"},{"name":"","type":"address","internalType":"address"}],"outputs":[],"stateMutability":"pure"},{"type":"function","name":"liquidationCall","inputs":[{"name":"","type":"address","internalType":"address"},{"name":"","type":"address","internalType":"address"},{"name":"","type":"address","internalType":"address"},{"name":"","type":"uint256","internalType":"uint256"},{"name":"","type":"bool","internalType":"bool"}],"outputs":[],"stateMutability":"pure"},{"type":"function","name":"mintToTreasury","inputs":[{"name":"","type":"address[]","internalType":"address[]"}],"outputs":[],"stateMutability":"pure"},{"type":"function","name":"mintUnbacked","inputs":[{"name":"","type":"address","internalType":"address"},{"name":"","type":"uint256","internalType":"uint256"},{"name":"","type":"address","internalType":"address"},{"name":"","type":"uint16","internalType":"uint16"}],"outputs":[],"stateMutability":"pure"},{"type":"function","name":"rebalanceStableBorrowRate","inputs":[{"name":"","type":"address","internalType":"address"},{"name":"","type":"address","internalType":"address"}],"outputs":[],"stateMutability":"pure"},{"type":"function","name":"repay","inputs":[{"name":"","type":"address","internalType":"address"},{"name":"","type":"uint256","internalType":"uint256"},{"name":"","type":"uint256","internalType":"uint256"},{"name":"","type":"address","internalType":"address"}],"outputs":[{"name":"","type":"uint256","internalType":"uint256"}],"stateMutability":"pure"},{"type":"function","name":"repayWithATokens","inputs":[{"name":"","type":"address","internalType":"address"},{"name":"","type":"uint256","internalType":"uint256"},{"name":"","type":"uint256","internalType":"uint256"}],"outputs":[{"name":"","type":"uint256","internalType":"uint256"}],"stateMutability":"pure"},{"type":"function","name":"repayWithPermit","inputs":[{"name":"","type":"address","internalType":"address"},{"name":"","type":"uint256","internalType":"uint256"},{"name":"","type":"uint256","internalType":"uint256"},{"name":"","type":"address","internalType":"address"},{"name":"","type":"uint256","internalType":"uint256"},{"name":"","type":"uint8","internalType":"uint8"},{"name":"","type":"bytes32","internalType":"bytes32"},{"name":"","type":"bytes32","internalType":"bytes32"}],"outputs":[{"name":"","type":"uint256","internalType":"uint256"}],"stateMutability":"pure"},{"type":"function","name":"rescueTokens","inputs":[{"name":"","type":"address","internalType":"address"},{"name":"","type":"address","internalType":"address"},{"name":"","type":"uint256","internalType":"uint256"}],"outputs":[],"stateMutability":"pure"},{"type":"function","name":"resetIsolationModeTotalDebt","inputs":[{"name":"","type":"address","internalType":"address"}],"outputs":[],"stateMutability":"pure"},{"type":"function","name":"setConfiguration","inputs":[{"name":"","type":"address","internalType":"address"},{"name":"","type":"tuple","internalType":"struct DataTypes.ReserveConfigurationMap","components":[{"name":"data","type":"uint256","internalType":"uint256"}]}],"outputs":[],"stateMutability":"pure"},{"type":"function","name":"setReserveInterestRateStrategyAddress","inputs":[{"name":"","type":"address","internalType":"address"},{"name":"","type":"address","internalType":"address"}],"outputs":[],"stateMutability":"pure"},{"type":"function","name":"setUserEMode","inputs":[{"name":"","type":"uint8","internalType":"uint8"}],"outputs":[],"stateMutability":"pure"},{"type":"function","name":"setUserUseReserveAsCollateral","inputs":[{"name":"","type":"address","internalType":"address"},{"name":"","type":"bool","internalType":"bool"}],"outputs":[],"stateMutability":"pure"},{"type":"function","name":"supply","inputs":[{"name":"","type":"address","internalType":"address"},{"name":"","type":"uint256","internalType":"uint256"},{"name":"","type":"address","internalType":"address"},{"name":"","type":"uint16","internalType":"uint16"}],"outputs":[],"stateMutability":"pure"},{"type":"function","name":"supplyWithPermit","inputs":[{"name":"","type":"address","internalType":"address"},{"name":"","type":"uint256","internalType":"uint256"},{"name":"","type":"address","internalType":"address"},{"name":"","type":"uint16","internalType":"uint16"},{"name":"","type":"uint256","internalType":"uint256"},{"name":"","type":"uint8","internalType":"uint8"},{"name":"","type":"bytes32","internalType":"bytes32"},{"name":"","type":"bytes32","internalType":"bytes32"}],"outputs":[],"stateMutability":"pure"},{"type":"function","name":"swapBorrowRateMode","inputs":[{"name":"","type":"address","internalType":"address"},{"name":"","type":"uint256","internalType":"uint256"}],"outputs":[],"stateMutability":"pure"},{"type":"function","name":"updateBridgeProtocolFee","inputs":[{"name":"","type":"uint256","internalType":"uint256"}],"outputs":[],"stateMutability":"pure"},{"type":"function","name":"updateFlashloanPremiums","inputs":[{"name":"","type":"uint128","internalType":"uint128"},{"name":"","type":"uint128","internalType":"uint128"}],"outputs":[],"stateMutability":"pure"},{"type":"function","name":"withdraw","inputs":[{"name":"","type":"address","internalType":"address"},{"name":"","type":"uint256","internalType":"uint256"},{"name":"","type":"address","internalType":"address"}],"outputs":[{"name":"","type":"uint256","internalType":"uint256"}],"stateMutability":"pure"},{"type":"event","name":"BackUnbacked","inputs":[{"name":"reserve","type":"address","indexed":true,"internalType":"address"},{"name":"backer","type":"address","indexed":true,"internalType":"address"},{"name":"amount","type":"uint256","indexed":false,"internalType":"uint256"},{"name":"fee","type":"uint256","indexed":false,"internalType":"uint256"}],"anonymous":false},{"type":"event","name":"Borrow","inputs":[{"name":"reserve","type":"address","indexed":true,"internalType":"address"},{"name":"user","type":"address","indexed":false,"internalType":"address"},{"name":"onBehalfOf","type":"address","indexed":true,"internalType":"address"},{"name":"amount","type":"uint256","indexed":false,"internalType":"uint256"},{"name":"interestRateMode","type":"uint8","indexed":false,"internalType":"enum DataTypes.InterestRateMode"},{"name":"borrowRate","type":"uint256","indexed":false,"internalType":"uint256"},{"name":"referralCode","type":"uint16","indexed":true,"internalType":"uint16"}],"anonymous":false},{"type":"event","name":"FlashLoan","inputs":[{"name":"target","type":"address","indexed":true,"internalType":"address"},{"name":"initiator","type":"address","indexed":false,"internalType":"address"},{"name":"asset","type":"address","indexed":true,"internalType":"address"},{"name":"amount","type":"uint256","indexed":false,"internalType":"uint256"},{"name":"interestRateMode","type":"uint8","indexed":false,"internalType":"enum DataTypes.InterestRateMode"},{"name":"premium","type":"uint256","indexed":false,"internalType":"uint256"},{"name":"referralCode","type":"uint16","indexed":true,"internalType":"uint16"}],"anonymous":false},{"type":"event","name":"IsolationModeTotalDebtUpdated","inputs":[{"name":"asset","type":"address","indexed":true,"internalType":"address"},{"name":"totalDebt","type":"uint256","indexed":false,"internalType":"uint256"}],"anonymous":false},{"type":"event","name":"LiquidationCall","inputs":[{"name":"collateralAsset","type":"address","indexed":true,"internalType":"address"},{"name":"debtAsset","type":"address","indexed":true,"internalType":"address"},{"name":"user","type":"address","indexed":true,"internalType":"address"},{"name":"debtToCover","type":"uint256","indexed":false,"internalType":"uint256"},{"name":"liquidatedCollateralAmount","type":"uint256","indexed":false,"internalType":"uint256"},{"name":"liquidator","type":"address","indexed":false,"internalType":"address"},{"name":"receiveAToken","type":"bool","indexed":false,"internalType":"bool"}],"anonymous":false},{"type":"event","name":"MintUnbacked","inputs":[{"name":"reserve","type":"address","indexed":true,"internalType":"address"},{"name":"user","type":"address","indexed":false,"internalType":"address"},{"name":"onBehalfOf","type":"address","indexed":true,"internalType":"address"},{"name":"amount","type":"uint256","indexed":false,"internalType":"uint256"},{"name":"referralCode","type":"uint16","indexed":true,"internalType":"uint16"}],"anonymous":false},{"type":"event","name":"MintedToTreasury","inputs":[{"name":"reserve","type":"address","indexed":true,"internalType":"address"},{"name":"amountMinted","type":"uint256","indexed":false,"internalType":"uint256"}],"anonymous":false},{"type":"event","name":"RebalanceStableBorrowRate","inputs":[{"name":"reserve","type":"address","indexed":true,"internalType":"address"},{"name":"user","type":"address","indexed":true,"internalType":"address"}],"anonymous":false},{"type":"event","name":"Repay","inputs":[{"name":"reserve","type":"address","indexed":true,"internalType":"address"},{"name":"user","type":"address","indexed":true,"internalType":"address"},{"name":"repayer","type":"address","indexed":true,"internalType":"address"},{"name":"amount","type":"uint256","indexed":false,"internalType":"uint256"},{"name":"useATokens","type":"bool","indexed":false,"internalType":"bool"}],"anonymous":false},{"type":"event","name":"ReserveDataUpdated","inputs":[{"name":"reserve","type":"address","indexed":true,"internalType":"address"},{"name":"liquidityRate","type":"uint256","indexed":false,"internalType":"uint256"},{"name":"stableBorrowRate","type":"uint256","indexed":false,"internalType":"uint256"},{"name":"variableBorrowRate","type":"uint256","indexed":false,"internalType":"uint256"},{"name":"liquidityIndex","type":"uint256","indexed":false,"internalType":"uint256"},{"name":"variableBorrowIndex","type":"uint256","indexed":false,"internalType":"uint256"}],"anonymous":false},{"type":"event","name":"ReserveUsedAsCollateralDisabled","inputs":[{"name":"reserve","type":"address","indexed":true,"internalType":"address"},{"name":"user","type":"address","indexed":true,"internalType":"address"}],"anonymous":false},{"type":"event","name":"ReserveUsedAsCollateralEnabled","inputs":[{"name":"reserve","type":"address","indexed":true,"internalType":"address"},{"name":"user","type":"address","indexed":true,"internalType":"address"}],"anonymous":false},{"type":"event","name":"Supply","inputs":[{"name":"reserve","type":"address","indexed":true,"internalType":"address"},{"name":"user","type":"address","indexed":false,"internalType":"address"},{"name":"onBehalfOf","type":"address","indexed":true,"internalType":"address"},{"name":"amount","type":"uint256","indexed":false,"internalType":"uint256"},{"name":"referralCode","type":"uint16","indexed":true,"internalType":"uint16"}],"anonymous":false},{"type":"event","name":"SwapBorrowRateMode","inputs":[{"name":"reserve","type":"address","indexed":true,"internalType":"address"},{"name":"user","type":"address","indexed":true,"internalType":"address"},{"name":"interestRateMode","type":"uint8","indexed":false,"internalType":"enum DataTypes.InterestRateMode"}],"anonymous":false},{"type":"event","name":"UserEModeSet","inputs":[{"name":"user","type":"address","indexed":true,"internalType":"address"},{"name":"categoryId","type":"uint8","indexed":false,"internalType":"uint8"}],"anonymous":false},{"type":"event","name":"Withdraw","inputs":[{"name":"reserve","type":"address","indexed":true,"internalType":"address"},{"name":"user","type":"address","indexed":true,"internalType":"address"},{"name":"to","type":"address","indexed":true,"internalType":"address"},{"name":"amount","type":"uint256","indexed":false,"internalType":"uint256"}],"anonymous":false}],"bytecode":{"object":"0x60a03461007157601f6116f738819003918201601f19168301916001600160401b038311848410176100755780849260209460405283398101031261007157516001600160a01b03811681036100715760805260405161166d908161008a82396080518181816106700152610b500152f35b5f80fd5b634e487b7160e01b5f52604160045260245ffdfe608080604052600480361015610013575f80fd5b5f3560e01c918262a718a91461126057826302c205f01461120d5782630542975c146111d757508163074b2e431461030b5781631d2118f91461050c578163272d90721461030b57816328530a47146111a05781632dad97d4146103155781633036b4391461116f57816335ea6a7514610f5d578163386497fd1461030157816342b0b77c14610abe5781634417a583146105115781635275179714610a7a578163573ade8114610a3a5781635a3b74b9146109f5578163617ba0371461030657816363c9b8601461031057816369328dec146109b557816369a933a5146103065781636a99c0361461030b5781636c6f6ae1146108705781637a708e921461081e57816394ba89a2146107e75781639cd199961461079a578163a415bcad14610751578163ab9c4b5d14610694578163b16a19de14610626578163bcb6e522146105cf578163bf92857c1461056f578163c44b11f714610511578163cd1123821461050c578163cea9d26f146104cc578163d15e005314610301578163d1946dbc146103be57508063d579ea7d14610365578063d5ed39331461031a578063d65dc7a114610315578063e43e88a114610310578063e82fec2f1461030b578063e8eda9df14610306578063eddf1b7914610301578063ee3e210b146102ac578063f51e435b146102485763f8119d511461020c575f80fd5b34610244575f7ffffffffffffffffffffffffffffffffffffffffffffffffffffffffffffffffc3601126102445760206040515f8152f35b5f80fd5b346102445760407ffffffffffffffffffffffffffffffffffffffffffffffffffffffffffffffffc3601126102445761027f6112b7565b5060207fffffffffffffffffffffffffffffffffffffffffffffffffffffffffffffffdc36011261024457005b34610244576101007ffffffffffffffffffffffffffffffffffffffffffffffffffffffffffffffffc360112610244576102e46112b7565b506102ed611320565b506102f6611377565b5060206040515f8152f35b611426565b61148b565b61020c565b6114f4565b6113ce565b346102445760c07ffffffffffffffffffffffffffffffffffffffffffffffffffffffffffffffffc360112610244576103516112b7565b5061035a6112da565b506103636112fd565b005b34610244577ffffffffffffffffffffffffffffffffffffffffffffffffffffffffffffffffc6040813601126102445761039d611387565b506024359067ffffffffffffffff82116102445760a0913603011261024457005b34610244575f7ffffffffffffffffffffffffffffffffffffffffffffffffffffffffffffffffc360112610244576040516040810181811067ffffffffffffffff8211176104a0576040526001918282526020918281019183368437815115610474575083835f84526040519281840190828552518091526040840194915f5b82811061044b5785870386f35b835173ffffffffffffffffffffffffffffffffffffffff1687529581019592810192840161043e565b6032907f4e487b71000000000000000000000000000000000000000000000000000000005f525260245ffd5b6041837f4e487b71000000000000000000000000000000000000000000000000000000005f525260245ffd5b346102445760607ffffffffffffffffffffffffffffffffffffffffffffffffffffffffffffffffc360112610244576105036112b7565b506103636112da565b611397565b346102445760207ffffffffffffffffffffffffffffffffffffffffffffffffffffffffffffffffc360112610244576105486112b7565b505f604051610556816115a6565b525f604051610564816115a6565b5260206040515f8152f35b346102445760207ffffffffffffffffffffffffffffffffffffffffffffffffffffffffffffffffc360112610244576105a66112b7565b5060c06040515f81525f60208201525f60408201525f60608201525f60808201525f60a0820152f35b346102445760407ffffffffffffffffffffffffffffffffffffffffffffffffffffffffffffffffc36011261024457356fffffffffffffffffffffffffffffffff9081811603610244576024359081160361024457005b34610244575f7ffffffffffffffffffffffffffffffffffffffffffffffffffffffffffffffffc36011261024457602060405173ffffffffffffffffffffffffffffffffffffffff7f0000000000000000000000000000000000000000000000000000000000000000168152f35b346102445760e07ffffffffffffffffffffffffffffffffffffffffffffffffffffffffffffffffc360112610244576106cb6112b7565b5067ffffffffffffffff90602435828111610244576106ed903690830161152b565b505060443582811161024457610706903690830161152b565b50506064358281116102445761071f903690830161152b565b5050610729611343565b5060a435918211610244576107409136910161145d565b505060c43561ffff81160361024457005b346102445760a07ffffffffffffffffffffffffffffffffffffffffffffffffffffffffffffffffc360112610244576107886112b7565b50610791611366565b50610363611343565b346102445760207ffffffffffffffffffffffffffffffffffffffffffffffffffffffffffffffffc3601126102445780359067ffffffffffffffff8211610244576103639136910161152b565b346102445760407ffffffffffffffffffffffffffffffffffffffffffffffffffffffffffffffffc360112610244576103636112b7565b346102445760a07ffffffffffffffffffffffffffffffffffffffffffffffffffffffffffffffffc360112610244576108556112b7565b5061085e6112da565b506108676112fd565b50610791611320565b34610244576020807ffffffffffffffffffffffffffffffffffffffffffffffffffffffffffffffffc360112610244576108a8611387565b50606060806040516108b9816115c2565b5f81525f848201525f60408201525f838201520152604051906108db826115c2565b5f8252808201915f835260408101925f845273ffffffffffffffffffffffffffffffffffffffff606083015f815260405192610916846115a6565b5f84526080850193845260405196879587875261ffff92838092511689890152511660408701525116606085015251166080830152519160a0808301528251928360c08401525f5b84811061099e575050507fffffffffffffffffffffffffffffffffffffffffffffffffffffffffffffffe0601f835f60e080968601015201168101030190f35b81810183015186820160e00152859350820161095e565b346102445760607ffffffffffffffffffffffffffffffffffffffffffffffffffffffffffffffffc360112610244576109ec6112b7565b506102f66112fd565b346102445760407ffffffffffffffffffffffffffffffffffffffffffffffffffffffffffffffffc36011261024457610a2c6112b7565b506024358015150361024457005b346102445760807ffffffffffffffffffffffffffffffffffffffffffffffffffffffffffffffffc36011261024457610a716112b7565b506102f6611320565b346102445760207ffffffffffffffffffffffffffffffffffffffffffffffffffffffffffffffffc360112610244573561ffff8116036102445760206040515f8152f35b346102445760a07ffffffffffffffffffffffffffffffffffffffffffffffffffffffffffffffffc36011261024457610af56112b7565b90610afe6112da565b6044803593606494853567ffffffffffffffff811161024457610b24903690870161145d565b60849391933561ffff8116036102445773ffffffffffffffffffffffffffffffffffffffff80961691867f0000000000000000000000000000000000000000000000000000000000000000168303610f0157604051937f70a082310000000000000000000000000000000000000000000000000000000091828652308a87015260209660249988888c818a5afa978815610dac575f98610ed2575b50838810610e7857604051927fa9059cbb0000000000000000000000000000000000000000000000000000000084521694858c840152838b84015288838b815f8b5af1918215610dac578c7fffffffffffffffffffffffffffffffffffffffffffffffffffffffffffffffe08f848f97958f958f98935f8f999860c499601f97610e5b575b508d6040519d8e9c8d9b7f1b11d0ff000000000000000000000000000000000000000000000000000000008d528c01528a0152880152339087015260a060848701528160a4870152868601375f858286010152011681010301815f885af1908115610dac575f91610e3e575b5015610de457604051927f23b872dd0000000000000000000000000000000000000000000000000000000084528984015230888401528683015284828a815f875af1918215610dac578592610db7575b5086604051809481938252308b8301525afa908115610dac575f91610d7f575b5010610d2857005b7f4c6f616e206e6f7420726570616964000000000000000000000000000000000092600f91604051957f08c379a0000000000000000000000000000000000000000000000000000000008752860152840152820152fd5b90508281813d8311610da5575b610d9681836115de565b81010312610244575187610d20565b503d610d8c565b6040513d5f823e3d90fd5b610dd690833d8511610ddd575b610dce81836115de565b81019061161f565b5089610d00565b503d610dc4565b89897f466c6173686c6f616e20657865637574696f6e206661696c656400000000000089601a8c8b604051957f08c379a0000000000000000000000000000000000000000000000000000000008752860152840152820152fd5b610e559150873d8911610ddd57610dce81836115de565b8b610cb0565b610e71908d803d10610ddd57610dce81836115de565b505f610c44565b8c8c7f4e6f7420656e6f756768206c69717569646974790000000000000000000000008c60148f8e604051957f08c379a0000000000000000000000000000000000000000000000000000000008752860152840152820152fd5b9097508881813d8311610efa575b610eea81836115de565b810103126102445751968d610bbf565b503d610ee0565b88887f556e737570706f72746564206173736574000000000000000000000000000000886020604051937f08c379a000000000000000000000000000000000000000000000000000000000855284015260116024840152820152fd5b346102445760207ffffffffffffffffffffffffffffffffffffffffffffffffffffffffffffffffc36011261024457610f946112b7565b505f6101c0604051610fa58161155c565b604051610fb1816115a6565b83815281528260208201528260408201528260608201528260808201528260a08201528260c08201528260e08201528261010082015282610120820152826101408201528261016082015282610180820152826101a082015201526101e060405161101b816115a6565b5f81526fffffffffffffffffffffffffffffffff6101c060405161103e8161155c565b8381525f60208201525f60408201525f60608201525f60808201525f60a08201525f60c08201525f60e08201525f6101008201525f6101208201525f6101408201525f6101608201525f6101808201525f6101a08201525f82820152604051935184528260208201511660208501528260408201511660408501528260608201511660608501528260808201511660808501528260a08201511660a085015264ffffffffff60c08201511660c085015261ffff60e08201511660e085015273ffffffffffffffffffffffffffffffffffffffff806101008301511661010086015280610120830151166101208601528061014083015116610140860152610160820151166101608501528261018082015116610180850152826101a0820151166101a08501520151166101c0820152f35b346102445760207ffffffffffffffffffffffffffffffffffffffffffffffffffffffffffffffffc36011261024457005b346102445760207ffffffffffffffffffffffffffffffffffffffffffffffffffffffffffffffffc36011261024457610363611387565b34610244575f7ffffffffffffffffffffffffffffffffffffffffffffffffffffffffffffffffc36011261024457805f60209252f35b34610244576101007ffffffffffffffffffffffffffffffffffffffffffffffffffffffffffffffffc360112610244576112456112b7565b5061124e6112fd565b50611257611366565b50610363611377565b346102445760a07ffffffffffffffffffffffffffffffffffffffffffffffffffffffffffffffffc360112610244576112976112b7565b506112a06112da565b506112a96112fd565b506084358015150361024457005b6004359073ffffffffffffffffffffffffffffffffffffffff8216820361024457565b6024359073ffffffffffffffffffffffffffffffffffffffff8216820361024457565b6044359073ffffffffffffffffffffffffffffffffffffffff8216820361024457565b6064359073ffffffffffffffffffffffffffffffffffffffff8216820361024457565b6084359073ffffffffffffffffffffffffffffffffffffffff8216820361024457565b6064359061ffff8216820361024457565b60a4359060ff8216820361024457565b6004359060ff8216820361024457565b346102445760407ffffffffffffffffffffffffffffffffffffffffffffffffffffffffffffffffc360112610244576105036112b7565b346102445760607ffffffffffffffffffffffffffffffffffffffffffffffffffffffffffffffffc3601126102445760043573ffffffffffffffffffffffffffffffffffffffff8116036102445760206040515f8152f35b346102445760207ffffffffffffffffffffffffffffffffffffffffffffffffffffffffffffffffc360112610244576102f66112b7565b9181601f840112156102445782359167ffffffffffffffff8311610244576020838186019501011161024457565b346102445760807ffffffffffffffffffffffffffffffffffffffffffffffffffffffffffffffffc3601126102445773ffffffffffffffffffffffffffffffffffffffff6004358181160361024457604435908116036102445760643561ffff81160361024457005b346102445760207ffffffffffffffffffffffffffffffffffffffffffffffffffffffffffffffffc360112610244576103636112b7565b9181601f840112156102445782359167ffffffffffffffff8311610244576020808501948460051b01011161024457565b6101e0810190811067ffffffffffffffff82111761157957604052565b7f4e487b71000000000000000000000000000000000000000000000000000000005f52604160045260245ffd5b6020810190811067ffffffffffffffff82111761157957604052565b60a0810190811067ffffffffffffffff82111761157957604052565b90601f7fffffffffffffffffffffffffffffffffffffffffffffffffffffffffffffffe0910116810190811067ffffffffffffffff82111761157957604052565b9081602091031261024457518015158103610244579056fea2646970667358221220dfd88bd3ae294584321116c20f40e7a3ab42054cd61fdf84c42bd4c5e4f00ff264736f6c63430008140033","linkReferences":{}},"methodIdentifiers":{"ADDRESSES_PROVIDER()":"0542975c","BRIDGE_PROTOCOL_FEE()":"272d9072","FLASHLOAN_PREMIUM_TOTAL()":"074b2e43","FLASHLOAN_PREMIUM_TO_PROTOCOL()":"6a99c036","MAX_NUMBER_RESERVES()":"f8119d51","MAX_STABLE_RATE_BORROW_SIZE_PERCENT()":"e82fec2f","UNDERLYING_ASSET_ADDRESS()":"b16a19de","backUnbacked(address,uint256,uint256)":"d65dc7a1","borrow(address,uint256,uint256,uint16,address)":"a415bcad","configureEModeCategory(uint8,(uint16,uint16,uint16,address,string))":"d579ea7d","deposit(address,uint256,address,uint16)":"e8eda9df","dropReserve(address)":"63c9b860","finalizeTransfer(address,address,address,uint256,uint256,uint256)":"d5ed3933","flashLoan(address,address[],uint256[],uint256[],address,bytes,uint16)":"ab9c4b5d","flashLoanSimple(address,address,uint256,bytes,uint16)":"42b0b77c","getConfiguration(address)":"c44b11f7","getEModeCategoryData(uint8)":"6c6f6ae1","getReserveAddressById(uint16)":"52751797","getReserveData(address)":"35ea6a75","getReserveNormalizedIncome(address)":"d15e0053","getReserveNormalizedVariableDebt(address)":"386497fd","getReservesList()":"d1946dbc","getUserAccountData(address)":"bf92857c","getUserConfiguration(address)":"4417a583","getUserEMode(address)":"eddf1b79","initReserve(address,address,address,address,address)":"7a708e92","liquidationCall(address,address,address,uint256,bool)":"00a718a9","mintToTreasury(address[])":"9cd19996","mintUnbacked(address,uint256,address,uint16)":"69a933a5","rebalanceStableBorrowRate(address,address)":"cd112382","repay(address,uint256,uint256,address)":"573ade81","repayWithATokens(address,uint256,uint256)":"2dad97d4","repayWithPermit(address,uint256,uint256,address,uint256,uint8,bytes32,bytes32)":"ee3e210b","rescueTokens(address,address,uint256)":"cea9d26f","resetIsolationModeTotalDebt(address)":"e43e88a1","setConfiguration(address,(uint256))":"f51e435b","setReserveInterestRateStrategyAddress(address,address)":"1d2118f9","setUserEMode(uint8)":"28530a47","setUserUseReserveAsCollateral(address,bool)":"5a3b74b9","supply(address,uint256,address,uint16)":"617ba037","supplyWithPermit(address,uint256,address,uint16,uint256,uint8,bytes32,bytes32)":"02c205f0","swapBorrowRateMode(address,uint256)":"94ba89a2","updateBridgeProtocolFee(uint256)":"3036b439","updateFlashloanPremiums(uint128,uint128)":"bcb6e522","withdraw(address,uint256,address)":"69328dec"},"id":3}